:03000000021F21BB
:0C1F2100787FE4F6D8FD758154021F683B
:10171800013700013300013500013200012F0004B8
:101728004100000000012E00014E00013600014D6D
:1017380000014000013400014F00616A0000000010
:101748000000000000000000000000000000000091
:101758000000000000000000000000000000000081
:101768000000000000000000000000000000000071
:101778000000000000000000000000000000000061
:101788000000000000000000000000000000000051
:101798000000000000000000000000000000000041
:1017A8000000000000000000000000000000000031
:1017B8000000000000000000000000000000000021
:1017C8000000000000000000000000000000000011
:1017D8000000000000000000000000000000000001
:1017E80000000000000000000000000000000000F1
:1017F80000000000000000000000000000000000E1
:1018080000000000000000000000000000000000D0
:1018180000000000000000000000000000000000C0
:1018280000000000000000000000000000000000B0
:1018380000000000000000000000000000000000A0
:101848000000000000000000000000000000000090
:101858000000000000000000000000000000000080
:101868000000000000000000000000000000000070
:101878000000000000000000000000000000000060
:101888000000000000000000000000000000000050
:101898000000000000000000000000000000000040
:0C18A80000000000000000000230000002
:10004600C2AFA295B39295C290D2B6D2B7D2C0E44F
:10005600F5321222001221EE12153DE47B6A7A0176
:10006600F9F8AF3BAE3AAD39AC38121FF3AC00AD80
:1000760001AE02AF03EC4D4E4F600302010B7B6AEB
:100086007A01F9F8AF3FAE3EAD3DAC3C121FF3AC82
:1000960000AD01AE02AF03EC4D4E4F7068C3E53BB9
:1000A600953FFFE53A953EFEE539953DFDE53895E8
:1000B6003CFCE47B6A7A01F9F8C31209EF6046AFAB
:1000C6003BAE3AAD39AC38AB3FAA3EA93DA83CC3DE
:1000D6001209EF401AE53B2496F53FE53A34FEF562
:1000E6003EE53934FFF53DE53834FFF53C8016E54D
:1000F6003F246AF53BE53E3401F53AE4353DF539F2
:10010600E4353CF538E47B6A7A01F9F8AF48AE4746
:10011600AD46AC45121FF3AC00AD01AE02AF03EC29
:100126004D4E4F60030201B57B6A7A01F9F8AF4C78
:10013600AE4BAD4AAC49121FF3AC00AD01AE02AFF7
:1001460003EC4D4E4F7068C3E548954CFFE5479567
:100156004BFEE546954AFDE5459549FCE47B6A7A02
:1001660001F9F8C31209EF6046AF48AE47AD46AC99
:1001760045AB4CAA4BA94AA849C31209EF401AE558
:10018600482496F54CE54734FEF54BE54634FFF535
:100196004AE54534FFF5498016E54C246AF548E5FD
:1001A6004B3401F547E4354AF546E43549F545E46F
:1001B6007B6A7A01F9F8AF3BAE3AAD39AC38121F1B
:1001C600F3AC00AD01AE02AF03EC4D4E4F6036E42A
:1001D6007B6A7A01F9F8AF3FAE3EAD3DAC3C121FEB
:1001E600F3AC00AD01AE02AF03EC4D4E4F7016E519
:1001F6003F246AF53BE53E3401F53AE4353DF539F1
:10020600E4353CF538E47B6A7A01F9F8AF3BAE3A5F
:10021600AD39AC38121FF3AC00AD01AE02AF03EC42
:100226004D4E4F70377B6A7A01F9F8AF3FAE3EAD5F
:100236003DAC3C121FF3AC00AD01AE02AF03EC4D7A
:100246004E4F6018E53B2496F53FE53A34FEF53E01
:10025600E53934FFF53DE53834FFF53CE47B6A7A51
:1002660001F9F8AF48AE47AD46AC45121FF3AC00F6
:10027600AD01AE02AF03EC4D4E4F6036E47B6A7AB9
:1002860001F9F8AF4CAE4BAD4AAC49121FF3AC00C6
:10029600AD01AE02AF03EC4D4E4F7016E54C246A2D
:1002A600F548E54B3401F547E4354AF546E435496A
:1002B600F545E47B6A7A01F9F8AF48AE47AD46AC3E
:1002C60045121FF3AC00AD01AE02AF03EC4D4E4F2D
:1002D60070377B6A7A01F9F8AF4CAE4BAD4AAC4940
:1002E600121FF3AC00AD01AE02AF03EC4D4E4F60F2
:1002F60018E5482496F54CE54734FEF54BE54634BB
:10030600FFF54AE54534FFF549E47B6A7A01F9F8D9
:10031600AF3BAE3AAD39AC38121FF3AC00AD01AE0F
:1003260002AF03EC4D4E4F6020E47B6A7A01F9F888
:10033600AF3FAE3EAD3DAC3C121FF3AC00AD01AEDF
:1003460002AF03EC4D4E4F7040E47B6A7A01F9F838
:10035600AF48AE47AD46AC45121FF3AC00AD01AE9B
:1003660002AF03EC4D4E4F6026E47B6A7A01F9F842
:10037600AF4CAE4BAD4AAC49121FF3AC00AD01AE6B
:1003860002AF03EC4D4E4F6006121DE9121E877F29
:100396008812222F7F1E120026C2B6D2AAD2AFA280
:1003A60095B3929530B20AE54F7006754F01122249
:1003B6003D20B221E54F6401701BE5337017F54F00
:1003C600D3E532940174809480400415321532E4EA
:1003D600F537122244E54E64017007F54E7F881208
:1003E600222FE5406401701AF540750C01750D6AFF
:1003F600FFFEFDFC1212FB121DE9121E877F8512FD
:10040600222FAF3BAE3AAD39AC38AB48AA47A94626
:10041600A845C31209EF701EF54D7F6A7E01FDFCEB
:10042600AB3BAA3AA939A838C31209EF600B121DD3
:10043600E9121E878003754D01E53260030204CC84
:10044600E52E640160030204CCE54D64017077E596
:100456003670730532F52EF54D7B017A007900AFC3
:1004660048AE47AD46AC45750F0175106A12107F50
:100476007B017A0079007D6A7C01122037AF48AE95
:1004860047AD46AC45750C01750D6A1212FBE54881
:10049600246AF548E5473401F547E43546F546E470
:1004A6003545F5457F02121A01E54C246AF54CE5FF
:1004B6004B3401F54BE4354AF54AE43549F5497FB5
:1004C60004121A011532E5326003020550E52E6466
:1004D600017077E54D64017071E5366401706B7FDC
:1004E600C87EFF7D03FCAB3BAA3AA939A838C312E4
:1004F60009EF60560532E4F54DF5367B017A007951
:1005060000AF3BAE3AAD39AC3875100175116A12C1
:100516000E03E53B246AF53BE53A3401F53AE4354A
:1005260039F539E43538F5387F01121A01E53F24EB
:100536006AF53FE53E3401F53EE4353DF53DE435EB
:100546003CF53C7F03121A011532E5327025E52E83
:100556006401701FE54D701BE536640170150532A8
:10056600F52EF5367B017A0079007D6A7C01122032
:10057600371532E53260030203A5E52E6003020358
:10058600A5E536640160030203A50532F5367B0155
:100596007A007900AF3BAE3AAD39AC3875100175CB
:1005A600116A120E03E53B246AF53BE53A3401F580
:1005B6003AE43539F539E43538F5387F01121A0150
:1005C600E53F246AF53FE53E3401F53EE4353DF569
:1005D6003DE4353CF53C7F03121A0115320203A5B2
:03001300020AE7F7
:100AE700C0E0C0F0C083C082C0D075D000C000C0D5
:100AF70001C002C003C004C005C006C007C2AFC220
:100B0700AAA295B39295E537147003020CBE147030
:100B170003020D1B147003020D2B147003020D5EEC
:100B2700147003020D9024056003020DDEC3E53245
:100B3700940274809480500705320532020D16E541
:100B47003264026003020D16D2B7D2B685A02F75A4
:100B570030007531007534007E00C3748094805076
:100B670003020C13D3E52F94FA7480948040030298
:100B77000C13AC2FE412088EE4FBFA794878431281
:100B870005EDE4FBFA792078411207E78F448E439D
:100B97008D428C41E4FBFA798078411207E712080D
:100BA700C274002531F58274003530F583EFF07497
:100BB700002531F58274003530F583E0F52F0531D6
:100BC700E53170020530E52F75F010A4FDACF0ECAF
:100BD700120889A804A905AA06AB07AF44AE43AD1E
:100BE70042AC411205E9E4FBFA798078411206DE4E
:100BF7001208C274002531F58274003530F583EF91
:100C0700F00531E53170020530020CB6E52F64FBC3
:100C1700703A900000E0FF74002531F582740035CA
:100C270030F583EFF00531E53170020530900001B2
:100C3700E0FF74002531F58274003530F583EFF05D
:100C47000531E531700205307FFB8028E52F64FC14
:100C5700700F900000F0A3F0F5307531027FFC8033
:100C670013E52F64FD7012900000F0A3F0F53075C6
:100C770031027FFD12222F8036900000E0FF7400C2
:100C87002531F58274003530F583EFF00531E53114
:100C970070020530900001E0FF74002531F5827481
:100CA700003530F583EFF00531E531700205307519
:100CB70035010537020D5AE53164024530703FD2E0
:100CC700B7C2B6E535700705377F14120026E5353C
:100CD7006401700A7FC11221877F01120026E53562
:100CE7006402700A7FC21221877F01120026E53550
:100CF70064036003020DDE7FC31221878011C2B730
:100D0700D2B6753000753100753700153215327F50
:100D170001020DDBD2B7C2B67FCA12218705377F22
:100D270004020DDBE531647A45307010D2B7C2B6E4
:100D37007FCB12218705377F04020DDBC2B7D2B6FE
:100D47007530007531027537020534E534640A7071
:100D57000280757F02807DE53164F24530700FD2E5
:100D6700B7C2B67FCC12218705377F048066C2B72A
:100D7700D2B675300075317A7537030534E53464BA
:100D87000A700280437F02804BE531B46A25E53063
:100D9700B40120D2B7D2B615321532753700753681
:100DA700017580947F887E131221507580FF122170
:100DB700D58024C2B7D2B67530007531F2753704C5
:100DC7000534E534640A700A7FFE12222F12223D91
:100DD70080057F02120026D2AAD2AFD007D006D054
:100DE70005D004D003D002D001D000D0D0D082D01B
:060DF70083D0F0D0E032D1
:030023000218B808
:1018B800C0E0C0F0C083C082C0D075D000C000C0F6
:0D18C80001C002C003C004C005C006C00777
:1018D500752DFFC2AFA295B392952098030219E228
:1018E500C29885992DAF2D7E00C3EF940174809425
:1018F50080400CD3EF943C7480948050028045AFB7
:101905002D7E00C3EF943D74809480402FD3EF94D7
:1019150078748094805025E5336401701F12218707
:10192500C2AC7F607EEA1221507F607EEA122150B0
:101935007F607EEA122150D2AC0219DDE52D64806C
:101945007014AF2D1221877F057E00122150AF2D17
:101955001221870219DDE52D6482700812223D757A
:1019650033018074E52D6483701D20B20312224477
:10197500D3E5329401748094804004153215327594
:1019850033007537008051AF2D7E00EF648B7004F6
:10199500C2C08044EF648A4E7004D2C0803AEF64BE
:1019A500844E7005752E01802FEF64854E70057588
:1019B50040018024EF64884E7005754E018019C37F
:1019C500EF9496EE648094804015D3EF94FAEE641C
:1019D500809480500A852D80752DFF8002C299D292
:0119E500AF52
:1019E600D007D006D005D004D003D002D001D00055
:0B19F600D0D0D082D083D0F0D0E032FF
:03004300021CA4F8
:101CA400C0E0C0F0C083C082C0D075D000C000C006
:0D1CB40001C002C003C004C005C006C00787
:101CC100C2AFA295B39295E59A30E05A539AFEAF0E
:101CD1009BE5357021E533701874002531F5827468
:101CE100003530F583EFF00531E5317002053080C4
:101CF1003812222F8033E535FD7C0064017009EF35
:101D010064C1700205358021ED64024C7009EF64F5
:101D1100C2700205358012E5356403700CEF64C3AF
:0B1D21007002F5358003539AFDD2AF2D
:101D2C00D007D006D005D004D003D002D001D0000B
:0B1D3C00D0D0D082D083D0F0D0E032B5
:0F221100C2AFD2B5D2B40000C2B50000C2B42231
:0F222000C2B50000D2B40000D2B50000D2AF2288
:1021BC007F14D2B50000D2B4000030B507DFFB129B
:0821CC00222080F6C2B40000DD
:0121D40022E8
:1020FB00E4FEEEC39408748094805017EF30E7042D
:10210B00D2B58002C2B5EF25E0FFD2B40000C2B455
:06211B000E80DF0221BC72
:092167007F0F1221707D017F0140
:10217000AC071222117FA21220FBAF041220FBAF8A
:07218000051220FB022220E2
:1021D5007D20E4FF1221707D837F0E1221707D0A20
:0921E500122167E41DFF022170C4
:10002600AB077D20E4FF1221707D827F0E122170C6
:0B003600AD03122167E41DFF022170E2
:07223D007D20E4FF02217087
:06224400E4FDFF02217021
:10220000759850759CE8758E11E4F587D2AFD2AC05
:0122100022AB
:1021EE00759A50759CE8758E1175A210D2AF75AFA9
:0221FE000122BC
:0E222F00C2ACC2998F993099FDC299D2AC22EF
:10218700E4F5AFD290539AFD8F9BAE9A530602EEB9
:0A21970060F8539AFDC29075AF0185
:0121A100221B
:0A2037008B088A09890A8C0B8D0CB6
:10204100E4FDFCA295B39295AB08AA09A90A8D8279
:102051008C83120943FF12222F0DBD00010CC3ED29
:0D206100950CE50B6480F8EC64809840D687
:01206E00224F
:08001600A0A2A4A6A1A3A5A7C6
:0318B400015000E0
:0B214500C2947F147E00122150D29340
:10215000E4FDFCC3ED9FEC9E500CA295B392950D4F
:06216000BD00010C80ED42
:012166002256
:1021A200C2AFC2937F147E00122150D29412214BEF
:0A21B200C294122150C29302215082
:10000300122145D294122150C293122150D2AF2211
:1020D300AF04A9071221A27F147E00122150E550FC
:1020E30090001693FF1221211220F3AF0112212138
:0820F300D294122147C293228E
:06224A00122145C293229F
:102121007B08AA07A295B39295EA54806480700453
:10213100D2948002C294122147C293EA25E0FADBCD
:04214100E302215044
:1020A200E4FBFAEAC39408748094805021A295B3A9
:1020B2009295D294122147EB25E0FB3094010B7FDD
:1020C200147E00122150C2931221500A80D5AF0310
:0120D20022EB
:061FAD008B258A2689271E
:101FB3008D2B1220D3AF2B1221211220F3E4F52C09
:101FC300E52CC3952A501FA295B39295AB25AA265B
:101FD300A927852C82758300120943FF1221211240
:101FE30020F3052C80DA1200037F207E4E0221505D
:02206F008D1EC4
:102071008F1FAF061220D5AF1F1221211220F3E4CA
:10208100F9E9C3951E5010A295B39295E4FF122170
:10209100211220F30980EA1200037F207E4E0221E3
:0120A10050EE
:101B1D00F50DE50C34FFF50CAB09AA0AA90BAC0EBB
:081B2D00AD0F85161D85171E82
:0A1B35008B188A19891A8C1B8D1C6D
:101B3F00752300E51C547FF524C374809524F52488
:101B4F00E49523F523D3E51E9524E51D9523500336
:101B5F00021BEB85242A121FADC3E51E9524F51E2B
:101B6F00E51D9523F51DE524251CF51CE523351BE7
:101B7F00F51BE524251AF51AE5233519F519AE1DC0
:101B8F00E51E7807CEC313CE13D8F9F5228E21E5C3
:101B9F001E547FF520E4F51FC3E51F9522E4952120
:101BAF00502FA295B39295AB18AA19A91A752A802E
:101BBF00AD1CAC1B121FAD7480251CF51CE4351B2E
:101BCF00F51B7480251AF51AE43519F519051F80D0
:101BDF00C7AB18AA19A91A85202A8009AB18AA1908
:0C1BEF00A91A851E2AAD1CAC1B121FADEC
:011BFB0022C7
:101BFC00F509E50834FFF508AE0AAF0BAD13AC12CE
:081C0C008E148F158C168D1744
:101C1400E515547FF519C374809519F519FFD3E5BB
:101C2400179FE5169400406EAD19AF1512206FAFE3
:101C3400197E00C3E5179FF517E5169EF516EF25E7
:101C440015F515EE3514F514AE16E5177807CEC361
:101C540013CE13D8F9F51B8E1AE517547FF518E443
:101C6400F51CF51DC3E51D951BE51C951A5023A213
:101C740095B392957D80AF15AE1412206F748025B4
:101C840015F515E43514F514051DE51D70D6051C70
:0F1C940080D2AD188002AD17AF15AE1412206FBD
:011CA300221E
:101D4700F50CE50B34FFF50BAB08AA09A90AAC0D96
:081D5700AD0E85151C85161D5B
:101D5F00E4F51FF5208B218A2289238D1E1220D3B3
:101D6F00AF1E1221211220F31221A2E55090001A6A
:101D7F0093FF1221211220F3E4F51FF520E51D2416
:101D8F00FFFFE51C34FFFEC3E5209FE51F9E502596
:101D9F00A295B392951220A2AB21AA22A923852046
:101DAF0082851F83EF12097012224A0520E52070E9
:101DBF00CC051F80C8E51D24FFF520E51C34FFF579
:101DCF001F1220A2AB21AA22A923852082851F835F
:0A1DDF00EF1209701220F302000356
:060DFD007E007D007C0079
:0E0E03008B098A0A890B8F0F8E0E8D0D8C0CB9
:100E1100E511250FF515E510350EF514E4350DF541
:100E210013E4350CF512E4F516F5177FFF7EFFFD8F
:100E3100FCAB15AA14A913A812D31209EF5006E4AA
:100E4100F55002106BE47FFF7EFFFDFCAB15AA1489
:100E5100A913A812D31209EF405AE47FFF7EFFFDC8
:100E6100FCAB0FAA0EA90DA80CD31209EF5045E453
:100E7100F550AC0EAD0FC39DF517E49CF516AB090B
:100E8100AA0AA90BF51D85171E121B35E517250B9F
:100E9100F50BE516350AF50AC3E5119517F511E5C8
:100EA100109516F510755001E4F50FF50EF50DF5D9
:100EB1000C02106B7FFF7EFF7D017C00AB15AA1435
:100EC100A913A812D31209EF5030E47FFF7EFFFD72
:100ED100FCAB0FAA0EA90DA80C1209EF401C75500E
:100EE10001E4250FF50FE4350EF50EE50D34FFF5A0
:100EF1000DE50C34FFF50C02106B7FFF7EFF7D01C9
:100F01007C00AB15AA14A913A812D31209EF405DF6
:100F11007FFF7EFF7D017C00AB0FAA0EA90DA80CFF
:100F2100D31209EF5047755001C3E4950FF517E44B
:100F3100950EF516E4250FF50FE4350EF50EE50DCA
:100F410034FF121B1DE517250BF50BE516350AF5C8
:100F51000AC3E5119517F511E5109516F5107550B1
:100F610002E4F50FF50EF50DF50C02106B7FFF7E17
:100F7100FF7D027C00AB15AA14A913A812D3120994
:100F8100EF50317FFF7EFF7D017C00AB0FAA0EA9E0
:100F91000DA80C1209EF401C755002E4250FF50F46
:100FA100E4350EF50EE50D34FEF50DE50C34FFF5D7
:100FB1000C02106B7FFF7EFF7D027C00AB15AA1433
:100FC100A913A812D31209EF405C7FFF7EFF7D02B7
:100FD1007C00AB0FAA0EA90DA80CD31209EF504645
:100FE100755002C3E4950FF517E4950EF516E42547
:100FF1000FF50FE4350EF50EE50D34FE121B1DE560
:1010010017250BF50BE516350AF50AC3E5119517FA
:10101100F511E5109516F510755003E4F50FF50E71
:10102100F50DF50C80447FFF7EFF7D037C00AB1541
:10103100AA14A913A812D31209EF50417FFF7EFF12
:101041007D027C00AB0FAA0EA90DA80C1209EF407E
:101051002C755003E4250FF50FE4350EF50EE50D63
:1010610034FDF50DE50C34FFF50CAB09AA0AA90B0B
:0D107100AC0EAD0F85101D85111E121B3534
:01107E00224F
:0812FB008F0B8E0A8D098C088F
:10130300E50D250BF511E50C350AF510E43509F566
:101313000FE43508F50EE4F512F5137FFF7EFFFDAC
:10132300FCAB11AA10A90FA80ED31209EF5006E4C3
:10133300F550021531E47FFF7EFFFDFCAB11AA10CF
:10134300A90FA80ED31209EF4046E47FFF7EFFFDED
:10135300FCAB0BAA0AA909A808D31209EF5031E480
:10136300F550AE0AAF0BC39FF513E49EF512AD1310
:10137300FC121C0CC3E50D9513F50DE50C9512F548
:101383000C755001E4F50BF50AF509F50802153162
:101393007FFF7EFF7D017C00AB11AA10A90FA80E71
:1013A300D31209EF5030E47FFF7EFFFDFCAB0BAAA5
:1013B3000AA909A8081209EF401C755001E4250B7E
:1013C300F50BE4350AF50AE50934FFF509E50834B8
:1013D300FFF5080215317FFF7EFF7D017C00AB1115
:1013E300AA10A90FA80ED31209EF40517FFF7EFF69
:1013F3007D017C00AB0BAA0AA909A808D31209EF47
:10140300503B755001C3E4950BF513E4950AF512AF
:10141300E4250BF50BE4350AF50AE50934FF121B45
:10142300FCC3E50D9513F50DE50C9512F50C755000
:1014330002E4F50BF50AF509F5080215317FFF7E85
:10144300FF7D027C00AB11AA10A90FA80ED31209CD
:10145300EF50317FFF7EFF7D017C00AB0BAA0AA911
:1014630009A8081209EF401C755002E4250BF50B7F
:10147300E4350AF50AE50934FEF509E50834FFF514
:10148300080215317FFF7EFF7D027C00AB11AA109D
:10149300A90FA80ED31209EF40507FFF7EFF7D02F4
:1014A3007C00AB0BAA0AA909A808D31209EF503A8A
:1014B300755002C3E4950BF513E4950AF512E42580
:1014C3000BF50BE4350AF50AE50934FE121BFCC3E0
:1014D300E50D9513F50DE50C9512F50C755003E428
:1014E300F50BF50AF509F50880447FFF7EFF7D03C0
:1014F3007C00AB11AA10A90FA80ED31209EF503923
:101503007FFF7EFF7D027C00AB0BAA0AA909A80816
:101513001209EF4024755003E4250BF50BE4350A5B
:10152300F50AE50934FDF509E50834FFF508AE0AC7
:09153300AF0BAD0DAC0C121C0C49
:01153C00228C
:0E107F008B088A09890A8F0E8E0D8D0C8C0B42
:10108D00E510250EF514E50F350DF513E4350CF5CA
:10109D0012E4350BF511E4F515F5167FFF7EFFFD16
:1010AD00FCAB14AA13A912A811D31209EF5006E430
:1010BD00F5500212E7E47FFF7EFFFDFCAB14AA138F
:1010CD00A912A811D31209EF405AE47FFF7EFFFD4C
:1010DD00FCAB0EAA0DA90CA80BD31209EF5045E4D9
:1010ED00F550AC0DAD0EC39DF516E49CF515AB0892
:1010FD00AA09A90AF51C85161D121D5FE516250AFC
:10110D00F50AE5153509F509C3E5109516F510E550
:10111D000F9515F50F755001E4F50EF50DF50CF560
:10112D000B0212E77FFF7EFF7D017C00AB14AA133B
:10113D00A912A811D31209EF5030E47FFF7EFFFDF5
:10114D00FCAB0EAA0DA90CA80B1209EF401C755093
:10115D0001E4250EF50EE4350DF50DE50C34FFF526
:10116D000CE50B34FFF50B0212E77FFF7EFF7D01CF
:10117D007C00AB14AA13A912A811D31209EF405D7C
:10118D007FFF7EFF7D017C00AB0EAA0DA90CA80B85
:10119D00D31209EF5047755001C3E4950EF516E4CF
:1011AD00950DF515E4250EF50EE4350DF50DE50C53
:1011BD0034FF121D47E516250AF50AE5153509F523
:1011CD0009C3E5109516F510E50F9515F50F75503A
:1011DD0002E4F50EF50DF50CF50B0212E77FFF7E1F
:1011ED00FF7D027C00AB14AA13A912A811D312091A
:1011FD00EF50317FFF7EFF7D017C00AB0EAA0DA964
:10120D000CA80B1209EF401C755002E4250EF50ECB
:10121D00E4350DF50DE50C34FEF50CE50B34FFF55D
:10122D000B0212E77FFF7EFF7D027C00AB14AA1339
:10123D00A912A811D31209EF405C7FFF7EFF7D023A
:10124D007C00AB0EAA0DA90CA80BD31209EF5046CA
:10125D00755002C3E4950EF516E4950DF515E425CC
:10126D000EF50EE4350DF50DE50C34FE121D47E5BA
:10127D0016250AF50AE5153509F509C3E510951684
:10128D00F510E50F9515F50F755003E4F50EF50DF9
:10129D00F50CF50B80447FFF7EFF7D037C00AB14C6
:1012AD00AA13A912A811D31209EF50417FFF7EFF97
:1012BD007D027C00AB0EAA0DA90CA80B1209EF4004
:1012CD002C755003E4250EF50EE4350DF50DE50CEA
:1012DD0034FDF50CE50B34FFF50BAB08AA09A90A93
:0D12ED00AC0DAD0E850F1C85101D121D5F90
:0112FA0022D1
:101DE900E4753B6A753A01F539F538853B51AF3BE6
:101DF900AE3AAD39AC387808120A058F52AF3BAE0E
:101E09003AAD39AC387810120A058F53AF3BAE3A68
:101E1900AD39AC387818120A058F547B007A0079ED
:101E2900517510007511047F00120DFDE475486AA3
:101E3900754701F546F545854851AF48AE47AD466A
:101E4900AC457808120A058F52AF48AE47AD46AC8B
:101E5900457810120A058F53AF48AE47AD46AC45D9
:101E69007818120A058F547B007A00795175100091
:0E1E79007511047F047E007D007C00020E03C4
:101E8700E4F53FF53EF53DF53C853F51AF3FAE3EAE
:101E9700AD3DAC3C7808120A058F52AF3FAE3EAD60
:101EA7003DAC3C7810120A058F53AF3FAE3EAD3DB7
:101EB700AC3C7818120A058F547B007A007951756B
:101EC70010007511047F08120DFDE4F54CF54BF574
:101ED7004AF549854C51AF4CAE4BAD4AAC497808F1
:101EE700120A058F52AF4CAE4BAD4AAC497810126F
:101EF7000A058F53AF4CAE4BAD4AAC497818120A5E
:101F0700058F547B007A0079517510007511047F95
:0A1F17000C7E007D007C00020E032A
:10153D007B007A007951750F007510047F007E00D5
:10154D007D007C0012107FAF53E4FCFDFEFBFA79A9
:10155D0001F8120992C004C005C006C007AF54E4DB
:10156D00FCFDFEFBFAF97801120992D003D002D0EE
:10157D0001D000EF2BFFEE3AFEED39FDEC38FCA863
:10158D0004A905AA06AB07E552FEE4FCFD2BFBEA18
:10159D003EFAED39F9EC38F8E4FEEB2551F53BEE6A
:1015AD003AF53AED39F539EC38F5387B007A0079B2
:1015BD0051750F007510047F0412107FAF53E4FCBA
:1015CD00FDFEFBFA7901F8120992C004C005C006B0
:1015DD00C007AF54E4FCFDFEFBFAF9780112099245
:1015ED00D003D002D001D000EF2BFFEE3AFEED3943
:1015FD00FDEC38FCA804A905AA06AB07E552FEE4EC
:10160D00FCFD2BFBEA3EFAED39F9EC38F8E4FEEB84
:10161D002551F548EE3AF547ED39F546EC38F545E7
:10162D007B007A007951750F007510047F08121038
:10163D007FAF53E4FCFDFEFBFA7901F8120992C06D
:10164D0004C005C006C007AF54E4FCFDFEFBFAF96B
:10165D007801120992D003D002D001D000EF2BFFF8
:10166D00EE3AFEED39FDEC38FCA804A905AA06AB4F
:10167D0007E552FEE4FCFD2BFBEA3EFAED39F9ECF1
:10168D0038F8E4FEEB2551F53FEE3AF53EED39F530
:10169D003DEC38F53C7B007A007951750F007510E3
:1016AD00047F0C12107FAF53E4FCFDFEFBFA7901B1
:1016BD00F8120992C004C005C006C007AF54E4FC7F
:1016CD00FDFEFBFAF97801120992D003D002D00188
:1016DD00D000EF2BFFEE3AFEED39FDEC38FCA804FF
:1016ED00A905AA06AB07E552FEE4FCFD2BFBEA3E7D
:1016FD00FAED39F9EC38F8E4FEEB2551F54CEE3AFC
:0B170D00F54BED39F54AEC38F54922A8
:101A01008F08EF64017040853B51AF3BAE3AAD3971
:101A1100AC387808120A058F52AF3BAE3AAD39ACFB
:101A2100387810120A058F53AF3BAE3AAD39AC3856
:101A31007818120A058F547B007A007951751000CD
:101A41007511047F008044E50864027041854851A6
:101A5100AF48AE47AD46AC457808120A058F52AF84
:101A610048AE47AD46AC457810120A058F53AF48D2
:101A7100AE47AD46AC457818120A058F547B007A03
:101A81000079517510007511047F04120DFDE508F0
:101A910064037040853F51AF3FAE3EAD3DAC3C78F5
:101AA10008120A058F52AF3FAE3EAD3DAC3C7810F7
:101AB100120A058F53AF3FAE3EAD3DAC3C781812D4
:101AC1000A058F547B007A00795175100075110455
:101AD1007F088044E50864047041854C51AF4CAEE9
:101AE1004BAD4AAC497808120A058F52AF4CAE4B48
:101AF100AD4AAC497810120A058F53AF4CAE4BADCD
:101B01004AAC497818120A058F547B007A00795142
:0C1B11007510007511047F0C120DFD22F0
:1005E60002092EE86480F8E933E83360110460F00C
:1005F600ED33EC337009E8FCE9FDEAFEEBFF22047B
:1006060060DED3EB9FEA9EE99DE8C2E78CF0C2F775
:1006160095F0400CE8CCF8E9CDF9EACEFAEBCFFB41
:100626001208F985D0F05804700320D5B3E8047099
:10063600075002B2D502093892D5EC0460F7E4CC33
:10064600C0E0C398F8603B94186008400DD0E0FB0A
:10065600020910E4FBFAC9FC8028E830E406E4C984
:10066600FBE4CAFCE830E305E4C9CACBFCE854075E
:100676006010F8C3E913F9EA13FAEB13FBEC13FC69
:10068600D8F130F52FC3E49CFCEF9BFFEE9AFEED0C
:1006960099FDD0E0FBEF4E4D4C701222DB030209B0
:1006A60035EC2CFCEF33FFEE33FEED33FDED30E79A
:1006B600EB020910EF2BFFEE3AFEED39FDD0E0FB21
:1006C60050130BBB0003020938ED13FDEE13FEEFCA
:0806D60013FFEC13FC020910F4
:1006DE00EC4D6011E8497017ED33EC3304600DE416
:1006EE00FCFFFEFD22E933E8330470F802092E12F6
:1006FE0008F958046009E4CC2481500628500902F8
:10070E000938284003020935C0E0EB4A7044B9802D
:10071E0006D0E0FB020924EF4E701CBD8008EBFFF3
:10072E00EAFEE9FD80EBE98DF0A4FEE5F00207C7D5
:10073E00E9CDF9EAFEEBFFEF89F0A4FCE5F0CE89F6
:10074E00F0A42EFFE435F0CD89F0A42DFEE435F0B3
:10075E008067EF4E7005BD80D780C3EF8BF0A4ACE1
:10076E00F0EE8BF0A42CFCE435F0F8EF8AF0A42C1C
:10077E00E5F038FCE433CB8DF0A42CFCE5F03BF82F
:10078E00EE8AF0A42CFCE5F038F8E433CF89F0A41F
:10079E002CFCE5F038CF3400CE89F0A42FFFE5F025
:1007AE003EFEE433C98DF0A42EFEE5F039CD8AF07D
:1007BE00A42FFFE5F03EFEE43DFD33D0E0FB5007F5
:1007CE000BBB000F020938EC2CFCEF33FFEE33FEAF
:0607DE00ED33FD020910DD
:1007E400020938EC5D046005E85904700302092E1F
:1007F4001208F9580460F6EC4860F2EC7004FDFE4F
:10080400FF22C860DB2481C85009C39860025006E7
:100814000209359850CAF582E9294B4A7005AB8222
:1008240002092475F0007C1A7880C3EF9BEE9AEDE0
:1008340099400DC3EF9BFFEE9AFEED99FDE842F05F
:10084400DC23ACF0D0E0FFD0E0FED0E0FDAB8220B2
:10085400E7101BEB60BAEC2CFCEF33FFEE33FEED3C
:1008640033FD020910E803F830E705C0F075F00025
:10087400EF2FFFEE33FEED33FD40B830E7C280AA20
:1008840075F020800E75F010800575F0087D007EEF
:10089400007F003392D530D5031209E1EC334010C8
:1008A400EF33FFEE33FEED33FDEC33FCD5F0ED22F8
:0E08B400E5F0247EA2D513CC92E7CDCEFF2234
:1008C200EDD2E7CD33EC3392D524814006E4FFFE2E
:1008D200FDFC22FCE4CFCECDCC24E0501174FF808D
:1008E200EDC3CC13CCCD13CDCE13CECF13CF04702A
:0708F200F030D5DE0209E140
:1008F900E9D2E7C933E833F892D5EDD2E7CD33EC45
:0709090033FC5002B2D522BD
:10091000EC30E7100FBF000C0EBE00080DBD000448
:100920000BEB6014A2D5EB13FCED92E7FD2274FFF4
:10093000FCFDFEFF22E480F8A2D574FF13FC7D804D
:03094000E480EF61
:101F2D00020046E493A3F8E493A34003F68001F284
:101F3D0008DFF48029E493A3F85407240CC8C333B5
:101F4D00C4540F4420C8834004F456800146F6DF84
:101F5D00E4800B0102040810204080901718E47EE5
:101F6D00019360BCA3FF543F30E509541FFEE49379
:101F7D00A360010ECF54C025E060A840B8E493A340
:101F8D00FAE493A3F8E493A3C8C582C8CAC583CA6B
:101F9D00F0A3C8C582C8CAC583CADFE9DEE780BE23
:0118B7000030
:10094300BB010CE58229F582E5833AF583E0225069
:1009530006E92582F8E622BBFE06E92582F8E222B3
:0D096300E58229F582E5833AF583E49322CD
:10097000F8BB010DE58229F582E5833AF583E8F0BD
:10098000225006E92582C8F622BBFE05E92582C869
:02099000F22251
:10099200E88FF0A4CC8BF0A42CFCE98EF0A42CFC04
:1009A2008AF0EDA42CFCEA8EF0A4CDA8F08BF0A482
:1009B2002DCC3825F0FDE98FF0A42CCD35F0FCEBE1
:1009C2008EF0A4FEA9F0EB8FF0A4CFC5F02ECD39A6
:0F09D200FEE43CFCEAA42DCE35F0FDE43CFC2213
:101FF300C2D5E830E70FB2D5E4C39BFBE49AFAE419
:1020030099F9E498F8EC30E717B2D5122029120AAF
:1020130055E4C39BFBE49AFAE499F9E498F8800346
:10202300120A5530D50DE4C39FFFE49EFEE49DFDE7
:04203300E49CFC220B
:0E09E100C3E49FFFE49EFEE49DFDE49CFC2227
:1009EF00EB9FF5F0EA9E42F0E99D42F0EC6480C87F
:0609FF0064809845F0221F
:100A0500E86010ECA2E713FCED13FDEE13FEEF1307
:040A1500FFD8F022F4
:100A190075F008758200EF2FFFEE33FECD33CDCC94
:100A290033CCC58233C5829BED9AEC99E582984017
:100A39000CF582EE9BFEED9AFDEC99FC0FD5F0D6F4
:100A4900E4CEFBE4CDFAE4CCF9A88222B800C1B91E
:100A59000059BA002DEC8BF084CFCECDFCE5F0CB5C
:100A6900F97818EF2FFFEE33FEED33FDEC33FCEB95
:100A790033FB10D703994004EB99FB0FD8E5E4F950
:100A8900FA227818EF2FFFEE33FEED33FDEC33FC3D
:100A9900C933C910D7059BE99A4007EC9BFCE99A31
:100AA900F90FD8E0E4C9FAE4CCFB2275F010EF2F76
:100AB900FFEE33FEED33FDCC33CCC833C810D70776
:100AC9009BEC9AE899400AED9BFDEC9AFCE899F8B1
:0E0AD9000FD5F0DAE4CDFBE4CCFAE4C8F92244
:00000001FF
