:03000000021FE3F9
:0C1FE300787FE4F6D8FD75815602202AB4
:1017CB00013700013300013500013200012F000405
:1017DB004100000000012E00015000013600014DB8
:1017EB0000014000013400015100616A000000005B
:1017FB0000000000000000000000000000000000DE
:10180B0000000000000000000000000000000000CD
:10181B0000000000000000000000000000000000BD
:10182B0000000000000000000000000000000000AD
:10183B00000000000000000000000000000000009D
:10184B00000000000000000000000000000000008D
:10185B00000000000000000000000000000000007D
:10186B00000000000000000000000000000000006D
:10187B00000000000000000000000000000000005D
:10188B00000000000000000000000000000000004D
:10189B00000000000000000000000000000000003D
:1018AB00000000000000000000000000000000002D
:1018BB00000000000000000000000000000000001D
:1018CB00000000000000000000000000000000000D
:1018DB0000000000000000000000000000000000FD
:1018EB0000000000000000000000000000000000ED
:1018FB0000000000000000000000000000000000DD
:10190B0000000000000000000000000000000000CC
:10191B0000000000000000000000000000000000BC
:10192B0000000000000000000000000000000000AC
:10193B00000000000000000000000000000000009C
:10194B00000000000000000000000000000000008C
:10195B00000000000000000002300000024E0000FA
:10004600C2AFA295B39295C290D2B6D2B7D2C0E44F
:10005600F5321222C21222B07F881222F11215F056
:10006600E47B6A7A01F9F8AF3BAE3AAD39AC3812A7
:1000760020B5AC00AD01AE02AF03EC4D4E4F6003B0
:100086000201107B6A7A01F9F8AF3FAE3EAD3DAC96
:100096003C1220B5AC00AD01AE02AF03EC4D4E4FA5
:1000A6007068C3E53B953FFFE53A953EFEE5399519
:1000B6003DFDE538953CFCE47B6A7A01F9F8C3120C
:1000C6000A406046AF3BAE3AAD39AC38AB3FAA3ECC
:1000D600A93DA83CC3120A40401AE53B2496F53FC9
:1000E600E53A34FEF53EE53934FFF53DE53834FFB3
:1000F600F53C8016E53F246AF53BE53E3401F53ACA
:10010600E4353DF539E4353CF538E47B6A7A01F9A6
:10011600F8AF48AE47AD46AC451220B5AC00AD01D0
:10012600AE02AF03EC4D4E4F60030201BA7B6A7A12
:1001360001F9F8AF4CAE4BAD4AAC491220B5AC0054
:10014600AD01AE02AF03EC4D4E4F7068C3E5489566
:100156004CFFE547954BFEE546954AFDE545954935
:10016600FCE47B6A7A01F9F8C3120A406046AF489C
:10017600AE47AD46AC45AB4CAA4BA94AA849C312FB
:100186000A40401AE5482496F54CE54734FEF54BFF
:10019600E54634FFF54AE54534FFF5498016E54C5A
:1001A600246AF548E54B3401F547E4354AF546E45B
:1001B6003549F545E47B6A7A01F9F8AF3BAE3AADCD
:1001C60039AC381220B5AC00AD01AE02AF03EC4D30
:1001D6004E4F6036E47B6A7A01F9F8AF3FAE3EAD2A
:1001E6003DAC3C1220B5AC00AD01AE02AF03EC4D08
:1001F6004E4F7016E53F246AF53BE53E3401F53A6D
:10020600E4353DF539E4353CF538E47B6A7A01F9A5
:10021600F8AF3BAE3AAD39AC381220B5AC00AD0103
:10022600AE02AF03EC4D4E4F70377B6A7A01F9F898
:10023600AF3FAE3EAD3DAC3C1220B5AC00AD01AE1D
:1002460002AF03EC4D4E4F6018E53B2496F53FE5B3
:100256003A34FEF53EE53934FFF53DE53834FFF531
:100266003CE47B6A7A01F9F8AF48AE47AD46AC4547
:100276001220B5AC00AD01AE02AF03EC4D4E4F609F
:1002860036E47B6A7A01F9F8AF4CAE4BAD4AAC491D
:100296001220B5AC00AD01AE02AF03EC4D4E4F706F
:1002A60016E54C246AF548E54B3401F547E4354A32
:1002B600F546E43549F545E47B6A7A01F9F8AF4835
:1002C600AE47AD46AC451220B5AC00AD01AE02AFAF
:1002D60003EC4D4E4F70377B6A7A01F9F8AF4CAE9E
:1002E6004BAD4AAC491220B5AC00AD01AE02AF032E
:1002F600EC4D4E4F6018E5482496F54CE54734FE24
:10030600F54BE54634FFF54AE54534FFF549E47B10
:100316006A7A01F9F8AF3BAE3AAD39AC381220B57E
:10032600AC00AD01AE02AF03EC4D4E4F6020E47B56
:100336006A7A01F9F8AF3FAE3EAD3DAC3C1220B54E
:10034600AC00AD01AE02AF03EC4D4E4F7040E47B06
:100356006A7A01F9F8AF48AE47AD46AC451220B50A
:10036600AC00AD01AE02AF03EC4D4E4F6026E47B10
:100376006A7A01F9F8AF4CAE4BAD4AAC491220B5DA
:10038600AC00AD01AE02AF03EC4D4E4F6006121E3F
:10039600AB121F497F1E120026C2B6D2AAD2AFA246
:1003A60095B3929530B20FE551700B7FFA1222F198
:1003B6007551011222FF20B227E55164017021E533
:1003C60033701D7F881222F1E4F551D3E532940192
:1003D60074809480400415321532E4F537122306F2
:1003E600E5506401700EF55020B2047F8880027FCC
:1003F600FA1222F1E5406401701AF540750C017598
:100406000D6AFFFEFDFC1213AE121EAB121F497FD2
:10041600851222F1AF3BAE3AAD39AC38AB48AA47AC
:10042600A946A845C3120A40701EF54D7F6A7E0193
:10043600FDFCAB3BAA3AA939A838C3120A40600BA7
:10044600121EAB121F498003754D01AF327E00EFBD
:100456007010E52E6401700AE54D7006E5367002EF
:10046600F52EEF4E60030204FAE52E6401600302E6
:1004760004FAE54D6401707CE53670780532F52E98
:10048600F54D7B017A007900AF48AE47AD46AC45E5
:10049600750F0175106A1211327FF91222F17B0174
:1004A6007A0079007D6A7C011220F9AF48AE47AD2B
:1004B60046AC45750C01750D6A1213AEE548246A03
:1004C600F548E5473401F547E43546F546E4354554
:1004D600F5457F02121ABDE54C246AF54CE54B340E
:1004E60001F54BE4354AF54AE43549F5497F0412EE
:1004F6001ABD1532E532600302057EE52E640170F1
:1005060077E54D64017071E5366401706B7FC87ED6
:10051600FF7D03FCAB3BAA3AA939A838C3120A40AF
:1005260060560532E4F54DF5367B017A007900AF69
:100536003BAE3AAD39AC3875100175116A120EB67C
:10054600E53B246AF53BE53A3401F53AE43539F5FD
:1005560039E43538F5387F01121ABDE53F246AF5CE
:100566003FE53E3401F53EE4353DF53DE4353CF5E9
:100576003C7F03121ABD1532E532702AE52E64015E
:100586007024E54D7020E5366401701A0532F52EAB
:10059600F5367FF91222F17B017A0079007D6A7CBB
:1005A600011220F91532E53260030203A5E52E603B
:1005B600030203A5E536640160030203A5AE4EAF50
:1005C6004FFCFD7B507AC3F9F8D3120A40400B0565
:1005D6004FE54F7002054E0203A50532E4F5367B62
:1005E600017A007900AF3BAE3AAD39AC38751001EF
:1005F60075116A120EB6E53B246AF53BE53A3401FD
:10060600F53AE43539F539E43538F5387F01121A0B
:10061600BDE53F246AF53FE53E3401F53EE4353D50
:10062600F53DE4353CF53C7F03121ABD1532020355
:01063600A51E
:03001300020B38A5
:100B3800C0E0C0F0C083C082C0D075D000C000C083
:100B480001C002C003C004C005C006C007C2AFC2CE
:100B5800AAA295B39295E537147003020D0F14708D
:100B680003020DA8147003020DB8147003020DF6E9
:100B7800147003020E3324056003020E91C3E5329C
:100B8800940274809480500705320532020DA3E563
:100B98003264026003020DA3D2B7D2B685A02F75C6
:100BA80030007531007E00C3748094805003020CBD
:100BB80061D3E52F94FA748094804003020C61ACF1
:100BC8002FE41208DFE4FBFA7948784312063EE482
:100BD800FBFA792078411208388F448E438D428C75
:100BE80041E4FBFA7980784112083812091374003D
:100BF8002531F58274003530F583EFF07400253126
:100C0800F58274003530F583E0F52F0531E5317054
:100C1800020530E52F75F010A4FDACF0EC1208DAEF
:100C2800A804A905AA06AB07AF44AE43AD42AC4140
:100C380012063AE4FBFA7980784112072F12091359
:100C480074002531F58274003530F583EFF00531F5
:100C5800E53170020530020D04E52F64FB703A900F
:100C68000000E0FF74002531F58274003530F5830B
:100C7800EFF00531E53170020530900001E0FF74B6
:100C8800002531F58274003530F583EFF00531E544
:100C980031700205307FFB8028E52F64FC700F90CF
:100CA8000000F0A3F0F5307531027FFC8013E52FCA
:100CB80064FD7012900000F0A3F0F5307531027FEA
:100CC800FD1222F18036900000E0FF74002531F516
:100CD8008274003530F583EFF00531E53170020597
:100CE80030900001E0FF74002531F5827400353042
:100CF800F583EFF00531E531700205307535017582
:100D080034000537020DF1E53164024530707BD2BD
:100D1800B7C2B6E535700705377F14120026E535EA
:100D28006401701EC3E534941474809480500405E3
:100D38003480057FFE1222F17FC11222497F011201
:100D48000026E5356402701EC3E53494147480945B
:100D5800805004053480057FFE1222F17FC21222E2
:100D6800497F01120026E53564036003020E91C332
:100D7800E5349414748094805004053480057FFE13
:100D88001222F17FC31222498011C2B7D2B6753040
:100D980000753100753700153215327F01020E8E4D
:100DA800D2B7C2B67FCA12224905377F04020E8E17
:100DB800E531647A45307010D2B7C2B67FCB1222C3
:100DC8004905377F04020E8EC2B7D2B6753000755A
:100DD8003102753702C3E53494147480948050044A
:100DE800053480057FFE1222F17F02020E8EE53166
:100DF80064F245307010D2B7C2B67FCC12224905D2
:100E0800377F04020E8EC2B7D2B675300075317ABC
:100E1800753703C3E5349414748094805004053402
:100E280080057FFE1222F17F02805BE531646A70E3
:100E380004E5306401702CD2B7D2B615321532F5FC
:100E480037753601F52E7F881222F1754E00754FE1
:100E5800007580947F887E131222127580FF1222FB
:100E6800978026C2B7D2B67530007531F27537044F
:100E7800C3E5349414748094805004053480057F4D
:100E8800FE1222F17F02120026D2AAD2AFD007D0DA
:100E980006D005D004D003D002D001D000D0D0D0E5
:080EA80082D083D0F0D0E032CB
:0300230002196F50
:10196F00C0E0C0F0C083C082C0D075D000C000C03E
:0D197F0001C002C003C004C005C006C007BF
:10198C00752DFFC2AFA295B39295209803021A9EB3
:10199C00C29885992DAF2D7E00C3EF94017480946D
:1019AC0080400CD3EF943C748094805002804AAFFA
:1019BC002D7E00C3EF943D748094804034D3EF941B
:1019CC007874809480502AE5336401702412224983
:1019DC007FF91222F1C2AC7F607EEA1222127F6084
:1019EC007EEA1222127F607EEA122212D2AC021A16
:1019FC0099E52D64807014AF2D1222497F057E006D
:101A0C00122212AF2D122249021A99E52D6482700E
:101A1C00081222FF7533018074E52D6483701D203C
:101A2C00B203122306D3E5329401748094804004EF
:101A3C00153215327533007537008051AF2D7E008D
:101A4C00EF648B7004C2C08044EF648A4E7004D281
:101A5C00C0803AEF64844E7005752E01802FEF64C0
:101A6C00854E70057540018024EF64884E700575B5
:101A7C0050018019C3EF9496EE648094804015D386
:101A8C00EF94FAEE64809480500A852D80752DFFBA
:061A9C008002C299D2AFE6
:101AA200D007D006D005D004D003D002D001D00098
:0B1AB200D0D0D082D083D0F0D0E03242
:03004300021CB8E4
:101CB800C0E0C0F0C083C082C0D075D000C000C0F2
:0D1CC80001C002C003C004C005C006C00773
:101CD500C2AFA295B39295E59A30E060539AFEAFF4
:101CE5009BE5357021E533701874002531F5827454
:101CF500003530F583EFF00531E5317002053080B0
:101D05003E1222F18039E535FD7C006401700BEF50
:101D150064C17004F53405358025ED64024C700B03
:101D2500EF64C27004F53405358014E5356403703D
:101D35000EEF64C37004F534F5358003539AFDD274
:011D4500AFEE
:101D4600D007D006D005D004D003D002D001D000F1
:0B1D5600D0D0D082D083D0F0D0E0329B
:0F22D300C2AFD2B5D2B40000C2B50000C2B4226F
:0F22E200C2B50000D2B40000D2B50000D2AF22C6
:10227E007F14D2B50000D2B4000030B507DFFB12D8
:08228E0022E280F6C2B4000058
:012296002225
:1021BD00E4FEEEC39408748094805017EF30E7046A
:1021CD00D2B58002C2B5EF25E0FFD2B40000C2B493
:0621DD000E80DF02227EED
:092229007F0F1222327D017F01BA
:10223200AC071222D37FA21221BDAF041221BDAF7F
:07224200051221BD0222E29A
:102297007D20E4FF1222327D837F0E1222327D0AD7
:0922A700122229E41DFF0222327B
:10002600AB077D20E4FF1222327D827F0E12223240
:0B003600AD03122229E41DFF0222325C
:0722FF007D20E4FF02223202
:06230600E4FDFF0222329B
:1022C200759850759CE8758E11E4F587D2AFD2AC43
:0122D20022E9
:1022B000759A50759CE8758E1175A210D2AF75AFE6
:0222C0000122F9
:0E22F100C2ACC2998F993099FDC299D2AC222D
:10224900E4F5AFD290539AFD8F9BAE9A530602EEF6
:0A22590060F8539AFDC29075AF01C2
:012263002258
:0A20F9008B088A09890A8C0B8D0CF4
:10210300E4FDFCA295B39295AB08AA09A90A8D82B6
:102113008C83120994FF1222F10DBD00010CC3ED53
:0D212300950CE50B6480F8EC64809840D6C4
:01213000228C
:08001600A0A2A4A6A1A3A5A7C6
:03196B0001520026
:0B220700C2947F147E00122212D293BA
:10221200E4FDFCC3ED9FEC9E500CA295B392950D8C
:06222200BD00010C80ED7F
:012228002293
:10226400C2AFC2937F147E00122212D29412220DA6
:0A227400C294122212C29302221239
:10000300122207D294122212C293122212D2AF22C8
:10219500AF04A9071222647F147E00122212E552B1
:1021A50090001693FF1221E31221B5AF011221E32E
:0821B500D294122209C2932208
:06230C00122207C2932219
:1021E3007B08AA07A295B39295EA54806480700491
:1021F300D2948002C294122209C293EA25E0FADB48
:04220300E3022212BE
:10216400E4FBFAEAC39408748094805021A295B3E6
:102174009295D294122209EB25E0FB3094010B7F57
:10218400147E00122212C2931222120A80D5AF03C7
:012194002228
:06206F008B258A2689275B
:102075008D2B122195AF2B1221E31221B5E4F52CFE
:10208500E52CC3952A501FA295B39295AB25AA2698
:10209500A927852C82758300120994FF1221E3126A
:1020A50021B5052C80DA1200037F207E4E02221214
:022131008D1E01
:102133008F1FAF06122197AF1F1221E31221B5E4BF
:10214300F9E9C3951E5010A295B39295E4FF1221AD
:10215300E31221B50980EA1200037F207E4E02229A
:012163001269
:101BD900F50DE50C34FFF50CAB09AA0AA90BAC0EFF
:081BE900AD0F85161D85171EC6
:0A1BF1008B188A19891A8C1B8D1CB1
:101BFB00752300E51C547FF524C374809524F524CC
:101C0B00E49523F523D3E51E9524E51D9523500379
:101C1B00021CA785242A12206FC3E51E9524F51EEE
:101C2B00E51D9523F51DE524251CF51CE523351B2A
:101C3B00F51BE524251AF51AE5233519F519AE1D03
:101C4B00E51E7807CEC313CE13D8F9F5228E21E506
:101C5B001E547FF520E4F51FC3E51F9522E4952163
:101C6B00502FA295B39295AB18AA19A91A752A8071
:101C7B00AD1CAC1B12206F7480251CF51CE4351BAE
:101C8B00F51B7480251AF51AE43519F519051F8013
:101C9B00C7AB18AA19A91A85202A8009AB18AA194B
:0C1CAB00A91A851E2AAD1CAC1B12206F6C
:011CB700220A
:101D6100F509E50834FFF508AE0AAF0BAD13AC1267
:081D71008E148F158C168D17DE
:101D7900E515547FF519C374809519F519FFD3E555
:101D8900179FE5169400406EAD19AF15122131AFBA
:101D9900197E00C3E5179FF517E5169EF516EF2581
:101DA90015F515EE3514F514AE16E5177807CEC3FB
:101DB90013CE13D8F9F51B8E1AE517547FF518E4DD
:101DC900F51CF51DC3E51D951BE51C951A5023A2AD
:101DD90095B392957D80AF15AE141221317480258B
:101DE90015F515E43514F514051DE51D70D6051C0A
:0F1DF90080D2AD188002AD17AF15AE1412213194
:011E080022B7
:101E0900F50CE50B34FFF50BAB08AA09A90AAC0DD3
:081E1900AD0E85151C85161D98
:101E2100E4F51FF5208B218A2289238D1E1221952D
:101E3100AF1E1221E31221B5122264E55290001A5D
:101E410093FF1221E31221B5E4F51FF520E51D24CE
:101E5100FFFFE51C34FFFEC3E5209FE51F9E5025D3
:101E6100A295B39295122164AB21AA22A9238520C0
:101E710082851F83EF1209C112230C0520E5207012
:101E8100CC051F80C8E51D24FFF520E51C34FFF5B6
:101E91001F122164AB21AA22A923852082851F83D9
:0A1EA100EF1209C11221B50200037F
:060EB0007E007D007C00C5
:0E0EB6008B098A0A890B8F0F8E0E8D0D8C0C06
:100EC400E511250FF515E510350EF514E4350DF58E
:100ED40013E4350CF512E4F516F5177FFF7EFFFDDC
:100EE400FCAB15AA14A913A812D3120A405006E4A5
:100EF400F55202111EE47FFF7EFFFDFCAB15AA1420
:100F0400A913A812D3120A40405AE47FFF7EFFFDC2
:100F1400FCAB0FAA0EA90DA80CD3120A405045E44D
:100F2400F552AC0EAD0FC39DF517E49CF516AB0955
:100F3400AA0AA90BF51D85171E121BF1E517250B2F
:100F4400F50BE516350AF50AC3E5119517F511E514
:100F5400109516F510755201E4F50FF50EF50DF523
:100F64000C02111E7FFF7EFF7D017C00AB15AA14CD
:100F7400A913A812D3120A405030E47FFF7EFFFD6C
:100F8400FCAB0FAA0EA90DA80C120A40401C755206
:100F940001E4250FF50FE4350EF50EE50D34FFF5EC
:100FA4000DE50C34FFF50C02111E7FFF7EFF7D0161
:100FB4007C00AB15AA14A913A812D3120A40405DF1
:100FC4007FFF7EFF7D017C00AB0FAA0EA90DA80C4C
:100FD400D3120A405047755201C3E4950FF517E444
:100FE400950EF516E4250FF50FE4350EF50EE50D17
:100FF40034FF121BD9E517250BF50BE516350AF559
:101004000AC3E5119517F511E5109516F5107552FB
:1010140002E4F50FF50EF50DF50C02111E7FFF7EAF
:10102400FF7D027C00AB15AA14A913A812D3120ADF
:101034004050317FFF7EFF7D017C00AB0FAA0EA9DB
:101044000DA80C120A40401C755202E4250FF50F3E
:10105400E4350EF50EE50D34FEF50DE50C34FFF523
:101064000C02111E7FFF7EFF7D027C00AB15AA14CB
:10107400A913A812D3120A40405C7FFF7EFF7D02B1
:101084007C00AB0FAA0EA90DA80CD3120A4050463F
:10109400755202C3E4950FF517E4950EF516E42591
:1010A4000FF50FE4350EF50EE50D34FE121BD9E5F0
:1010B40017250BF50BE516350AF50AC3E511951747
:1010C400F511E5109516F510755203E4F50FF50EBC
:1010D400F50DF50C80447FFF7EFF7D037C00AB158E
:1010E400AA14A913A812D3120A4050417FFF7EFF0D
:1010F4007D027C00AB0FAA0EA90DA80C120A404079
:101104002C755203E4250FF50FE4350EF50EE50DAD
:1011140034FDF50DE50C34FFF50CAB09AA0AA90B57
:0D112400AC0EAD0F85101D85111E121BF1C4
:01113100229B
:0813AE008F0B8E0A8D098C08DB
:1013B600E50D250BF511E50C350AF510E43509F5B3
:1013C6000FE43508F50EE4F512F5137FFF7EFFFDF9
:1013D600FCAB11AA10A90FA80ED3120A405006E4BE
:1013E600F5520215E4E47FFF7EFFFDFCAB11AA1067
:1013F600A90FA80ED3120A404046E47FFF7EFFFDE8
:10140600FCAB0BAA0AA909A808D3120A405031E47A
:10141600F552AE0AAF0BC39FF513E49EF512AD135A
:10142600FC121D71C3E50D9513F50DE50C9512F52E
:101436000C755201E4F50BF50AF509F5080215E4F9
:101446007FFF7EFF7D017C00AB11AA10A90FA80EBD
:10145600D3120A405030E47FFF7EFFFDFCAB0BAA9F
:101466000AA909A808120A40401C755201E4250B76
:10147600F50BE4350AF50AE50934FFF509E5083404
:10148600FFF5080215E47FFF7EFF7D017C00AB11AE
:10149600AA10A90FA80ED3120A4040517FFF7EFF63
:1014A6007D017C00AB0BAA0AA909A808D3120A4041
:1014B600503B755201C3E4950BF513E4950AF512FA
:1014C600E4250BF50BE4350AF50AE50934FF121D90
:1014D60061C3E50D9513F50DE50C9512F50C7552E6
:1014E60002E4F50BF50AF509F5080215E47FFF7E1F
:1014F600FF7D027C00AB11AA10A90FA80ED3120A19
:101506004050317FFF7EFF7D017C00AB0BAA0AA90C
:1015160009A808120A40401C755202E4250BF50B77
:10152600E4350AF50AE50934FEF509E50834FFF560
:10153600080215E47FFF7EFF7D027C00AB11AA1036
:10154600A90FA80ED3120A4040507FFF7EFF7D02EE
:101556007C00AB0BAA0AA909A808D3120A40503A84
:10156600755202C3E4950BF513E4950AF512E425CA
:101576000BF50BE4350AF50AE50934FE121D61C3C5
:10158600E50D9513F50DE50C9512F50C755203E472
:10159600F50BF50AF509F50880447FFF7EFF7D030C
:1015A6007C00AB11AA10A90FA80ED3120A4050391D
:1015B6007FFF7EFF7D027C00AB0BAA0AA909A80863
:1015C600120A404024755203E4250BF50BE4350A54
:1015D600F50AE50934FDF509E50834FFF508AE0A14
:0915E600AF0BAD0DAC0C121D7130
:0115EF0022D9
:0E1132008B088A09890A8F0E8E0D8D0C8C0B8E
:10114000E510250EF514E50F350DF513E4350CF516
:1011500012E4350BF511E4F515F5167FFF7EFFFD62
:10116000FCAB14AA13A912A811D3120A405006E42A
:10117000F55202139AE47FFF7EFFFDFCAB14AA1325
:10118000A912A811D3120A40405AE47FFF7EFFFD46
:10119000FCAB0EAA0DA90CA80BD3120A405045E4D3
:1011A000F552AC0DAD0EC39DF516E49CF515AB08DC
:1011B000AA09A90AF51C85161D121E21E516250A85
:1011C000F50AE5153509F509C3E5109516F510E59D
:1011D0000F9515F50F755201E4F50EF50DF50CF5AB
:1011E0000B02139A7FFF7EFF7D017C00AB14AA13D4
:1011F000A912A811D3120A405030E47FFF7EFFFDF0
:10120000FCAB0EAA0DA90CA80B120A40401C75528B
:1012100001E4250EF50EE4350DF50DE50C34FFF572
:101220000CE50B34FFF50B02139A7FFF7EFF7D0167
:101230007C00AB14AA13A912A811D3120A40405D76
:101240007FFF7EFF7D017C00AB0EAA0DA90CA80BD1
:10125000D3120A405047755201C3E4950EF516E4C7
:10126000950DF515E4250EF50EE4350DF50DE50C9F
:1012700034FF121E09E516250AF50AE5153509F5AC
:1012800009C3E5109516F510E50F9515F50F755284
:1012900002E4F50EF50DF50CF50B02139A7FFF7EB7
:1012A000FF7D027C00AB14AA13A912A811D3120A65
:1012B0004050317FFF7EFF7D017C00AB0EAA0DA95F
:1012C0000CA80B120A40401C755202E4250EF50EC4
:1012D000E4350DF50DE50C34FEF50CE50B34FFF5AA
:1012E0000B02139A7FFF7EFF7D027C00AB14AA13D2
:1012F000A912A811D3120A40405C7FFF7EFF7D0235
:101300007C00AB0EAA0DA90CA80BD3120A405046C4
:10131000755202C3E4950EF516E4950DF515E42516
:101320000EF50EE4350DF50DE50C34FE121E09E543
:1013300016250AF50AE5153509F509C3E5109516D0
:10134000F510E50F9515F50F755203E4F50EF50D43
:10135000F50CF50B80447FFF7EFF7D037C00AB1412
:10136000AA13A912A811D3120A4050417FFF7EFF91
:101370007D027C00AB0EAA0DA90CA80B120A4040FE
:101380002C755203E4250EF50EE4350DF50DE50C34
:1013900034FDF50CE50B34FFF50BAB08AA09A90ADF
:0D13A000AC0DAD0E850F1C85101D121E2119
:0113AD00221D
:101EAB00E4753B6A753A01F539F538853B53AF3B21
:101EBB00AE3AAD39AC387808120A568F54AF3BAEF8
:101ECB003AAD39AC387810120A568F55AF3BAE3A53
:101EDB00AD39AC387818120A568F567B007A0079D8
:101EEB00537510007511047F00120EB0E475486A2B
:101EFB00754701F546F545854853AF48AE47AD46A6
:101F0B00AC457808120A568F54AF48AE47AD46AC75
:101F1B00457810120A568F55AF48AE47AD46AC45C3
:101F2B007818120A568F567B007A00795375100079
:0E1F3B007511047F047E007D007C00020EB64E
:101F4900E4F53FF53EF53DF53C853F53AF3FAE3EE9
:101F5900AD3DAC3C7808120A568F54AF3FAE3EAD4A
:101F69003DAC3C7810120A568F55AF3FAE3EAD3DA1
:101F7900AC3C7818120A568F567B007A0079537553
:101F890010007511047F08120EB0E4F54CF54BF5FD
:101F99004AF549854C53AF4CAE4BAD4AAC4978082C
:101FA900120A568F54AF4CAE4BAD4AAC4978101259
:101FB9000A568F55AF4CAE4BAD4AAC497818120A48
:101FC900568F567B007A0079537510007511047F7E
:0A1FD9000C7E007D007C00020EB6B5
:1015F0007B007A007953750F007510047F007E0020
:101600007D007C00121132AF55E4FCFDFEFBFA793F
:1016100001F81209E3C004C005C006C007AF56E4D4
:10162000FCFDFEFBFAF978011209E3D003D002D0E9
:1016300001D000EF2BFFEE3AFEED39FDEC38FCA8AF
:1016400004A905AA06AB07E554FEE4FCFD2BFBEA62
:101650003EFAED39F9EC38F8E4FEEB2553F53BEEB4
:101660003AF53AED39F539EC38F5387B007A0079FE
:1016700053750F007510047F04121132AF55E4FC4E
:10168000FDFEFBFA7901F81209E3C004C005C006AB
:10169000C007AF56E4FCFDFEFBFAF978011209E33E
:1016A000D003D002D001D000EF2BFFEE3AFEED398F
:1016B000FDEC38FCA804A905AA06AB07E554FEE436
:1016C000FCFD2BFBEA3EFAED39F9EC38F8E4FEEBD1
:1016D0002553F548EE3AF547ED39F546EC38F54532
:1016E0007B007A007953750F007510047F08121182
:1016F00032AF55E4FCFDFEFBFA7901F81209E3C0B4
:1017000004C005C006C007AF56E4FCFDFEFBFAF9B5
:1017100078011209E3D003D002D001D000EF2BFFF3
:10172000EE3AFEED39FDEC38FCA804A905AA06AB9B
:1017300007E554FEE4FCFD2BFBEA3EFAED39F9EC3B
:1017400038F8E4FEEB2553F53FEE3AF53EED39F57A
:101750003DEC38F53C7B007A007953750F0075102D
:10176000047F0C121132AF55E4FCFDFEFBFA790147
:10177000F81209E3C004C005C006C007AF56E4FC78
:10178000FDFEFBFAF978011209E3D003D002D00183
:10179000D000EF2BFFEE3AFEED39FDEC38FCA8044B
:1017A000A905AA06AB07E554FEE4FCFD2BFBEA3EC7
:1017B000FAED39F9EC38F8E4FEEB2553F54CEE3A46
:0B17C000F54BED39F54AEC38F54922F5
:101ABD008F08EF64017040853B53AF3BAE3AAD39B3
:101ACD00AC387808120A568F54AF3BAE3AAD39ACEC
:101ADD00387810120A568F55AF3BAE3AAD39AC3847
:101AED007818120A568F567B007A007953751000BC
:101AFD007511047F008044E50864027041854853E8
:101B0D00AF48AE47AD46AC457808120A568F54AF74
:101B1D0048AE47AD46AC457810120A568F55AF48C2
:101B2D00AE47AD46AC457818120A568F567B007AF3
:101B3D000079537510007511047F04120EB0E5087D
:101B4D0064037040853F53AF3FAE3EAD3DAC3C7836
:101B5D0008120A568F54AF3FAE3EAD3DAC3C7810E7
:101B6D00120A568F55AF3FAE3EAD3DAC3C781812C4
:101B7D000A568F567B007A00795375100075110443
:101B8D007F088044E50864047041854C53AF4CAE2A
:101B9D004BAD4AAC497808120A568F54AF4CAE4B38
:101BAD00AD4AAC497810120A568F55AF4CAE4BADBD
:101BBD004AAC497818120A568F567B007A00795331
:0C1BCD007510007511047F0C120EB02280
:1006370002097FE86480F8E933E83360110460F069
:10064700ED33EC337009E8FCE9FDEAFEEBFF220429
:1006570060DED3EB9FEA9EE99DE8C2E78CF0C2F724
:1006670095F0400CE8CCF8E9CDF9EACEFAEBCFFBF0
:1006770012094A85D0F05804700320D5B3E80470F6
:10068700075002B2D502098992D5EC0460F7E4CC91
:10069700C0E0C398F8603B94186008400DD0E0FBB9
:1006A700020961E4FBFAC9FC8028E830E406E4C9E2
:1006B700FBE4CAFCE830E305E4C9CACBFCE854070D
:1006C7006010F8C3E913F9EA13FAEB13FBEC13FC18
:1006D700D8F130F52FC3E49CFCEF9BFFEE9AFEEDBB
:1006E70099FDD0E0FBEF4E4D4C701222DB0302095F
:1006F70086EC2CFCEF33FFEE33FEED33FDED30E7F8
:10070700EB020961EF2BFFEE3AFEED39FDD0E0FB7E
:1007170050130BBB0003020989ED13FDEE13FEEF27
:0807270013FFEC13FC02096151
:10072F00EC4D6011E8497017ED33EC3304600DE4C4
:10073F00FCFFFEFD22E933E8330470F802097F1253
:10074F00094A58046009E4CC248150062850090254
:10075F000989284003020986C0E0EB4A7044B9803A
:10076F0006D0E0FB020975EF4E701CBD8008EBFF51
:10077F00EAFEE9FD80EBE98DF0A4FEE5F002081832
:10078F00E9CDF9EAFEEBFFEF89F0A4FCE5F0CE89A5
:10079F00F0A42EFFE435F0CD89F0A42DFEE435F062
:1007AF008067EF4E7005BD80D780C3EF8BF0A4AC90
:1007BF00F0EE8BF0A42CFCE435F0F8EF8AF0A42CCB
:1007CF00E5F038FCE433CB8DF0A42CFCE5F03BF8DE
:1007DF00EE8AF0A42CFCE5F038F8E433CF89F0A4CE
:1007EF002CFCE5F038CF3400CE89F0A42FFFE5F0D4
:1007FF003EFEE433C98DF0A42EFEE5F039CD8AF02C
:10080F00A42FFFE5F03EFEE43DFD33D0E0FB5007A3
:10081F000BBB000F020989EC2CFCEF33FFEE33FE0C
:06082F00ED33FD0209613A
:10083500020989EC5D046005E85904700302097F2B
:1008450012094A580460F6EC4860F2EC7004FDFEAB
:10085500FF22C860DB2481C85009C3986002500696
:100865000209869850CAF582E9294B4A7005AB8280
:1008750002097575F0007C1A7880C3EF9BEE9AED3E
:1008850099400DC3EF9BFFEE9AFEED99FDE842F00E
:10089500DC23ACF0D0E0FFD0E0FED0E0FDAB822061
:1008A500E7101BEB60BAEC2CFCEF33FFEE33FEEDEB
:1008B50033FD020961E803F830E705C0F075F00083
:1008C500EF2FFFEE33FEED33FD40B830E7C280AACF
:1008D50075F020800E75F010800575F0087D007E9E
:1008E500007F003392D530D503120A32EC33401025
:1008F500EF33FFEE33FEED33FDEC33FCD5F0ED22A7
:0E090500E5F0247EA2D513CC92E7CDCEFF22E2
:10091300EDD2E7CD33EC3392D524814006E4FFFEDC
:10092300FDFC22FCE4CFCECDCC24E0501174FF803B
:10093300EDC3CC13CCCD13CDCE13CECF13CF0470D8
:07094300F030D5DE020A329C
:10094A00E9D2E7C933E833F892D5EDD2E7CD33ECF3
:07095A0033FC5002B2D5226C
:10096100EC30E7100FBF000C0EBE00080DBD0004F7
:100971000BEB6014A2D5EB13FCED92E7FD2274FFA3
:10098100FCFDFEFF22E480F8A2D574FF13FC7D80FC
:03099100E480EF10
:101FEF00020046E493A3F8E493A34003F68001F2C2
:101FFF0008DFF48029E493A3F85407240CC8C333F3
:10200F00C4540F4420C8834004F456800146F6DFC1
:10201F00E4800B01020408102040809017CBE47E6F
:10202F00019360BCA3FF543F30E509541FFEE493B6
:10203F00A360010ECF54C025E060A840B8E493A37D
:10204F00FAE493A3F8E493A3C8C582C8CAC583CAA8
:10205F00F0A3C8C582C8CAC583CADFE9DEE780BE60
:01196E000078
:10099400BB010CE58229F582E5833AF583E0225018
:1009A40006E92582F8E622BBFE06E92582F8E22262
:0D09B400E58229F582E5833AF583E493227C
:1009C100F8BB010DE58229F582E5833AF583E8F06C
:1009D100225006E92582C8F622BBFE05E92582C818
:0209E100F22200
:1009E300E88FF0A4CC8BF0A42CFCE98EF0A42CFCB3
:1009F3008AF0EDA42CFCEA8EF0A4CDA8F08BF0A431
:100A03002DCC3825F0FDE98FF0A42CCD35F0FCEB8F
:100A13008EF0A4FEA9F0EB8FF0A4CFC5F02ECD3954
:0F0A2300FEE43CFCEAA42DCE35F0FDE43CFC22C1
:1020B500C2D5E830E70FB2D5E4C39BFBE49AFAE456
:1020C50099F9E498F8EC30E717B2D51220EB120A2B
:1020D500A6E4C39BFBE49AFAE499F9E498F8800333
:1020E500120AA630D50DE4C39FFFE49EFEE49DFDD4
:0420F500E49CFC2249
:0E0A3200C3E49FFFE49EFEE49DFDE49CFC22D5
:100A4000EB9FF5F0EA9E42F0E99D42F0EC6480C82D
:060A500064809845F022CD
:100A5600E86010ECA2E713FCED13FDEE13FEEF13B6
:040A6600FFD8F022A3
:100A6A0075F008758200EF2FFFEE33FECD33CDCC43
:100A7A0033CCC58233C5829BED9AEC99E5829840C6
:100A8A000CF582EE9BFEED9AFDEC99FC0FD5F0D6A3
:100A9A00E4CEFBE4CDFAE4CCF9A88222B800C1B9CD
:100AAA000059BA002DEC8BF084CFCECDFCE5F0CB0B
:100ABA00F97818EF2FFFEE33FEED33FDEC33FCEB44
:100ACA0033FB10D703994004EB99FB0FD8E5E4F9FF
:100ADA00FA227818EF2FFFEE33FEED33FDEC33FCEC
:100AEA00C933C910D7059BE99A4007EC9BFCE99AE0
:100AFA00F90FD8E0E4C9FAE4CCFB2275F010EF2F25
:100B0A00FFEE33FEED33FDCC33CCC833C810D70724
:100B1A009BEC9AE899400AED9BFDEC9AFCE899F85F
:0E0B2A000FD5F0DAE4CDFBE4CCFAE4C8F922F2
:00000001FF
