:03000000021ED706
:0C1ED700787FE4F6D8FD758154021F1ED0
:10170200013700013300013500013200012F0004CE
:101712004100000000012E00014E00013600014D83
:1017220000014000013400014F00616A0000000026
:1017320000000000000000000000000000000000A7
:101742000000000000000000000000000000000097
:101752000000000000000000000000000000000087
:101762000000000000000000000000000000000077
:101772000000000000000000000000000000000067
:101782000000000000000000000000000000000057
:101792000000000000000000000000000000000047
:1017A2000000000000000000000000000000000037
:1017B2000000000000000000000000000000000027
:1017C2000000000000000000000000000000000017
:1017D2000000000000000000000000000000000007
:1017E20000000000000000000000000000000000F7
:1017F20000000000000000000000000000000000E7
:1018020000000000000000000000000000000000D6
:1018120000000000000000000000000000000000C6
:1018220000000000000000000000000000000000B6
:1018320000000000000000000000000000000000A6
:101842000000000000000000000000000000000096
:101852000000000000000000000000000000000086
:101862000000000000000000000000000000000076
:101872000000000000000000000000000000000066
:101882000000000000000000000000000000000056
:0C18920000000000000000000230000018
:10004600C2AFA295B39295C290D2B6D2B7D2C0E44F
:10005600F53212219F12218D121527E47B6A7A014F
:10006600F9F8AF3BAE3AAD39AC38121FA9AC00ADCA
:1000760001AE02AF03EC4D4E4F600302010B7B6AEB
:100086007A01F9F8AF3FAE3EAD3DAC3C121FA9ACCC
:1000960000AD01AE02AF03EC4D4E4F7068C3E53BB9
:1000A600953FFFE53A953EFEE539953DFDE53895E8
:1000B6003CFCE47B6A7A01F9F8C31209E96046AFB1
:1000C6003BAE3AAD39AC38AB3FAA3EA93DA83CC3DE
:1000D6001209E9401AE53B2496F53FE53A34FEF568
:1000E6003EE53934FFF53DE53834FFF53C8016E54D
:1000F6003F246AF53BE53E3401F53AE4353DF539F2
:10010600E4353CF538E47B6A7A01F9F8AF48AE4746
:10011600AD46AC45121FA9AC00AD01AE02AF03EC73
:100126004D4E4F60030201B57B6A7A01F9F8AF4C78
:10013600AE4BAD4AAC49121FA9AC00AD01AE02AF41
:1001460003EC4D4E4F7068C3E548954CFFE5479567
:100156004BFEE546954AFDE5459549FCE47B6A7A02
:1001660001F9F8C31209E96046AF48AE47AD46AC9F
:1001760045AB4CAA4BA94AA849C31209E9401AE55E
:10018600482496F54CE54734FEF54BE54634FFF535
:100196004AE54534FFF5498016E54C246AF548E5FD
:1001A6004B3401F547E4354AF546E43549F545E46F
:1001B6007B6A7A01F9F8AF3BAE3AAD39AC38121F1B
:1001C600A9AC00AD01AE02AF03EC4D4E4F6036E474
:1001D6007B6A7A01F9F8AF3FAE3EAD3DAC3C121FEB
:1001E600A9AC00AD01AE02AF03EC4D4E4F7016E563
:1001F6003F246AF53BE53E3401F53AE4353DF539F1
:10020600E4353CF538E47B6A7A01F9F8AF3BAE3A5F
:10021600AD39AC38121FA9AC00AD01AE02AF03EC8C
:100226004D4E4F70377B6A7A01F9F8AF3FAE3EAD5F
:100236003DAC3C121FA9AC00AD01AE02AF03EC4DC4
:100246004E4F6018E53B2496F53FE53A34FEF53E01
:10025600E53934FFF53DE53834FFF53CE47B6A7A51
:1002660001F9F8AF48AE47AD46AC45121FA9AC0040
:10027600AD01AE02AF03EC4D4E4F6036E47B6A7AB9
:1002860001F9F8AF4CAE4BAD4AAC49121FA9AC0010
:10029600AD01AE02AF03EC4D4E4F7016E54C246A2D
:1002A600F548E54B3401F547E4354AF546E435496A
:1002B600F545E47B6A7A01F9F8AF48AE47AD46AC3E
:1002C60045121FA9AC00AD01AE02AF03EC4D4E4F77
:1002D60070377B6A7A01F9F8AF4CAE4BAD4AAC4940
:1002E600121FA9AC00AD01AE02AF03EC4D4E4F603C
:1002F60018E5482496F54CE54734FEF54BE54634BB
:10030600FFF54AE54534FFF549E47B6A7A01F9F8D9
:10031600AF3BAE3AAD39AC38121FA9AC00AD01AE59
:1003260002AF03EC4D4E4F6020E47B6A7A01F9F888
:10033600AF3FAE3EAD3DAC3C121FA9AC00AD01AE29
:1003460002AF03EC4D4E4F7040E47B6A7A01F9F838
:10035600AF48AE47AD46AC45121FA9AC00AD01AEE5
:1003660002AF03EC4D4E4F6026E47B6A7A01F9F842
:10037600AF4CAE4BAD4AAC49121FA9AC00AD01AEB5
:1003860002AF03EC4D4E4F6006121D07121DA57FEE
:10039600881221CE7F1E12210BC2B6D2AAD2AFA2DC
:1003A60095B3929530B20AE54F7006754F0112214A
:1003B600DC20B21CE54FB40117E5337013F54FE5A9
:1003C60032D39401400415321532E4F5371221E395
:1003D600E54EB40108E4F54E7F881221CEE540B41F
:1003E600011BE4F540750C01750D6AFFFEFDFC125C
:1003F60012E5121D07121DA57F851221CEAF3BAE59
:100406003AAD39AC38AB48AA47A946A845C3120944
:10041600E9701EF54D7F6A7E01FDFCAB3BAA3AA949
:1004260039A838C31209E9600B121D07121DA580F1
:1004360003754D01E53260030204C7E52E640160D1
:10044600030204C7E54D64017077E5367073053223
:10045600F52EF54D7B017A007900AF48AE47AD46E3
:10046600AC45750F0175106A1210697B017A007927
:10047600007D6A7C01121FEDAF48AE47AD46AC4524
:10048600750C01750D6A1212E5E548246AF548E512
:10049600473401F547E43546F546E43545F5457FED
:1004A600021219C1E54C246AF54CE54B3401F54BB3
:1004B600E4354AF54AE43549F5497F041219C11570
:1004C60032E532600302054BE52E64017077E54D97
:1004D60064017071E5366401706B7FC87EFF7D0331
:1004E600FCAB3BAA3AA939A838C31209E9605605FC
:1004F60032E4F54DF5367B017A007900AF3BAE3A32
:10050600AD39AC3875100175116A120DEDE53B2455
:100516006AF53BE53A3401F53AE43539F539E4351F
:1005260038F5387F011219C1E53F246AF53FE53EEB
:100536003401F53EE4353DF53DE4353CF53C7F03BD
:100546001219C11532E5327024E52EB4011FE54DAE
:10055600701BE536B401160532E4F52EF5367B013F
:100566007A0079007D6A7C01121FED1532E5326052
:10057600030203A5E52E60030203A5E536640160C8
:10058600030203A50532F5367B017A007900AF3BFD
:10059600AE3AAD39AC3875100175116A120DEDE53C
:1005A6003B246AF53BE53A3401F53AE43539F53949
:1005B600E43538F5387F011219C1E53F246AF53F65
:1005C600E53E3401F53EE4353DF53DE4353CF53C8C
:0A05D6007F031219C115320203A5BC
:03001300020AE1FD
:100AE100C0E0C0F0C083C082C0D075D000C000C0DB
:100AF10001C002C003C004C005C006C007C2AFC226
:100B0100AAA295B39295E537147003020CAD147047
:100B110003020D08147003020D18147003020D4A2C
:100B2100147003020D7B24056003020DC8E532C376
:100B31009402500705320532020D03E5326402606A
:100B410003020D03D2B7D2B685A02F7530007531DF
:100B510000753400E52FC394005003020C03E52F08
:100B6100D394FA4003020C03AC2FE4120888E4FB8F
:100B7100FA794878431205E7E4FBFA7920784112C3
:100B810007E18F448E438D428C41E4FBFA798078F2
:100B9100411207E11208BC74002531F58274003559
:100BA10030F583EFF074002531F58274003530F5AE
:100BB10083E0F52F0531E53170020530E52F75F041
:100BC10010A4FDACF0E4120883A804A905AA06ABA1
:100BD10007AF44AE43AD42AC411205E3E4FBFA7901
:100BE1008078411206D81208BC74002531F5827450
:100BF100003530F583EFF00531E531700205300243
:100C01000CA5E52FB4FB3A900000E0FF74002531FC
:100C1100F58274003530F583EFF00531E53170026E
:100C21000530900001E0FF74002531F58274003534
:100C310030F583EFF00531E531700205307FFB803F
:100C410028E52FB4FC10900000E4F0A3F0F5307516
:100C510031027FFC8013E52FB4FD13900000E4F016
:100C6100A3F0F5307531027FFD1221CE8036900060
:100C710000E0FF74002531F58274003530F583EF13
:100C8100F00531E53170020530900001E0FF74009C
:100C91002531F58274003530F583EFF00531E5310A
:100CA100700205307535010537020D46E5316402E4
:100CB1004530703DD2B7C2B6E535700705377F14B0
:100CC10012210BE535B4010A7FC11221267F0112E1
:100CD100210BE535B4020A7FC21221267F011221C0
:100CE1000BE53564036003020DC87FC31221268022
:100CF10011C2B7D2B67530007531007537001532A3
:100D010015327F01020DC5D2B7C2B67FCA122126A4
:100D110005377F04020DC5E531647A45307010D284
:100D2100B7C2B67FCB12212605377F04020DC5C29B
:100D3100B7D2B67530007531027537020534E53426
:100D4100B40A0280737F02807BE53164F245307022
:100D51000FD2B7C2B67FCC12212605377F0480643B
:100D6100C2B7D2B675300075317A7537030534E5EF
:100D710034B40A0280427F02804AE531B46A25E533
:100D810030B40120D2B7D2B615321532753700759D
:100D910036017580947F887E131220B37580FF120F
:100DA10021748023C2B7D2B67530007531F2753720
:100DB100040534E534B40A0A7FFE1221CE1221DC87
:100DC10080057F0212210BD2AAD2AFD007D006D064
:100DD10005D004D003D002D001D000D0D0D082D031
:060DE10083D0F0D0E032E7
:030023000218A21E
:1018A200C0E0C0F0C083C082C0D075D000C000C00C
:0D18B20001C002C003C004C005C006C0078D
:1018BF00752DFFC2AFA295B392952098030219A27E
:1018CF00C29885992DE52DC39401400BE52DD39436
:1018DF003C5004AF2D803AE52DC3943D402DE52DAE
:1018EF00D394785026E533B40121AF2D122126C2AF
:1018FF00AC7F607EEA1220B37F607EEA1220B37F56
:10190F00607EEA1220B3D2AC02199DE52DB480128D
:10191F00FF1221267F057E001220B3AF2D12212644
:10192F00806CE52DB482081221DC753301805FE5F0
:10193F002DB4831920B2031221E3E532D394014071
:10194F0004153215327533007537008041E52DB41B
:10195F008B04C2C08038E52DB48A04D2C0802FE535
:10196F002DB48405752E018025E52DB485057540B0
:10197F0001801BE52DB48805754E018011E52DC33F
:10198F0094964011E52DD394FA500A852D80752D2C
:07199F00FF8002C299D2AFE4
:1019A600D007D006D005D004D003D002D001D00095
:0B19B600D0D0D082D083D0F0D0E0323F
:03004300021E3F5B
:101E3F00C0E0C0F0C083C082C0D075D000C000C069
:0D1E4F0001C002C003C004C005C006C007EA
:101E5C00C2AFA295B39295E59A30E04F539AFEAF7C
:101E6C009BE5357021E533701874002531F58274CB
:101E7C00003530F583EFF00531E531700205308027
:101E8C002D1221CE8028E535B40107BFC1020535DE
:101E9C00801CE535B40207BFC20205358010E5355C
:101EAC00B4030BBFC3037535008003539AFDD2AF47
:101EBC00D007D006D005D004D003D002D001D0007A
:0B1ECC00D0D0D082D083D0F0D0E03224
:0F21B000C2AFD2B5D2B40000C2B50000C2B42293
:0F21BF00C2B50000D2B40000D2B50000D2AF22EA
:10215B007F14D2B50000D2B4000030B507DFFB12FC
:08216B0021BF80F6C2B40000A0
:012173002249
:10002600E4FEEF30E704D2B58002C2B5EF25E0FF6B
:0D003600D2B40000C2B40EBE08E802215B87
:0920EB007F0F1220F47D017F013A
:1020F400AC071221B07FA2120026AF04120026AF53
:07210400051200260221BFB5
:102174007D20E4FF1220F47D837F0E1220F47D0A7B
:092184001220EBE41DFF0220F41F
:10210B00AB077D20E4FF1220F47D827F0E1220F4BA
:0B211B00AD031220EBE41DFF0220F4D6
:0721DC007D20E4FF0220F466
:0621E300E4FDFF0220F400
:10219F00759850759CE8758E11E4F587D2AFD2AC67
:0121AF00220D
:10218D00759A50759CE8758E1175A210D2AF75AF0A
:02219D0001221D
:0E21CE00C2ACC2998F993099FDC299D2AC2251
:10212600E4F5AFD290539AFD8F9BAE9A530602EE1A
:0A21360060F8539AFDC29075AF01E6
:01214000227C
:0A1FED008B088A09890A8C0B8D0C01
:101FF700E4FDFCA295B39295AB08AA09A90A8D82C4
:102007008C8312093DFF1221CE0DBD00010CC3EDDB
:0D201700950CE50B6480F8EC64809840D6D1
:012024002299
:08001600A0A2A4A6A1A3A5A7C6
:03189E00015000F6
:0B20A800C2947F147E001220B3D2937C
:1020B300E4FDFCC3ED9FEC9E500CA295B392950DED
:0620C300BD00010C80EDE0
:0120C90022F4
:10214100C2AFC2937F147E001220B3D2941220AE8C
:0A215100C2941220B3C2930220B31F
:100003001220A8D2941220B3C2931220B3D2AF22EB
:10205800AF04A9071221417F147E001220B3E55076
:1020680090001693FF1220CA122078AF011220CADE
:08207800D2941220AAC29322A7
:0621E9001220A8C293229F
:1020CA007B08AA07A295B39295EA30E704D29480D6
:1020DA0002C2941220AAC293EA25E0FADBE60220A1
:0120EA00B342
:10208000E4FBFAA295B39295D2941220AAEB25E034
:10209000FB3094010B7F147E001220B3C2931220F8
:0720A000B30ABA08DEAF032A
:0120A7002216
:061F63008B258A26892768
:101F69008D2B122058AF2B1220CA122078E4F52CA1
:101F7900E52CC3952A501FA295B39295AB25AA26A5
:101F8900A927852C8275830012093DFF1220CA12E8
:101F99002078052C80DA1200037F207E4E0220B3C0
:022025008D1E0E
:102027008F1FAF0612205AAF1F1220CA122078E462
:10203700F9E9C3951E5010A295B39295E4FF1220BB
:10204700CA1220780980EA1200037F207E4E022000
:01205700B3D5
:101ADE00F50DE50C34FFF50CAB09AA0AA90BAC0EFB
:081AEE00AD0F85161D85171EC2
:0A1AF6008B188A19891A8C1B8D1CAD
:101B0000752300E51C547FF524C374809524F524C7
:101B1000E49523F523D3E51E9524E51D9523500375
:101B2000021BAC85242A121F63C3E51E9524F51EF3
:101B3000E51D9523F51DE524251CF51CE523351B26
:101B4000F51BE524251AF51AE5233519F519E51EC7
:101B5000AE1D7807CEC313CE13D8F9F5228E21E53A
:101B60001E547FF520E4F51FC3E51F9522E495215F
:101B7000502FA295B39295AB18AA19A91A752A806D
:101B8000AD1CAC1B121F637480251CF51CE4351BB7
:101B9000F51B7480251AF51AE43519F519051F800F
:101BA000C7AB18AA19A91A85202A8009AB18AA1947
:0C1BB000A91A851E2AAD1CAC1B121F6375
:011BBC002206
:101BBD00F509E50834FFF508AE0AAF0BAD13AC120D
:081BCD008E148F158C168D1784
:101BD500E515547FF519C374809519F519FFD3E5FB
:101BE500179FE5169400406EAD19AF15122025AF6D
:101BF500197E00C3E5179FF517E5169EF516EF2527
:101C050015F515EE3514F514E517AE167807CEC3A0
:101C150013CE13D8F9F51B8E1AE517547FF518E482
:101C2500F51CF51DC3E51D951BE51C951A5023A252
:101C350095B392957D80AF15AE141220257480253D
:101C450015F515E43514F514051DE51D70D6051CAF
:0F1C550080D2AD188002AD17AF15AE1412202546
:011C6400225D
:101C6500F50CE50B34FFF50BAB08AA09A90AAC0D79
:081C7500AD0E85151C85161D3E
:101C7D00E4F51FF5208B218A2289238D1E12205811
:101C8D00AF1E1220CA122078122141E55090001A81
:101C9D0093FF1220CA122078E4F51FF520E51D24CC
:101CAD00FFFFE51C34FFFEC3E5209FE51F9E502579
:101CBD00A295B39295122080AB21AA22A92385204B
:101CCD0082851F83EF12096A1221E90520E5207034
:101CDD00CC051F80C8E51D24FFF520E51C34FFF55C
:101CED001F122080AB21AA22A923852082851F8364
:0A1CFD00EF12096A122078020003BA
:060DE7007E007D007C008F
:0E0DED008B098A0A890B8F0F8E0E8D0D8C0CD0
:100DFB00E511250FF515E510350EF514E4350DF558
:100E0B0013E4350CF512E4F516F5177FFF7EFFFDA5
:100E1B00FCAB15AA14A913A812D31209E95006E4C6
:100E2B00F550021055E47FFF7EFFFDFCAB15AA14B5
:100E3B00A913A812D31209E9405AE47FFF7EFFFDE4
:100E4B00FCAB0FAA0EA90DA80CD31209E95045E46F
:100E5B00F550AC0EAD0FC39DF517E49CF516AB0921
:100E6B00AA0AA90BF51D85171E121AF6E517250BF5
:100E7B00F50BE516350AF50AC3E5119517F511E5DE
:100E8B00109516F510755001E4F50FF50EF50DF5EF
:100E9B000C0210557FFF7EFF7D017C00AB15AA1461
:100EAB00A913A812D31209E95030E47FFF7EFFFD8E
:100EBB00FCAB0FAA0EA90DA80C1209E9401C75502A
:100ECB0001E4250FF50FE4350EF50EE50D34FFF5B6
:100EDB000DE50C34FFF50C0210557FFF7EFF7D01F5
:100EEB007C00AB15AA14A913A812D31209E9405D13
:100EFB007FFF7EFF7D017C00AB0FAA0EA90DA80C16
:100F0B00D31209E95047755001C3E4950FF517E467
:100F1B00950EF516E4250FF50FE4350EF50EE50DE0
:100F2B0034FF121ADEE517250BF50BE516350AF51E
:100F3B000AC3E5119517F511E5109516F5107550C7
:100F4B0002E4F50FF50EF50DF50C0210557FFF7E43
:100F5B00FF7D027C00AB15AA14A913A812D31209AA
:100F6B00E950317FFF7EFF7D017C00AB0FAA0EA9FC
:100F7B000DA80C1209E9401C755002E4250FF50F62
:100F8B00E4350EF50EE50D34FEF50DE50C34FFF5ED
:100F9B000C0210557FFF7EFF7D027C00AB15AA145F
:100FAB00A913A812D31209E9405C7FFF7EFF7D02D3
:100FBB007C00AB0FAA0EA90DA80CD31209E9504661
:100FCB00755002C3E4950FF517E4950EF516E4255D
:100FDB000FF50FE4350EF50EE50D34FE121ADEE5B6
:100FEB0017250BF50BE516350AF50AC3E511951711
:100FFB00F511E5109516F510755003E4F50FF50E88
:10100B00F50DF50C80447FFF7EFF7D037C00AB1557
:10101B00AA14A913A812D31209E950417FFF7EFF2E
:10102B007D027C00AB0FAA0EA90DA80C1209E9409A
:10103B002C755003E4250FF50FE4350EF50EE50D79
:10104B0034FDF50DE50C34FFF50CAB09AA0AA90B21
:0D105B00AC0EAD0F85101D85111E121AF68A
:011068002265
:0812E5008F0B8E0A8D098C08A5
:1012ED00E50D250BF511E50C350AF510E43509F57D
:1012FD000FE43508F50EE4F512F5137FFF7EFFFDC3
:10130D00FCAB11AA10A90FA80ED31209E95006E4DF
:10131D00F55002151BE47FFF7EFFFDFCAB11AA10FB
:10132D00A90FA80ED31209E94046E47FFF7EFFFD09
:10133D00FCAB0BAA0AA909A808D31209E95031E49C
:10134D00F550AE0AAF0BC39FF513E49EF512AD1326
:10135D00FC121BCDC3E50D9513F50DE50C9512F59E
:10136D000C755001E4F50BF50AF509F50802151B8E
:10137D007FFF7EFF7D017C00AB11AA10A90FA80E87
:10138D00D31209E95030E47FFF7EFFFDFCAB0BAAC1
:10139D000AA909A8081209E9401C755001E4250B9A
:1013AD00F50BE4350AF50AE50934FFF509E50834CE
:1013BD00FFF50802151B7FFF7EFF7D017C00AB1141
:1013CD00AA10A90FA80ED31209E940517FFF7EFF85
:1013DD007D017C00AB0BAA0AA909A808D31209E963
:1013ED00503B755001C3E4950BF513E4950AF512C6
:1013FD00E4250BF50BE4350AF50AE50934FF121B5C
:10140D00BDC3E50D9513F50DE50C9512F50C755055
:10141D0002E4F50BF50AF509F50802151B7FFF7EB1
:10142D00FF7D027C00AB11AA10A90FA80ED31209E3
:10143D00E950317FFF7EFF7D017C00AB0BAA0AA92D
:10144D0009A8081209E9401C755002E4250BF50B9B
:10145D00E4350AF50AE50934FEF509E50834FFF52A
:10146D000802151B7FFF7EFF7D027C00AB11AA10C9
:10147D00A90FA80ED31209E940507FFF7EFF7D0210
:10148D007C00AB0BAA0AA909A808D31209E9503AA6
:10149D00755002C3E4950BF513E4950AF512E42596
:1014AD000BF50BE4350AF50AE50934FE121BBDC335
:1014BD00E50D9513F50DE50C9512F50C755003E43E
:1014CD00F50BF50AF509F50880447FFF7EFF7D03D6
:1014DD007C00AB11AA10A90FA80ED31209E950393F
:1014ED007FFF7EFF7D027C00AB0BAA0AA909A8082D
:1014FD001209E94024755003E4250BF50BE4350A78
:10150D00F50AE50934FDF509E50834FFF508AE0ADD
:09151D00AF0BAD0DAC0C121BCD9F
:0115260022A2
:0E1069008B088A09890A8F0E8E0D8D0C8C0B58
:10107700E510250EF514E50F350DF513E4350CF5E0
:1010870012E4350BF511E4F515F5167FFF7EFFFD2C
:10109700FCAB14AA13A912A811D31209E95006E44C
:1010A700F5500212D1E47FFF7EFFFDFCAB14AA13BB
:1010B700A912A811D31209E9405AE47FFF7EFFFD68
:1010C700FCAB0EAA0DA90CA80BD31209E95045E4F5
:1010D700F550AC0DAD0EC39DF516E49CF515AB08A8
:1010E700AA09A90AF51C85161D121C7DE516250AF5
:1010F700F50AE5153509F509C3E5109516F510E567
:101107000F9515F50F755001E4F50EF50DF50CF576
:101117000B0212D17FFF7EFF7D017C00AB14AA1367
:10112700A912A811D31209E95030E47FFF7EFFFD11
:10113700FCAB0EAA0DA90CA80B1209E9401C7550AF
:1011470001E4250EF50EE4350DF50DE50C34FFF53C
:101157000CE50B34FFF50B0212D17FFF7EFF7D01FB
:101167007C00AB14AA13A912A811D31209E9405D98
:101177007FFF7EFF7D017C00AB0EAA0DA90CA80B9B
:10118700D31209E95047755001C3E4950EF516E4EB
:10119700950DF515E4250EF50EE4350DF50DE50C69
:1011A70034FF121C65E516250AF50AE5153509F51C
:1011B70009C3E5109516F510E50F9515F50F755050
:1011C70002E4F50EF50DF50CF50B0212D17FFF7E4B
:1011D700FF7D027C00AB14AA13A912A811D3120930
:1011E700E950317FFF7EFF7D017C00AB0EAA0DA980
:1011F7000CA80B1209E9401C755002E4250EF50EE8
:10120700E4350DF50DE50C34FEF50CE50B34FFF573
:101217000B0212D17FFF7EFF7D027C00AB14AA1365
:10122700A912A811D31209E9405C7FFF7EFF7D0256
:101237007C00AB0EAA0DA90CA80BD31209E95046E6
:10124700755002C3E4950EF516E4950DF515E425E2
:101257000EF50EE4350DF50DE50C34FE121C65E5B3
:1012670016250AF50AE5153509F509C3E51095169A
:10127700F510E50F9515F50F755003E4F50EF50D0F
:10128700F50CF50B80447FFF7EFF7D037C00AB14DC
:10129700AA13A912A811D31209E950417FFF7EFFB3
:1012A7007D027C00AB0EAA0DA90CA80B1209E94020
:1012B7002C755003E4250EF50EE4350DF50DE50C00
:1012C70034FDF50CE50B34FFF50BAB08AA09A90AA9
:0D12D700AC0DAD0E850F1C85101D121C7D89
:0112E40022E7
:101D0700E4753B6A753A01F539F538853B51AF3BC8
:101D1700AE3AAD39AC3878081209FF8F52AF3BAEF7
:101D27003AAD39AC3878101209FF8F53AF3BAE3A52
:101D3700AD39AC3878181209FF8F547B007A0079D7
:101D4700517510007511047F00120DE7E475486A9C
:101D5700754701F546F545854851AF48AE47AD464D
:101D6700AC4578081209FF8F52AF48AE47AD46AC75
:101D77004578101209FF8F53AF48AE47AD46AC45C3
:101D870078181209FF8F547B007A0079517510007B
:0E1D97007511047F047E007D007C00020DEDBE
:101DA500E4F53FF53EF53DF53C853F51AF3FAE3E91
:101DB500AD3DAC3C78081209FF8F52AF3FAE3EAD4A
:101DC5003DAC3C78101209FF8F53AF3FAE3EAD3DA1
:101DD500AC3C78181209FF8F547B007A0079517555
:101DE50010007511047F08120DE7E4F54CF54BF56D
:101DF5004AF549854C51AF4CAE4BAD4AAC497808D4
:101E05001209FF8F52AF4CAE4BAD4AAC4978101258
:101E150009FF8F53AF4CAE4BAD4AAC497818120948
:101E2500FF8F547B007A0079517510007511047F7E
:0A1E35000C7E007D007C00020DED24
:101527007B007A007951750F007510047F007E00EB
:101537007D007C00121069AF53E4FCFDFEFBFA79D5
:1015470001F812098CC004C005C006C007AF54E4F7
:10155700FCFDFEFBFAF9780112098CD003D002D00A
:1015670001D000EF2BFFEE3AFEED39FDEC38FCA879
:1015770004A905AA06AB07E552FEE4FCFD2BFBEA2E
:101587003EFAED39F9EC38F8E4FEEB2551F53BEE80
:101597003AF53AED39F539EC38F5387B007A0079C8
:1015A70051750F007510047F04121069AF53E4FCE6
:1015B700FDFEFBFA7901F812098CC004C005C006CC
:1015C700C007AF54E4FCFDFEFBFAF9780112098C61
:1015D700D003D002D001D000EF2BFFEE3AFEED3959
:1015E700FDEC38FCA804A905AA06AB07E552FEE402
:1015F700FCFD2BFBEA3EFAED39F9EC38F8E4FEEB9B
:101607002551F548EE3AF547ED39F546EC38F545FD
:101617007B007A007951750F007510047F0812104E
:1016270069AF53E4FCFDFEFBFA7901F812098CC09F
:1016370004C005C006C007AF54E4FCFDFEFBFAF981
:10164700780112098CD003D002D001D000EF2BFF14
:10165700EE3AFEED39FDEC38FCA804A905AA06AB65
:1016670007E552FEE4FCFD2BFBEA3EFAED39F9EC07
:1016770038F8E4FEEB2551F53FEE3AF53EED39F546
:101687003DEC38F53C7B007A007951750F007510F9
:10169700047F0C121069AF53E4FCFDFEFBFA7901DD
:1016A700F812098CC004C005C006C007AF54E4FC9B
:1016B700FDFEFBFAF9780112098CD003D002D001A4
:1016C700D000EF2BFFEE3AFEED39FDEC38FCA80415
:1016D700A905AA06AB07E552FEE4FCFD2BFBEA3E93
:1016E700FAED39F9EC38F8E4FEEB2551F54CEE3A12
:0B16F700F54BED39F54AEC38F54922BF
:1019C1008F08E50864017040853B51AF3BAE3AADED
:1019D10039AC3878081209FF8F52AF3BAE3AAD39B6
:1019E100AC3878101209FF8F53AF3BAE3AAD39AC2A
:1019F1003878181209FF8F547B007A0079517510DD
:101A0100007511047F008044E50864027041854837
:101A110051AF48AE47AD46AC4578081209FF8F5229
:101A2100AF48AE47AD46AC4578101209FF8F53AFB2
:101A310048AE47AD46AC4578181209FF8F547B007C
:101A41007A0079517510007511047F04120DE7E5D4
:101A51000864037040853F51AF3FAE3EAD3DAC3CA5
:101A610078081209FF8F52AF3FAE3EAD3DAC3C78D6
:101A7100101209FF8F53AF3FAE3EAD3DAC3C78181D
:101A81001209FF8F547B007A00795175100075118E
:101A9100047F088044E50864047041854C51AF4CD3
:101AA100AE4BAD4AAC4978081209FF8F52AF4CAE2C
:101AB1004BAD4AAC4978101209FF8F53AF4CAE4B76
:101AC100AD4AAC4978181209FF8F547B007A00792E
:0D1AD100517510007511047F0C120DE722F5
:1005E000020928E86480F8E933E83360110460F018
:1005F000ED33EC337009E8FCE9FDEAFEEBFF220481
:1006000060DED3EB9FEA9EE99DE8C2E78CF0C2F77B
:1006100095F0400CE8CCF8E9CDF9EACEFAEBCFFB47
:100620001208F385D0F05804700320D5B3E80470A5
:10063000075002B2D502093292D5EC0460F7E4CC3F
:10064000C0E0C398F8603B94186008400DD0E0FB10
:1006500002090AE4FBFAC9FC8028E830E406E4C990
:10066000FBE4CAFCE830E305E4C9CACBFCE8540764
:100670006010F8C3E913F9EA13FAEB13FBEC13FC6F
:10068000D8F130F52FC3E49CFCEF9BFFEE9AFEED12
:1006900099FDD0E0FBEF4E4D4C701222DB030209B6
:1006A0002FEC2CFCEF33FFEE33FEED33FDED30E7A6
:1006B000EB02090AEF2BFFEE3AFEED39FDD0E0FB2D
:1006C00050130BBB0003020932ED13FDEE13FEEFD6
:0806D00013FFEC13FC02090A00
:1006D800EC4D6011E8497017ED33EC3304600DE41C
:1006E800FCFFFEFD22E933E8330470F80209281202
:1006F80008F358046009E4CC248150062850090204
:10070800093228400302092FC0E0EB4A7044B9803F
:1007180006D0E0FB02091EEF4E701CBD8008EBFFFF
:10072800EAFEE9FD80EBE98DF0A4FEE5F00207C1E1
:10073800E9CDF9EAFEEBFFEF89F0A4FCE5F0CE89FC
:10074800F0A42EFFE435F0CD89F0A42DFEE435F0B9
:100758008067EF4E7005BD80D780C3EF8BF0A4ACE7
:10076800F0EE8BF0A42CFCE435F0F8EF8AF0A42C22
:10077800E5F038FCE433CB8DF0A42CFCE5F03BF835
:10078800EE8AF0A42CFCE5F038F8E433CF89F0A425
:100798002CFCE5F038CF3400CE89F0A42FFFE5F02B
:1007A8003EFEE433C98DF0A42EFEE5F039CD8AF083
:1007B800A42FFFE5F03EFEE43DFD33D0E0FB5007FB
:1007C8000BBB000F020932EC2CFCEF33FFEE33FEBB
:0607D800ED33FD02090AE9
:1007DE00020932EC5D046005E85904700302092831
:1007EE001208F3580460F6EC4860F2EC7004FDFE5B
:1007FE00FF22C860DB2481C85009C39860025006EE
:10080E0002092F9850CAF582E9294B4A7005AB822E
:10081E0002091E75F0007C1A7880C3EF9BEE9AEDEC
:10082E0099400DC3EF9BFFEE9AFEED99FDE842F065
:10083E00DC23ACF0D0E0FFD0E0FED0E0FDAB8220B8
:10084E00E7101BEB60BAEC2CFCEF33FFEE33FEED42
:10085E0033FD02090AE803F830E705C0F075F00031
:10086E00EF2FFFEE33FEED33FD40B830E7C280AA26
:10087E0075F020800E75F010800575F0087D007EF5
:10088E00007F003392D530D5031209DBEC334010D4
:10089E00EF33FFEE33FEED33FDEC33FCD5F0ED22FE
:0E08AE00E5F0247EA2D513CC92E7CDCEFF223A
:1008BC00EDD2E7CD33EC3392D524814006E4FFFE34
:1008CC00FDFC22FCE4CFCECDCC24E0501174FF8093
:1008DC00EDC3CC13CCCD13CDCE13CECF13CF047030
:0708EC00F030D5DE0209DB4C
:1008F300E9D2E7C933E833F892D5EDD2E7CD33EC4B
:0709030033FC5002B2D522C3
:10090A00EC30E7100FBF000C0EBE00080DBD00044E
:10091A000BEB6014A2D5EB13FCED92E7FD2274FFFA
:10092A00FCFDFEFF22E480F8A2D574FF13FC7D8053
:03093A00E480EF67
:101EE300020046E493A3F8E493A34003F68001F2CF
:101EF30008DFF48029E493A3F85407240CC8C33300
:101F0300C4540F4420C8834004F456800146F6DFCE
:101F1300E4800B0102040810204080901702E47E45
:101F2300019360BCA3FF543F30E509541FFEE493C3
:101F3300A360010ECF54C025E060A840B8E493A38A
:101F4300FAE493A3F8E493A3C8C582C8CAC583CAB5
:101F5300F0A3C8C582C8CAC583CADFE9DEE780BE6D
:0118A1000046
:10093D00BB010CE58229F582E5833AF583E022506F
:10094D0006E92582F8E622BBFE06E92582F8E222B9
:0D095D00E58229F582E5833AF583E49322D3
:10096A00F8BB010DE58229F582E5833AF583E8F0C3
:10097A00225006E92582C8F622BBFE05E92582C86F
:02098A00F22257
:10098C00E88FF0A4CC8BF0A42CFCE98EF0A42CFC0A
:10099C008AF0EDA42CFCEA8EF0A4CDA8F08BF0A488
:1009AC002DCC3825F0FDE98FF0A42CCD35F0FCEBE7
:1009BC008EF0A4FEA9F0EB8FF0A4CFC5F02ECD39AC
:0F09CC00FEE43CFCEAA42DCE35F0FDE43CFC2219
:101FA900C2D5E830E70FB2D5E4C39BFBE49AFAE463
:101FB90099F9E498F8EC30E717B2D5121FDF120A45
:101FC9004FE4C39BFBE49AFAE499F9E498F8800397
:101FD900120A4F30D50DE4C39FFFE49EFEE49DFD38
:041FE900E49CFC2256
:0E09DB00C3E49FFFE49EFEE49DFDE49CFC222D
:1009E900EB9FF5F0EA9E42F0E99D42F0EC6480C885
:0609F90064809845F02225
:1009FF00E86010ECA2E713FCED13FDEE13FEEF130E
:040A0F00FFD8F022FA
:100A130075F008758200EF2FFFEE33FECD33CDCC9A
:100A230033CCC58233C5829BED9AEC99E58298401D
:100A33000CF582EE9BFEED9AFDEC99FC0FD5F0D6FA
:100A4300E4CEFBE4CDFAE4CCF9A88222B800C1B924
:100A53000059BA002DEC8BF084CFCECDFCE5F0CB62
:100A6300F97818EF2FFFEE33FEED33FDEC33FCEB9B
:100A730033FB10D703994004EB99FB0FD8E5E4F956
:100A8300FA227818EF2FFFEE33FEED33FDEC33FC43
:100A9300C933C910D7059BE99A4007EC9BFCE99A37
:100AA300F90FD8E0E4C9FAE4CCFB2275F010EF2F7C
:100AB300FFEE33FEED33FDCC33CCC833C810D7077C
:100AC3009BEC9AE899400AED9BFDEC9AFCE899F8B7
:0E0AD3000FD5F0DAE4CDFBE4CCFAE4C8F9224A
:00000001FF
