:03000000021FD408
:0C1FD400787FE4F6D8FD75815602201BD2
:1017C100013700013300013500013200012F00040F
:1017D1004100000000012E00015000013600014DC2
:1017E10000014000013400015100616A0000000065
:1017F10000000000000000000000000000000000E8
:1018010000000000000000000000000000000000D7
:1018110000000000000000000000000000000000C7
:1018210000000000000000000000000000000000B7
:1018310000000000000000000000000000000000A7
:101841000000000000000000000000000000000097
:101851000000000000000000000000000000000087
:101861000000000000000000000000000000000077
:101871000000000000000000000000000000000067
:101881000000000000000000000000000000000057
:101891000000000000000000000000000000000047
:1018A1000000000000000000000000000000000037
:1018B1000000000000000000000000000000000027
:1018C1000000000000000000000000000000000017
:1018D1000000000000000000000000000000000007
:1018E10000000000000000000000000000000000F7
:1018F10000000000000000000000000000000000E7
:1019010000000000000000000000000000000000D6
:1019110000000000000000000000000000000000C6
:1019210000000000000000000000000000000000B6
:1019310000000000000000000000000000000000A6
:101941000000000000000000000000000000000096
:10195100000000000000000002300000024E000004
:10004600C2AFA295B39295C290D2B6D2B7D2C0E44F
:10005600F5321222B31222A11215E6E47B6A7A0166
:10006600F9F8AF3BAE3AAD39AC381220A6AC00ADCC
:1000760001AE02AF03EC4D4E4F600302010B7B6AEB
:100086007A01F9F8AF3FAE3EAD3DAC3C1220A6ACCE
:1000960000AD01AE02AF03EC4D4E4F7068C3E53BB9
:1000A600953FFFE53A953EFEE539953DFDE53895E8
:1000B6003CFCE47B6A7A01F9F8C3120A366046AF63
:1000C6003BAE3AAD39AC38AB3FAA3EA93DA83CC3DE
:1000D600120A36401AE53B2496F53FE53A34FEF51A
:1000E6003EE53934FFF53DE53834FFF53C8016E54D
:1000F6003F246AF53BE53E3401F53AE4353DF539F2
:10010600E4353CF538E47B6A7A01F9F8AF48AE4746
:10011600AD46AC451220A6AC00AD01AE02AF03EC75
:100126004D4E4F60030201B57B6A7A01F9F8AF4C78
:10013600AE4BAD4AAC491220A6AC00AD01AE02AF43
:1001460003EC4D4E4F7068C3E548954CFFE5479567
:100156004BFEE546954AFDE5459549FCE47B6A7A02
:1001660001F9F8C3120A366046AF48AE47AD46AC51
:1001760045AB4CAA4BA94AA849C3120A36401AE510
:10018600482496F54CE54734FEF54BE54634FFF535
:100196004AE54534FFF5498016E54C246AF548E5FD
:1001A6004B3401F547E4354AF546E43549F545E46F
:1001B6007B6A7A01F9F8AF3BAE3AAD39AC3812201A
:1001C600A6AC00AD01AE02AF03EC4D4E4F6036E477
:1001D6007B6A7A01F9F8AF3FAE3EAD3DAC3C1220EA
:1001E600A6AC00AD01AE02AF03EC4D4E4F7016E566
:1001F6003F246AF53BE53E3401F53AE4353DF539F1
:10020600E4353CF538E47B6A7A01F9F8AF3BAE3A5F
:10021600AD39AC381220A6AC00AD01AE02AF03EC8E
:100226004D4E4F70377B6A7A01F9F8AF3FAE3EAD5F
:100236003DAC3C1220A6AC00AD01AE02AF03EC4DC6
:100246004E4F6018E53B2496F53FE53A34FEF53E01
:10025600E53934FFF53DE53834FFF53CE47B6A7A51
:1002660001F9F8AF48AE47AD46AC451220A6AC0042
:10027600AD01AE02AF03EC4D4E4F6036E47B6A7AB9
:1002860001F9F8AF4CAE4BAD4AAC491220A6AC0012
:10029600AD01AE02AF03EC4D4E4F7016E54C246A2D
:1002A600F548E54B3401F547E4354AF546E435496A
:1002B600F545E47B6A7A01F9F8AF48AE47AD46AC3E
:1002C600451220A6AC00AD01AE02AF03EC4D4E4F79
:1002D60070377B6A7A01F9F8AF4CAE4BAD4AAC4940
:1002E6001220A6AC00AD01AE02AF03EC4D4E4F603E
:1002F60018E5482496F54CE54734FEF54BE54634BB
:10030600FFF54AE54534FFF549E47B6A7A01F9F8D9
:10031600AF3BAE3AAD39AC381220A6AC00AD01AE5B
:1003260002AF03EC4D4E4F6020E47B6A7A01F9F888
:10033600AF3FAE3EAD3DAC3C1220A6AC00AD01AE2B
:1003460002AF03EC4D4E4F7040E47B6A7A01F9F838
:10035600AF48AE47AD46AC451220A6AC00AD01AEE7
:1003660002AF03EC4D4E4F6026E47B6A7A01F9F842
:10037600AF4CAE4BAD4AAC491220A6AC00AD01AEB7
:1003860002AF03EC4D4E4F6006121E9C121F3A7FC1
:10039600881222E27F1E120026C2B6D2AAD2AFA2CD
:1003A60095B3929530B20FE551700B7FFA1222E2A7
:1003B6007551011222F020B227E55164017021E542
:1003C60033701D7F881222E2E4F551D3E5329401A1
:1003D60074809480400415321532E4F5371222F702
:1003E600E5506401700EF55020B2047F8880027FCC
:1003F600FA1222E2E5406401701AF540750C0175A7
:100406000D6AFFFEFDFC1213A4121E9C121F3A7FFA
:10041600851222E2AF3BAE3AAD39AC38AB48AA47BB
:10042600A946A845C3120A36701EF54D7F6A7E019D
:10043600FDFCAB3BAA3AA939A838C3120A36600BB1
:10044600121E9C121F3A8003754D01AF327E00EFDB
:100456007010E52E6401700AE54D7006E5367002EF
:10046600F52EEF4E60030204F5E52E6401600302EB
:1004760004F5E54D64017077E53670730532F52EA7
:10048600F54D7B017A007900AF48AE47AD46AC45E5
:10049600750F0175106A1211287B017A0079007DAB
:1004A6006A7C011220EAAF48AE47AD46AC45750CF2
:1004B60001750D6A1213A4E548246AF548E5473428
:1004C60001F547E43546F546E43545F5457F021224
:1004D6001AAEE54C246AF54CE54B3401F54BE43590
:1004E6004AF54AE43549F5497F04121AAE1532E554
:1004F600326003020579E52E64017077E54D6401EB
:100506007071E5366401706B7FC87EFF7D03FCABBE
:100516003BAA3AA939A838C3120A3660560532E40E
:10052600F54DF5367B017A007900AF3BAE3AAD3931
:10053600AC3875100175116A120EACE53B246AF5EC
:100546003BE53A3401F53AE43539F539E43538F521
:10055600387F01121AAEE53F246AF53FE53E3401C5
:10056600F53EE4353DF53DE4353CF53C7F03121A96
:10057600AE1532E5327025E52E6401701FE54D702B
:100586001BE536640170150532F52EF5367B017ACA
:100596000079007D6A7C011220EA1532E53260039B
:1005A6000203A5E52E60030203A5E5366401600398
:1005B6000203A5AE4EAF4FFCFD7B507AC3F9F8D3CC
:1005C600120A36400B054FE54F7002054E0203A591
:1005D6000532E4F5367B017A007900AF3BAE3AADE1
:1005E60039AC3875100175116A120EACE53B246AF8
:1005F600F53BE53A3401F53AE43539F539E4353871
:10060600F5387F01121AAEE53F246AF53FE53E3420
:1006160001F53EE4353DF53DE4353CF53C7F0312FE
:070626001AAE15320203A514
:03001300020B2EAF
:100B2E00C0E0C0F0C083C082C0D075D000C000C08D
:100B3E0001C002C003C004C005C006C007C2AFC2D8
:100B4E00AAA295B39295E537147003020D051470A1
:100B5E0003020D9E147003020DAE147003020DEC11
:100B6E00147003020E2924056003020E87C3E532BA
:100B7E00940274809480500705320532020D99E577
:100B8E003264026003020D99D2B7D2B685A02F75DA
:100B9E0030007531007E00C3748094805003020CC7
:100BAE0057D3E52F94FA748094804003020C57AC0F
:100BBE002FE41208D5E4FBFA79487843120634E4A0
:100BCE00FBFA7920784112082E8F448E438D428C89
:100BDE0041E4FBFA7980784112082E12090974005B
:100BEE002531F58274003530F583EFF07400253130
:100BFE00F58274003530F583E0F52F0531E531705F
:100C0E00020530E52F75F010A4FDACF0EC1208D003
:100C1E00A804A905AA06AB07AF44AE43AD42AC414A
:100C2E00120630E4FBFA7980784112072512090981
:100C3E0074002531F58274003530F583EFF00531FF
:100C4E00E53170020530020CFAE52F64FB703A9024
:100C5E000000E0FF74002531F58274003530F58315
:100C6E00EFF00531E53170020530900001E0FF74C0
:100C7E00002531F58274003530F583EFF00531E54E
:100C8E0031700205307FFB8028E52F64FC700F90D9
:100C9E000000F0A3F0F5307531027FFC8013E52FD4
:100CAE0064FD7012900000F0A3F0F5307531027FF4
:100CBE00FD1222E28036900000E0FF74002531F52F
:100CCE008274003530F583EFF00531E531700205A1
:100CDE0030900001E0FF74002531F582740035304C
:100CEE00F583EFF00531E53170020530753501758C
:100CFE0034000537020DE7E53164024530707BD2D2
:100D0E00B7C2B6E535700705377F14120026E535F4
:100D1E006401701EC3E534941474809480500405ED
:100D2E003480057FFE1222E27FC112223A7F011229
:100D3E000026E5356402701EC3E534941474809465
:100D4E00805004053480057FFE1222E27FC21222FB
:100D5E003A7F01120026E53564036003020E87C355
:100D6E00E5349414748094805004053480057FFE1D
:100D7E001222E27FC312223A8011C2B7D2B6753068
:100D8E0000753100753700153215327F01020E8461
:100D9E00D2B7C2B67FCA12223A05377F04020E843A
:100DAE00E531647A45307010D2B7C2B67FCB1222CD
:100DBE003A05377F04020E84C2B7D2B6753000757D
:100DCE003102753702C3E534941474809480500454
:100DDE00053480057FFE1222E27F02020E84E53189
:100DEE0064F245307010D2B7C2B67FCC12223A05EB
:100DFE00377F04020E84C2B7D2B675300075317AD1
:100E0E00753703C3E534941474809480500405340C
:100E1E0080057FFE1222E27F02805BE531646A70FC
:100E2E0004E5306401702CD2B7D2B615321532F506
:100E3E0037753601F52E7F881222E2754E00754FFA
:100E4E00007580947F887E131222037580FF122214
:100E5E00888026C2B7D2B67530007531F275370468
:100E6E00C3E5349414748094805004053480057F57
:100E7E00FE1222E27F02120026D2AAD2AFD007D0F3
:100E8E0006D005D004D003D002D001D000D0D0D0EF
:080E9E0082D083D0F0D0E032D5
:030023000219655A
:10196500C0E0C0F0C083C082C0D075D000C000C048
:0D19750001C002C003C004C005C006C007C9
:10198200752DFFC2AFA295B39295209803021A8FCC
:10199200C29885992DAF2D7E00C3EF940174809477
:1019A20080400CD3EF943C7480948050028045AF09
:1019B2002D7E00C3EF943D74809480402FD3EF942A
:1019C20078748094805025E5336401701F12223AA6
:1019D200C2AC7F607EEA1222037F607EEA1222039B
:1019E2007F607EEA122203D2AC021A8AE52D64805D
:1019F2007014AF2D12223A7F057E00122203AF2D02
:101A020012223A021A8AE52D648270081222F075B7
:101A120033018074E52D6483701D20B2031222F716
:101A2200D3E53294017480948040041532153275E6
:101A320033007537008051AF2D7E00EF648B700448
:101A4200C2C08044EF648A4E7004D2C0803AEF6410
:101A5200844E7005752E01802FEF64854E700575DA
:101A620040018024EF64884E70057550018019C3CF
:101A7200EF9496EE648094804015D3EF94FAEE646E
:101A8200809480500A852D80752DFF8002C299D2E4
:011A9200AFA4
:101A9300D007D006D005D004D003D002D001D000A7
:0B1AA300D0D0D082D083D0F0D0E03251
:03004300021CA9F3
:101CA900C0E0C0F0C083C082C0D075D000C000C001
:0D1CB90001C002C003C004C005C006C00782
:101CC600C2AFA295B39295E59A30E060539AFEAF03
:101CD6009BE5357021E533701874002531F5827463
:101CE600003530F583EFF00531E5317002053080BF
:101CF6003E1222E28039E535FD7C006401700BEF6F
:101D060064C17004F53405358025ED64024C700B12
:101D1600EF64C27004F53405358014E5356403704C
:101D26000EEF64C37004F534F5358003539AFDD283
:011D3600AFFD
:101D3700D007D006D005D004D003D002D001D00000
:0B1D4700D0D0D082D083D0F0D0E032AA
:0F22C400C2AFD2B5D2B40000C2B50000C2B4227E
:0F22D300C2B50000D2B40000D2B50000D2AF22D5
:10226F007F14D2B50000D2B4000030B507DFFB12E7
:08227F0022D380F6C2B4000076
:012287002234
:1021AE00E4FEEEC39408748094805017EF30E70479
:1021BE00D2B58002C2B5EF25E0FFD2B40000C2B4A2
:0621CE000E80DF02226F0B
:09221A007F0F1222237D017F01D8
:10222300AC071222C47FA21221AEAF041221AEAFBB
:07223300051221AE0222D3C7
:102288007D20E4FF1222237D837F0E1222237D0A04
:0922980012221AE41DFF022223A8
:10002600AB077D20E4FF1222237D827F0E1222235E
:0B003600AD0312221AE41DFF0222237A
:0722F0007D20E4FF02222320
:0622F700E4FDFF022223BA
:1022B300759850759CE8758E11E4F587D2AFD2AC52
:0122C30022F8
:1022A100759A50759CE8758E1175A210D2AF75AFF5
:0222B100012208
:0E22E200C2ACC2998F993099FDC299D2AC223C
:10223A00E4F5AFD290539AFD8F9BAE9A530602EE05
:0A224A0060F8539AFDC29075AF01D1
:012254002267
:0A20EA008B088A09890A8C0B8D0C03
:1020F400E4FDFCA295B39295AB08AA09A90A8D82C6
:102104008C8312098AFF1222E20DBD00010CC3ED7B
:0D211400950CE50B6480F8EC64809840D6D3
:01212100229B
:08001600A0A2A4A6A1A3A5A7C6
:0319610001520030
:0B21F800C2947F147E00122203D293D9
:10220300E4FDFCC3ED9FEC9E500CA295B392950D9B
:06221300BD00010C80ED8E
:0122190022A2
:10225500C2AFC2937F147E00122203D2941221FED4
:0A226500C294122203C29302220366
:100003001221F8D294122203C293122203D2AF22F6
:10218600AF04A9071222557F147E00122203E552DE
:1021960090001693FF1221D41221A6AF011221D46A
:0821A600D2941221FAC2932227
:0622FD001221F8C2932239
:1021D4007B08AA07A295B39295EA548064807004A0
:1021E400D2948002C2941221FAC293EA25E0FADB67
:0421F400E3022203DD
:10215500E4FBFAEAC39408748094805021A295B3F5
:102165009295D2941221FAEB25E0FB3094010B7F76
:10217500147E00122203C2931222030A80D5AF03F4
:012185002237
:062060008B258A2689276A
:102066008D2B122186AF2B1221D41221A6E4F52C3A
:10207600E52CC3952A501FA295B39295AB25AA26A7
:10208600A927852C8275830012098AFF1221D41292
:1020960021A6052C80DA1200037F207E4E02220341
:022122008D1E10
:102124008F1FAF06122188AF1F1221D41221A6E4FB
:10213400F9E9C3951E5010A295B39295E4FF1221BC
:10214400D41221A60980EA1200037F207E4E0222C7
:012154000387
:101BCA00F50DE50C34FFF50CAB09AA0AA90BAC0E0E
:081BDA00AD0F85161D85171ED5
:0A1BE2008B188A19891A8C1B8D1CC0
:101BEC00752300E51C547FF524C374809524F524DB
:101BFC00E49523F523D3E51E9524E51D9523500389
:101C0C00021C9885242A122060C3E51E9524F51E1B
:101C1C00E51D9523F51DE524251CF51CE523351B39
:101C2C00F51BE524251AF51AE5233519F519AE1D12
:101C3C00E51E7807CEC313CE13D8F9F5228E21E515
:101C4C001E547FF520E4F51FC3E51F9522E4952172
:101C5C00502FA295B39295AB18AA19A91A752A8080
:101C6C00AD1CAC1B1220607480251CF51CE4351BCC
:101C7C00F51B7480251AF51AE43519F519051F8022
:101C8C00C7AB18AA19A91A85202A8009AB18AA195A
:0C1C9C00A91A851E2AAD1CAC1B1220608A
:011CA8002219
:101D5200F509E50834FFF508AE0AAF0BAD13AC1276
:081D62008E148F158C168D17ED
:101D6A00E515547FF519C374809519F519FFD3E564
:101D7A00179FE5169400406EAD19AF15122122AFD8
:101D8A00197E00C3E5179FF517E5169EF516EF2590
:101D9A0015F515EE3514F514AE16E5177807CEC30A
:101DAA0013CE13D8F9F51B8E1AE517547FF518E4EC
:101DBA00F51CF51DC3E51D951BE51C951A5023A2BC
:101DCA0095B392957D80AF15AE14122122748025A9
:101DDA0015F515E43514F514051DE51D70D6051C19
:0F1DEA0080D2AD188002AD17AF15AE14122122B2
:011DF90022C7
:101DFA00F50CE50B34FFF50BAB08AA09A90AAC0DE3
:081E0A00AD0E85151C85161DA7
:101E1200E4F51FF5208B218A2289238D1E1221864B
:101E2200AF1E1221D41221A6122255E55290001A99
:101E320093FF1221D41221A6E4F51FF520E51D24FB
:101E4200FFFFE51C34FFFEC3E5209FE51F9E5025E2
:101E5200A295B39295122155AB21AA22A9238520DE
:101E620082851F83EF1209B71222FD0520E520703B
:101E7200CC051F80C8E51D24FFF520E51C34FFF5C5
:101E82001F122155AB21AA22A923852082851F83F7
:0A1E9200EF1209B71221A6020003A7
:060EA6007E007D007C00CF
:0E0EAC008B098A0A890B8F0F8E0E8D0D8C0C10
:100EBA00E511250FF515E510350EF514E4350DF598
:100ECA0013E4350CF512E4F516F5177FFF7EFFFDE6
:100EDA00FCAB15AA14A913A812D3120A365006E4B9
:100EEA00F552021114E47FFF7EFFFDFCAB15AA1434
:100EFA00A913A812D3120A36405AE47FFF7EFFFDD7
:100F0A00FCAB0FAA0EA90DA80CD3120A365045E461
:100F1A00F552AC0EAD0FC39DF517E49CF516AB095F
:100F2A00AA0AA90BF51D85171E121BE2E517250B48
:100F3A00F50BE516350AF50AC3E5119517F511E51E
:100F4A00109516F510755201E4F50FF50EF50DF52D
:100F5A000C0211147FFF7EFF7D017C00AB15AA14E1
:100F6A00A913A812D3120A365030E47FFF7EFFFD80
:100F7A00FCAB0FAA0EA90DA80C120A36401C75521A
:100F8A0001E4250FF50FE4350EF50EE50D34FFF5F6
:100F9A000DE50C34FFF50C0211147FFF7EFF7D0175
:100FAA007C00AB15AA14A913A812D3120A36405D05
:100FBA007FFF7EFF7D017C00AB0FAA0EA90DA80C56
:100FCA00D3120A365047755201C3E4950FF517E458
:100FDA00950EF516E4250FF50FE4350EF50EE50D21
:100FEA0034FF121BCAE517250BF50BE516350AF572
:100FFA000AC3E5119517F511E5109516F510755206
:10100A0002E4F50FF50EF50DF50C0211147FFF7EC3
:10101A00FF7D027C00AB15AA14A913A812D3120AE9
:10102A003650317FFF7EFF7D017C00AB0FAA0EA9EF
:10103A000DA80C120A36401C755202E4250FF50F52
:10104A00E4350EF50EE50D34FEF50DE50C34FFF52D
:10105A000C0211147FFF7EFF7D027C00AB15AA14DF
:10106A00A913A812D3120A36405C7FFF7EFF7D02C5
:10107A007C00AB0FAA0EA90DA80CD3120A36504653
:10108A00755202C3E4950FF517E4950EF516E4259B
:10109A000FF50FE4350EF50EE50D34FE121BCAE509
:1010AA0017250BF50BE516350AF50AC3E511951751
:1010BA00F511E5109516F510755203E4F50FF50EC6
:1010CA00F50DF50C80447FFF7EFF7D037C00AB1598
:1010DA00AA14A913A812D3120A3650417FFF7EFF21
:1010EA007D027C00AB0FAA0EA90DA80C120A36408D
:1010FA002C755203E4250FF50FE4350EF50EE50DB8
:10110A0034FDF50DE50C34FFF50CAB09AA0AA90B61
:0D111A00AC0EAD0F85101D85111E121BE2DD
:0111270022A5
:0813A4008F0B8E0A8D098C08E5
:1013AC00E50D250BF511E50C350AF510E43509F5BD
:1013BC000FE43508F50EE4F512F5137FFF7EFFFD03
:1013CC00FCAB11AA10A90FA80ED3120A365006E4D2
:1013DC00F5520215DAE47FFF7EFFFDFCAB11AA107B
:1013EC00A90FA80ED3120A364046E47FFF7EFFFDFC
:1013FC00FCAB0BAA0AA909A808D3120A365031E48F
:10140C00F552AE0AAF0BC39FF513E49EF512AD1364
:10141C00FC121D62C3E50D9513F50DE50C9512F547
:10142C000C755201E4F50BF50AF509F5080215DA0D
:10143C007FFF7EFF7D017C00AB11AA10A90FA80EC7
:10144C00D3120A365030E47FFF7EFFFDFCAB0BAAB3
:10145C000AA909A808120A36401C755201E4250B8A
:10146C00F50BE4350AF50AE50934FFF509E508340E
:10147C00FFF5080215DA7FFF7EFF7D017C00AB11C2
:10148C00AA10A90FA80ED3120A3640517FFF7EFF77
:10149C007D017C00AB0BAA0AA909A808D3120A3655
:1014AC00503B755201C3E4950BF513E4950AF51204
:1014BC00E4250BF50BE4350AF50AE50934FF121D9A
:1014CC0052C3E50D9513F50DE50C9512F50C7552FF
:1014DC0002E4F50BF50AF509F5080215DA7FFF7E33
:1014EC00FF7D027C00AB11AA10A90FA80ED3120A23
:1014FC003650317FFF7EFF7D017C00AB0BAA0AA921
:10150C0009A808120A36401C755202E4250BF50B8B
:10151C00E4350AF50AE50934FEF509E50834FFF56A
:10152C00080215DA7FFF7EFF7D027C00AB11AA104A
:10153C00A90FA80ED3120A3640507FFF7EFF7D0202
:10154C007C00AB0BAA0AA909A808D3120A36503A98
:10155C00755202C3E4950BF513E4950AF512E425D4
:10156C000BF50BE4350AF50AE50934FE121D52C3DE
:10157C00E50D9513F50DE50C9512F50C755203E47C
:10158C00F50BF50AF509F50880447FFF7EFF7D0316
:10159C007C00AB11AA10A90FA80ED3120A36503931
:1015AC007FFF7EFF7D027C00AB0BAA0AA909A8086D
:1015BC00120A364024755203E4250BF50BE4350A68
:1015CC00F50AE50934FDF509E50834FFF508AE0A1E
:0915DC00AF0BAD0DAC0C121D6249
:0115E50022E3
:0E1128008B088A09890A8F0E8E0D8D0C8C0B98
:10113600E510250EF514E50F350DF513E4350CF520
:1011460012E4350BF511E4F515F5167FFF7EFFFD6C
:10115600FCAB14AA13A912A811D3120A365006E43E
:10116600F552021390E47FFF7EFFFDFCAB14AA1339
:10117600A912A811D3120A36405AE47FFF7EFFFD5A
:10118600FCAB0EAA0DA90CA80BD3120A365045E4E7
:10119600F552AC0DAD0EC39DF516E49CF515AB08E6
:1011A600AA09A90AF51C85161D121E12E516250A9E
:1011B600F50AE5153509F509C3E5109516F510E5A7
:1011C6000F9515F50F755201E4F50EF50DF50CF5B5
:1011D6000B0213907FFF7EFF7D017C00AB14AA13E8
:1011E600A912A811D3120A365030E47FFF7EFFFD04
:1011F600FCAB0EAA0DA90CA80B120A36401C7552A0
:1012060001E4250EF50EE4350DF50DE50C34FFF57C
:101216000CE50B34FFF50B0213907FFF7EFF7D017B
:101226007C00AB14AA13A912A811D3120A36405D8A
:101236007FFF7EFF7D017C00AB0EAA0DA90CA80BDB
:10124600D3120A365047755201C3E4950EF516E4DB
:10125600950DF515E4250EF50EE4350DF50DE50CA9
:1012660034FF121DFAE516250AF50AE5153509F5C6
:1012760009C3E5109516F510E50F9515F50F75528E
:1012860002E4F50EF50DF50CF50B0213907FFF7ECB
:10129600FF7D027C00AB14AA13A912A811D3120A6F
:1012A6003650317FFF7EFF7D017C00AB0EAA0DA973
:1012B6000CA80B120A36401C755202E4250EF50ED8
:1012C600E4350DF50DE50C34FEF50CE50B34FFF5B4
:1012D6000B0213907FFF7EFF7D027C00AB14AA13E6
:1012E600A912A811D3120A36405C7FFF7EFF7D0249
:1012F6007C00AB0EAA0DA90CA80BD3120A365046D9
:10130600755202C3E4950EF516E4950DF515E42520
:101316000EF50EE4350DF50DE50C34FE121DFAE55D
:1013260016250AF50AE5153509F509C3E5109516DA
:10133600F510E50F9515F50F755203E4F50EF50D4D
:10134600F50CF50B80447FFF7EFF7D037C00AB141C
:10135600AA13A912A811D3120A3650417FFF7EFFA5
:101366007D027C00AB0EAA0DA90CA80B120A364012
:101376002C755203E4250EF50EE4350DF50DE50C3E
:1013860034FDF50CE50B34FFF50BAB08AA09A90AE9
:0D139600AC0DAD0E850F1C85101D121E1232
:0113A3002227
:101E9C00E4753B6A753A01F539F538853B53AF3B30
:101EAC00AE3AAD39AC387808120A4C8F54AF3BAE11
:101EBC003AAD39AC387810120A4C8F55AF3BAE3A6C
:101ECC00AD39AC387818120A4C8F567B007A0079F1
:101EDC00537510007511047F00120EA6E475486A44
:101EEC00754701F546F545854853AF48AE47AD46B5
:101EFC00AC457808120A4C8F54AF48AE47AD46AC8F
:101F0C00457810120A4C8F55AF48AE47AD46AC45DC
:101F1C007818120A4C8F567B007A00795375100092
:0E1F2C007511047F047E007D007C00020EAC67
:101F3A00E4F53FF53EF53DF53C853F53AF3FAE3EF8
:101F4A00AD3DAC3C7808120A4C8F54AF3FAE3EAD63
:101F5A003DAC3C7810120A4C8F55AF3FAE3EAD3DBA
:101F6A00AC3C7818120A4C8F567B007A007953756C
:101F7A0010007511047F08120EA6E4F54CF54BF516
:101F8A004AF549854C53AF4CAE4BAD4AAC4978083B
:101F9A00120A4C8F54AF4CAE4BAD4AAC4978101272
:101FAA000A4C8F55AF4CAE4BAD4AAC497818120A61
:101FBA004C8F567B007A0079537510007511047F97
:0A1FCA000C7E007D007C00020EACCE
:1015E6007B007A007953750F007510047F007E002A
:1015F6007D007C00121128AF55E4FCFDFEFBFA7954
:1016060001F81209D9C004C005C006C007AF56E4E8
:10161600FCFDFEFBFAF978011209D9D003D002D0FD
:1016260001D000EF2BFFEE3AFEED39FDEC38FCA8B9
:1016360004A905AA06AB07E554FEE4FCFD2BFBEA6C
:101646003EFAED39F9EC38F8E4FEEB2553F53BEEBE
:101656003AF53AED39F539EC38F5387B007A007908
:1016660053750F007510047F04121128AF55E4FC62
:10167600FDFEFBFA7901F81209D9C004C005C006BF
:10168600C007AF56E4FCFDFEFBFAF978011209D952
:10169600D003D002D001D000EF2BFFEE3AFEED3999
:1016A600FDEC38FCA804A905AA06AB07E554FEE440
:1016B600FCFD2BFBEA3EFAED39F9EC38F8E4FEEBDB
:1016C6002553F548EE3AF547ED39F546EC38F5453C
:1016D6007B007A007953750F007510047F0812118C
:1016E60028AF55E4FCFDFEFBFA7901F81209D9C0D2
:1016F60004C005C006C007AF56E4FCFDFEFBFAF9C0
:1017060078011209D9D003D002D001D000EF2BFF07
:10171600EE3AFEED39FDEC38FCA804A905AA06ABA5
:1017260007E554FEE4FCFD2BFBEA3EFAED39F9EC45
:1017360038F8E4FEEB2553F53FEE3AF53EED39F584
:101746003DEC38F53C7B007A007953750F00751037
:10175600047F0C121128AF55E4FCFDFEFBFA79015B
:10176600F81209D9C004C005C006C007AF56E4FC8C
:10177600FDFEFBFAF978011209D9D003D002D00197
:10178600D000EF2BFFEE3AFEED39FDEC38FCA80455
:10179600A905AA06AB07E554FEE4FCFD2BFBEA3ED1
:1017A600FAED39F9EC38F8E4FEEB2553F54CEE3A50
:0B17B600F54BED39F54AEC38F54922FF
:101AAE008F08EF64017040853B53AF3BAE3AAD39C2
:101ABE00AC387808120A4C8F54AF3BAE3AAD39AC05
:101ACE00387810120A4C8F55AF3BAE3AAD39AC3860
:101ADE007818120A4C8F567B007A007953751000D5
:101AEE007511047F008044E50864027041854853F7
:101AFE00AF48AE47AD46AC457808120A4C8F54AF8E
:101B0E0048AE47AD46AC457810120A4C8F55AF48DB
:101B1E00AE47AD46AC457818120A4C8F567B007A0C
:101B2E000079537510007511047F04120EA6E50896
:101B3E0064037040853F53AF3FAE3EAD3DAC3C7845
:101B4E0008120A4C8F54AF3FAE3EAD3DAC3C781000
:101B5E00120A4C8F55AF3FAE3EAD3DAC3C781812DD
:101B6E000A4C8F567B007A0079537510007511045C
:101B7E007F088044E50864047041854C53AF4CAE39
:101B8E004BAD4AAC497808120A4C8F54AF4CAE4B51
:101B9E00AD4AAC497810120A4C8F55AF4CAE4BADD6
:101BAE004AAC497818120A4C8F567B007A0079534A
:0C1BBE007510007511047F0C120EA62299
:10062D00020975E86480F8E933E83360110460F07D
:10063D00ED33EC337009E8FCE9FDEAFEEBFF220433
:10064D0060DED3EB9FEA9EE99DE8C2E78CF0C2F72E
:10065D0095F0400CE8CCF8E9CDF9EACEFAEBCFFBFA
:10066D0012094085D0F05804700320D5B3E804700A
:10067D00075002B2D502097F92D5EC0460F7E4CCA5
:10068D00C0E0C398F8603B94186008400DD0E0FBC3
:10069D00020957E4FBFAC9FC8028E830E406E4C9F6
:1006AD00FBE4CAFCE830E305E4C9CACBFCE8540717
:1006BD006010F8C3E913F9EA13FAEB13FBEC13FC22
:1006CD00D8F130F52FC3E49CFCEF9BFFEE9AFEEDC5
:1006DD0099FDD0E0FBEF4E4D4C701222DB03020969
:1006ED007CEC2CFCEF33FFEE33FEED33FDED30E70C
:1006FD00EB020957EF2BFFEE3AFEED39FDD0E0FB93
:10070D0050130BBB000302097FED13FDEE13FEEF3B
:08071D0013FFEC13FC02095765
:10072500EC4D6011E8497017ED33EC3304600DE4CE
:10073500FCFFFEFD22E933E8330470F80209751267
:10074500094058046009E4CC248150062850090268
:10075500097F28400302097CC0E0EB4A7044B98058
:1007650006D0E0FB02096BEF4E701CBD8008EBFF65
:10077500EAFEE9FD80EBE98DF0A4FEE5F002080E46
:10078500E9CDF9EAFEEBFFEF89F0A4FCE5F0CE89AF
:10079500F0A42EFFE435F0CD89F0A42DFEE435F06C
:1007A5008067EF4E7005BD80D780C3EF8BF0A4AC9A
:1007B500F0EE8BF0A42CFCE435F0F8EF8AF0A42CD5
:1007C500E5F038FCE433CB8DF0A42CFCE5F03BF8E8
:1007D500EE8AF0A42CFCE5F038F8E433CF89F0A4D8
:1007E5002CFCE5F038CF3400CE89F0A42FFFE5F0DE
:1007F5003EFEE433C98DF0A42EFEE5F039CD8AF036
:10080500A42FFFE5F03EFEE43DFD33D0E0FB5007AD
:100815000BBB000F02097FEC2CFCEF33FFEE33FE20
:06082500ED33FD0209574E
:10082B0002097FEC5D046005E85904700302097549
:10083B00120940580460F6EC4860F2EC7004FDFEBF
:10084B00FF22C860DB2481C85009C39860025006A0
:10085B0002097C9850CAF582E9294B4A7005AB8294
:10086B0002096B75F0007C1A7880C3EF9BEE9AED52
:10087B0099400DC3EF9BFFEE9AFEED99FDE842F018
:10088B00DC23ACF0D0E0FFD0E0FED0E0FDAB82206B
:10089B00E7101BEB60BAEC2CFCEF33FFEE33FEEDF5
:1008AB0033FD020957E803F830E705C0F075F00097
:1008BB00EF2FFFEE33FEED33FD40B830E7C280AAD9
:1008CB0075F020800E75F010800575F0087D007EA8
:1008DB00007F003392D530D503120A28EC33401039
:1008EB00EF33FFEE33FEED33FDEC33FCD5F0ED22B1
:0E08FB00E5F0247EA2D513CC92E7CDCEFF22ED
:10090900EDD2E7CD33EC3392D524814006E4FFFEE6
:10091900FDFC22FCE4CFCECDCC24E0501174FF8045
:10092900EDC3CC13CCCD13CDCE13CECF13CF0470E2
:07093900F030D5DE020A28B0
:10094000E9D2E7C933E833F892D5EDD2E7CD33ECFD
:0709500033FC5002B2D52276
:10095700EC30E7100FBF000C0EBE00080DBD000401
:100967000BEB6014A2D5EB13FCED92E7FD2274FFAD
:10097700FCFDFEFF22E480F8A2D574FF13FC7D8006
:03098700E480EF1A
:101FE000020046E493A3F8E493A34003F68001F2D1
:101FF00008DFF48029E493A3F85407240CC8C33302
:10200000C4540F4420C8834004F456800146F6DFD0
:10201000E4800B01020408102040809017C1E47E88
:10202000019360BCA3FF543F30E509541FFEE493C5
:10203000A360010ECF54C025E060A840B8E493A38C
:10204000FAE493A3F8E493A3C8C582C8CAC583CAB7
:10205000F0A3C8C582C8CAC583CADFE9DEE780BE6F
:011964000082
:10098A00BB010CE58229F582E5833AF583E0225022
:10099A0006E92582F8E622BBFE06E92582F8E2226C
:0D09AA00E58229F582E5833AF583E4932286
:1009B700F8BB010DE58229F582E5833AF583E8F076
:1009C700225006E92582C8F622BBFE05E92582C822
:0209D700F2220A
:1009D900E88FF0A4CC8BF0A42CFCE98EF0A42CFCBD
:1009E9008AF0EDA42CFCEA8EF0A4CDA8F08BF0A43B
:1009F9002DCC3825F0FDE98FF0A42CCD35F0FCEB9A
:100A09008EF0A4FEA9F0EB8FF0A4CFC5F02ECD395E
:0F0A1900FEE43CFCEAA42DCE35F0FDE43CFC22CB
:1020A600C2D5E830E70FB2D5E4C39BFBE49AFAE465
:1020B60099F9E498F8EC30E717B2D51220DC120A49
:1020C6009CE4C39BFBE49AFAE499F9E498F880034C
:1020D600120A9C30D50DE4C39FFFE49EFEE49DFDED
:0420E600E49CFC2258
:0E0A2800C3E49FFFE49EFEE49DFDE49CFC22DF
:100A3600EB9FF5F0EA9E42F0E99D42F0EC6480C837
:060A460064809845F022D7
:100A4C00E86010ECA2E713FCED13FDEE13FEEF13C0
:040A5C00FFD8F022AD
:100A600075F008758200EF2FFFEE33FECD33CDCC4D
:100A700033CCC58233C5829BED9AEC99E5829840D0
:100A80000CF582EE9BFEED9AFDEC99FC0FD5F0D6AD
:100A9000E4CEFBE4CDFAE4CCF9A88222B800C1B9D7
:100AA0000059BA002DEC8BF084CFCECDFCE5F0CB15
:100AB000F97818EF2FFFEE33FEED33FDEC33FCEB4E
:100AC00033FB10D703994004EB99FB0FD8E5E4F909
:100AD000FA227818EF2FFFEE33FEED33FDEC33FCF6
:100AE000C933C910D7059BE99A4007EC9BFCE99AEA
:100AF000F90FD8E0E4C9FAE4CCFB2275F010EF2F2F
:100B0000FFEE33FEED33FDCC33CCC833C810D7072E
:100B10009BEC9AE899400AED9BFDEC9AFCE899F869
:0E0B20000FD5F0DAE4CDFBE4CCFAE4C8F922FC
:00000001FF
