:03000000021F7A62
:0C1F7A00787FE4F6D8FD758154021FC189
:10177100013700013300013500013200012F00045F
:101781004100000000012E00014E00013600014D14
:1017910000014000013400014F00616A00000000B7
:1017A1000000000000000000000000000000000038
:1017B1000000000000000000000000000000000028
:1017C1000000000000000000000000000000000018
:1017D1000000000000000000000000000000000008
:1017E10000000000000000000000000000000000F8
:1017F10000000000000000000000000000000000E8
:1018010000000000000000000000000000000000D7
:1018110000000000000000000000000000000000C7
:1018210000000000000000000000000000000000B7
:1018310000000000000000000000000000000000A7
:101841000000000000000000000000000000000097
:101851000000000000000000000000000000000087
:101861000000000000000000000000000000000077
:101871000000000000000000000000000000000067
:101881000000000000000000000000000000000057
:101891000000000000000000000000000000000047
:1018A1000000000000000000000000000000000037
:1018B1000000000000000000000000000000000027
:1018C1000000000000000000000000000000000017
:1018D1000000000000000000000000000000000007
:1018E10000000000000000000000000000000000F7
:1018F10000000000000000000000000000000000E7
:0C190100000000000000000002300000A8
:10004600C2AFA295B39295C290D2B6D2B7D2C0E44F
:10005600F532122259122247121596E47B6A7A016A
:10006600F9F8AF3BAE3AAD39AC3812204CAC00AD26
:1000760001AE02AF03EC4D4E4F600302010B7B6AEB
:100086007A01F9F8AF3FAE3EAD3DAC3C12204CAC28
:1000960000AD01AE02AF03EC4D4E4F7068C3E53BB9
:1000A600953FFFE53A953EFEE539953DFDE53895E8
:1000B6003CFCE47B6A7A01F9F8C31209EF6046AFAB
:1000C6003BAE3AAD39AC38AB3FAA3EA93DA83CC3DE
:1000D6001209EF401AE53B2496F53FE53A34FEF562
:1000E6003EE53934FFF53DE53834FFF53C8016E54D
:1000F6003F246AF53BE53E3401F53AE4353DF539F2
:10010600E4353CF538E47B6A7A01F9F8AF48AE4746
:10011600AD46AC4512204CAC00AD01AE02AF03ECCF
:100126004D4E4F60030201B57B6A7A01F9F8AF4C78
:10013600AE4BAD4AAC4912204CAC00AD01AE02AF9D
:1001460003EC4D4E4F7068C3E548954CFFE5479567
:100156004BFEE546954AFDE5459549FCE47B6A7A02
:1001660001F9F8C31209EF6046AF48AE47AD46AC99
:1001760045AB4CAA4BA94AA849C31209EF401AE558
:10018600482496F54CE54734FEF54BE54634FFF535
:100196004AE54534FFF5498016E54C246AF548E5FD
:1001A6004B3401F547E4354AF546E43549F545E46F
:1001B6007B6A7A01F9F8AF3BAE3AAD39AC3812201A
:1001C6004CAC00AD01AE02AF03EC4D4E4F6036E4D1
:1001D6007B6A7A01F9F8AF3FAE3EAD3DAC3C1220EA
:1001E6004CAC00AD01AE02AF03EC4D4E4F7016E5C0
:1001F6003F246AF53BE53E3401F53AE4353DF539F1
:10020600E4353CF538E47B6A7A01F9F8AF3BAE3A5F
:10021600AD39AC3812204CAC00AD01AE02AF03ECE8
:100226004D4E4F70377B6A7A01F9F8AF3FAE3EAD5F
:100236003DAC3C12204CAC00AD01AE02AF03EC4D20
:100246004E4F6018E53B2496F53FE53A34FEF53E01
:10025600E53934FFF53DE53834FFF53CE47B6A7A51
:1002660001F9F8AF48AE47AD46AC4512204CAC009C
:10027600AD01AE02AF03EC4D4E4F6036E47B6A7AB9
:1002860001F9F8AF4CAE4BAD4AAC4912204CAC006C
:10029600AD01AE02AF03EC4D4E4F7016E54C246A2D
:1002A600F548E54B3401F547E4354AF546E435496A
:1002B600F545E47B6A7A01F9F8AF48AE47AD46AC3E
:1002C6004512204CAC00AD01AE02AF03EC4D4E4FD3
:1002D60070377B6A7A01F9F8AF4CAE4BAD4AAC4940
:1002E60012204CAC00AD01AE02AF03EC4D4E4F6098
:1002F60018E5482496F54CE54734FEF54BE54634BB
:10030600FFF54AE54534FFF549E47B6A7A01F9F8D9
:10031600AF3BAE3AAD39AC3812204CAC00AD01AEB5
:1003260002AF03EC4D4E4F6020E47B6A7A01F9F888
:10033600AF3FAE3EAD3DAC3C12204CAC00AD01AE85
:1003460002AF03EC4D4E4F7040E47B6A7A01F9F838
:10035600AF48AE47AD46AC4512204CAC00AD01AE41
:1003660002AF03EC4D4E4F6026E47B6A7A01F9F842
:10037600AF4CAE4BAD4AAC4912204CAC00AD01AE11
:1003860002AF03EC4D4E4F6006121E42121EE07F76
:10039600881222887F1E120026C2B6D2AAD2AFA227
:1003A60095B3929530B20AE54F7006754F01122249
:1003B6009620B221E54F6401701BE5337017F54FA7
:1003C600D3E532940174809480400415321532E4EA
:1003D600F53712229DE54E64017007F54E7F8812AF
:1003E6002288E5406401701AF540750C01750D6AA6
:1003F600FFFEFDFC121354121E42121EE07F8512F0
:100406002288AF3BAE3AAD39AC38AB48AA47A946CD
:10041600A845C31209EF701EF54D7F6A7E01FDFCEB
:10042600AB3BAA3AA939A838C31209EF600B121ED2
:1004360042121EE08003754D01E53260030204CCD2
:10044600E52E640160030204CCE54D64017077E596
:100456003670730532F52EF54D7B017A007900AFC3
:1004660048AE47AD46AC45750F0175106A1210D8F7
:100476007B017A0079007D6A7C01122090AF48AE3C
:1004860047AD46AC45750C01750D6A121354E54827
:10049600246AF548E5473401F547E43546F546E470
:1004A6003545F5457F02121A5AE54C246AF54CE5A6
:1004B6004B3401F54BE4354AF54AE43549F5497FB5
:1004C60004121A5A1532E5326003020550E52E640D
:1004D600017077E54D64017071E5366401706B7FDC
:1004E600C87EFF7D03FCAB3BAA3AA939A838C312E4
:1004F60009EF60560532E4F54DF5367B017A007951
:1005060000AF3BAE3AAD39AC3875100175116A12C1
:100516000E5CE53B246AF53BE53A3401F53AE435F1
:1005260039F539E43538F5387F01121A5AE53F2492
:100536006AF53FE53E3401F53EE4353DF53DE435EB
:100546003CF53C7F03121A5A1532E5327025E52E2A
:100556006401701FE54D701BE536640170150532A8
:10056600F52EF5367B017A0079007D6A7C01122032
:10057600901532E53260030203A5E52E60030203FF
:10058600A5E536640160030203A50532F5367B0155
:100596007A007900AF3BAE3AAD39AC3875100175CB
:1005A600116A120E5CE53B246AF53BE53A3401F527
:1005B6003AE43539F539E43538F5387F01121A5AF7
:1005C600E53F246AF53FE53E3401F53EE4353DF569
:1005D6003DE4353CF53C7F03121A5A15320203A559
:03001300020AE7F7
:100AE700C0E0C0F0C083C082C0D075D000C000C0D5
:100AF70001C002C003C004C005C006C007C2AFC220
:100B0700AAA295B39295E537147003020CBE147030
:100B170003020D57147003020D67147003020DA72B
:100B2700147003020DE524056003020E37C3E53296
:100B3700940274809480500705320532020D52E505
:100B47003264026003020D52D2B7D2B685A02F7568
:100B570030007531007E00C3748094805003020C0E
:100B670010D3E52F94FA748094804003020C10ACE4
:100B77002FE412088EE4FBFA794878431205EDE476
:100B8700FBFA792078411207E78F448E438D428C18
:100B970041E4FBFA798078411207E71208C2740032
:100BA7002531F58274003530F583EFF07400253177
:100BB700F58274003530F583E0F52F0531E53170A6
:100BC700020530E52F75F010A4FDACF0EC12088992
:100BD700A804A905AA06AB07AF44AE43AD42AC4192
:100BE7001205E9E4FBFA798078411206DE1208C2A1
:100BF70074002531F58274003530F583EFF0053147
:100C0700E53170020530020CB3E52F64FB703A90B2
:100C17000000E0FF74002531F58274003530F5835C
:100C2700EFF00531E53170020530900001E0FF7407
:100C3700002531F58274003530F583EFF00531E595
:100C470031700205307FFB8028E52F64FC700F9020
:100C57000000F0A3F0F5307531027FFC8013E52F1B
:100C670064FD7012900000F0A3F0F5307531027F3B
:100C7700FD1222888036900000E0FF74002531F5D0
:100C87008274003530F583EFF00531E531700205E8
:100C970030900001E0FF74002531F5827400353093
:100CA700F583EFF00531E5317002053075350175D3
:100CB70034000537020DA2E53164024530707BD25E
:100CC700B7C2B6E535700705377F14120026E5353C
:100CD7006401701EC3E53494147480948050040535
:100CE7003480057FFE1222887FC11221E07F011226
:100CF7000026E5356402701EC3E5349414748094AD
:100D0700805004053480057FFE1222887FC212219D
:100D1700E07F01120026E53564036003020E37C346
:100D2700E5349414748094805004053480057FFE64
:100D37001222887FC31221E08011C2B7D2B6753064
:100D470000753100753700153215327F01020E34F8
:100D5700D2B7C2B67FCA1221E005377F04020E342C
:100D6700E531647A45307010D2B7C2B67FCB122115
:100D7700E005377F04020E34C2B7D2B6753000756E
:100D870031027537020534C3E534941474809480B6
:100D97005004053480057FFE1222887F02020E343C
:100DA700E53164F24530700FD2B7C2B67FCC12215D
:100DB700E005377F048076C2B7D2B675300075314B
:100DC7007A7537030534C3E53494147480948050DE
:100DD70004053480057FFE1222887F02804FE531AB
:100DE700B46A25E530B40120D2B7D2B61532153230
:100DF7007537007536017580947F887E131221A997
:100E07007580FF12222E8028C2B7D2B675300075C2
:100E170031F27537040534C3E53494147480948033
:100E27005004053480057FFE1222887F02120026B7
:100E3700D2AAD2AFD007D006D005D004D003D002B3
:0F0E4700D001D000D0D0D082D083D0F0D0E03214
:03002300021911AE
:10191100C0E0C0F0C083C082C0D075D000C000C09C
:0D19210001C002C003C004C005C006C0071D
:10192E00752DFFC2AFA295B39295209803021A3B74
:10193E00C29885992DAF2D7E00C3EF9401748094CB
:10194E0080400CD3EF943C7480948050028045AF5D
:10195E002D7E00C3EF943D74809480402FD3EF947E
:10196E0078748094805025E5336401701F1221E055
:10197E00C2AC7F607EEA1221A97F607EEA1221A9A5
:10198E007F607EEA1221A9D2AC021A36E52D648060
:10199E007014AF2D1221E07F057E001221A9AF2D0C
:1019AE001221E0021A36E52D648270081222967515
:1019BE0033018074E52D6483701D20B20312229DC5
:1019CE00D3E532940174809480400415321532753B
:1019DE0033007537008051AF2D7E00EF648B70049D
:1019EE00C2C08044EF648A4E7004D2C0803AEF6465
:1019FE00844E7005752E01802FEF64854E7005752F
:101A0E0040018024EF64884E7005754E018019C325
:101A1E00EF9496EE648094804015D3EF94FAEE64C2
:101A2E00809480500A852D80752DFF8002C299D238
:011A3E00AFF8
:101A3F00D007D006D005D004D003D002D001D000FB
:0B1A4F00D0D0D082D083D0F0D0E032A5
:03004300021CFD9F
:101CFD00C0E0C0F0C083C082C0D075D000C000C0AD
:0D1D0D0001C002C003C004C005C006C0072D
:101D1A00C2AFA295B39295E59A30E05A539AFEAFB4
:101D2A009BE5357021E533701874002531F582740E
:101D3A00003530F583EFF00531E53170020530806A
:101D4A00381222888033E535FD7C0064017009EF82
:101D5A0064C1700205358021ED64024C7009EF649C
:101D6A00C2700205358012E5356403700CEF64C356
:0B1D7A007002F5358003539AFDD2AFD4
:101D8500D007D006D005D004D003D002D001D000B2
:0B1D9500D0D0D082D083D0F0D0E0325C
:0F226A00C2AFD2B5D2B40000C2B50000C2B422D8
:0F227900C2B50000D2B40000D2B50000D2AF222F
:102215007F14D2B50000D2B4000030B507DFFB1241
:08222500227980F6C2B400002A
:01222D00228E
:10215400E4FEEEC39408748094805017EF30E704D3
:10216400D2B58002C2B5EF25E0FFD2B40000C2B4FC
:062174000E80DF022215BF
:0921C0007F0F1221C97D017F018E
:1021C900AC0712226A7FA2122154AF04122154AF24
:0721D90005122154022279D6
:10222E007D20E4FF1221C97D837F0E1221C97D0A14
:09223E001221C0E41DFF0221C9B8
:10002600AB077D20E4FF1221C97D827F0E1221C914
:0B003600AD031221C0E41DFF0221C930
:072296007D20E4FF0221C9D5
:06229D00E4FDFF0221C96F
:10225900759850759CE8758E11E4F587D2AFD2ACAC
:012269002252
:10224700759A50759CE8758E1175A210D2AF75AF4F
:02225700012262
:0E228800C2ACC2998F993099FDC299D2AC2296
:1021E000E4F5AFD290539AFD8F9BAE9A530602EE60
:0A21F00060F8539AFDC29075AF012C
:0121FA0022C2
:0A2090008B088A09890A8C0B8D0C5D
:10209A00E4FDFCA295B39295AB08AA09A90A8D8220
:1020AA008C83120943FF1222880DBD00010CC3ED77
:0D20BA00950CE50B6480F8EC64809840D62E
:0120C70022F6
:08001600A0A2A4A6A1A3A5A7C6
:03190D0001500086
:0B219E00C2947F147E001221A9D2938E
:1021A900E4FDFCC3ED9FEC9E500CA295B392950DF6
:0621B900BD00010C80EDE9
:0121BF0022FD
:1021FB00C2AFC2937F147E001221A9D2941221A4E4
:0A220B00C2941221A9C2930221A976
:1000030012219ED2941221A9C2931221A9D2AF2206
:10212C00AF04A9071221FB7F147E001221A9E550F0
:10213C0090001693FF12217A12214CAF0112217AD2
:08214C00D2941221A0C29322DB
:0622A30012219EC29322ED
:10217A007B08AA07A295B39295EA548064807004FA
:10218A00D2948002C2941221A0C293EA25E0FADB1B
:04219A00E30221A992
:1020FB00E4FBFAEAC39408748094805021A295B350
:10210B009295D2941221A0EB25E0FB3094010B7F2A
:10211B00147E001221A9C2931221A90A80D5AF0304
:01212B002291
:062006008B258A268927C4
:10200C008D2B12212CAF2B12217A12214CE4F52CA2
:10201C00E52CC3952A501FA295B39295AB25AA2601
:10202C00A927852C82758300120943FF12217A128D
:10203C00214C052C80DA1200037F207E4E0221A950
:0220C8008D1E6B
:1020CA008F1FAF0612212EAF1F12217A12214CE464
:1020DA00F9E9C3951E5010A295B39295E4FF122117
:1020EA007A12214C0980EA1200037F207E4E0221D7
:0120FA00A93C
:101B7600F50DE50C34FFF50CAB09AA0AA90BAC0E62
:081B8600AD0F85161D85171E29
:0A1B8E008B188A19891A8C1B8D1C14
:101B9800752300E51C547FF524C374809524F5242F
:101BA800E49523F523D3E51E9524E51D95235003DD
:101BB800021C4485242A122006C3E51E9524F51E1E
:101BC800E51D9523F51DE524251CF51CE523351B8E
:101BD800F51BE524251AF51AE5233519F519AE1D67
:101BE800E51E7807CEC313CE13D8F9F5228E21E56A
:101BF8001E547FF520E4F51FC3E51F9522E49521C7
:101C0800502FA295B39295AB18AA19A91A752A80D4
:101C1800AD1CAC1B1220067480251CF51CE4351B7A
:101C2800F51B7480251AF51AE43519F519051F8076
:101C3800C7AB18AA19A91A85202A8009AB18AA19AE
:0C1C4800A91A851E2AAD1CAC1B12200638
:011C5400226D
:101C5500F509E50834FFF508AE0AAF0BAD13AC1274
:081C65008E148F158C168D17EB
:101C6D00E515547FF519C374809519F519FFD3E562
:101C7D00179FE5169400406EAD19AF151220C8AF31
:101C8D00197E00C3E5179FF517E5169EF516EF258E
:101C9D0015F515EE3514F514AE16E5177807CEC308
:101CAD0013CE13D8F9F51B8E1AE517547FF518E4EA
:101CBD00F51CF51DC3E51D951BE51C951A5023A2BA
:101CCD0095B392957D80AF15AE141220C874802502
:101CDD0015F515E43514F514051DE51D70D6051C17
:0F1CED0080D2AD188002AD17AF15AE141220C80B
:011CFC0022C5
:101DA000F50CE50B34FFF50BAB08AA09A90AAC0D3D
:081DB000AD0E85151C85161D02
:101DB800E4F51FF5208B218A2289238D1E12212C00
:101DC800AF1E12217A12214C1221FBE55090001A05
:101DD80093FF12217A12214CE4F51FF520E51D240A
:101DE800FFFFE51C34FFFEC3E5209FE51F9E50253D
:101DF800A295B392951220FBAB21AA22A923852094
:101E080082851F83EF1209701222A30520E5207036
:101E1800CC051F80C8E51D24FFF520E51C34FFF51F
:101E28001F1220FBAB21AA22A923852082851F83AC
:0A1E3800EF12097012214C020003A2
:060E56007E007D007C001F
:0E0E5C008B098A0A890B8F0F8E0E8D0D8C0C60
:100E6A00E511250FF515E510350EF514E4350DF5E8
:100E7A0013E4350CF512E4F516F5177FFF7EFFFD36
:100E8A00FCAB15AA14A913A812D31209EF5006E451
:100E9A00F5500210C4E47FFF7EFFFDFCAB15AA14D7
:100EAA00A913A812D31209EF405AE47FFF7EFFFD6F
:100EBA00FCAB0FAA0EA90DA80CD31209EF5045E4FA
:100ECA00F550AC0EAD0FC39DF517E49CF516AB09B2
:100EDA00AA0AA90BF51D85171E121B8EE517250BED
:100EEA00F50BE516350AF50AC3E5119517F511E56F
:100EFA00109516F510755001E4F50FF50EF50DF580
:100F0A000C0210C47FFF7EFF7D017C00AB15AA1482
:100F1A00A913A812D31209EF5030E47FFF7EFFFD18
:100F2A00FCAB0FAA0EA90DA80C1209EF401C7550B4
:100F3A0001E4250FF50FE4350EF50EE50D34FFF546
:100F4A000DE50C34FFF50C0210C47FFF7EFF7D0116
:100F5A007C00AB15AA14A913A812D31209EF405D9D
:100F6A007FFF7EFF7D017C00AB0FAA0EA90DA80CA6
:100F7A00D31209EF5047755001C3E4950FF517E4F2
:100F8A00950EF516E4250FF50FE4350EF50EE50D71
:100F9A0034FF121B76E517250BF50BE516350AF516
:100FAA000AC3E5119517F511E5109516F510755058
:100FBA0002E4F50FF50EF50DF50C0210C47FFF7E65
:100FCA00FF7D027C00AB15AA14A913A812D312093B
:100FDA00EF50317FFF7EFF7D017C00AB0FAA0EA987
:100FEA000DA80C1209EF401C755002E4250FF50FED
:100FFA00E4350EF50EE50D34FEF50DE50C34FFF57E
:10100A000C0210C47FFF7EFF7D027C00AB15AA1480
:10101A00A913A812D31209EF405C7FFF7EFF7D025D
:10102A007C00AB0FAA0EA90DA80CD31209EF5046EB
:10103A00755002C3E4950FF517E4950EF516E425ED
:10104A000FF50FE4350EF50EE50D34FE121B76E5AD
:10105A0017250BF50BE516350AF50AC3E5119517A1
:10106A00F511E5109516F510755003E4F50FF50E18
:10107A00F50DF50C80447FFF7EFF7D037C00AB15E8
:10108A00AA14A913A812D31209EF50417FFF7EFFB9
:10109A007D027C00AB0FAA0EA90DA80C1209EF4025
:1010AA002C755003E4250FF50FE4350EF50EE50D0A
:1010BA0034FDF50DE50C34FFF50CAB09AA0AA90BB2
:0D10CA00AC0EAD0F85101D85111E121B8E82
:0110D70022F6
:081354008F0B8E0A8D098C0835
:10135C00E50D250BF511E50C350AF510E43509F50D
:10136C000FE43508F50EE4F512F5137FFF7EFFFD53
:10137C00FCAB11AA10A90FA80ED31209EF5006E46A
:10138C00F55002158AE47FFF7EFFFDFCAB11AA101D
:10139C00A90FA80ED31209EF4046E47FFF7EFFFD94
:1013AC00FCAB0BAA0AA909A808D31209EF5031E427
:1013BC00F550AE0AAF0BC39FF513E49EF512AD13B7
:1013CC00FC121C65C3E50D9513F50DE50C9512F596
:1013DC000C755001E4F50BF50AF509F50802158AB0
:1013EC007FFF7EFF7D017C00AB11AA10A90FA80E18
:1013FC00D31209EF5030E47FFF7EFFFDFCAB0BAA4C
:10140C000AA909A8081209EF401C755001E4250B24
:10141C00F50BE4350AF50AE50934FFF509E508345E
:10142C00FFF50802158A7FFF7EFF7D017C00AB1162
:10143C00AA10A90FA80ED31209EF40517FFF7EFF0F
:10144C007D017C00AB0BAA0AA909A808D31209EFED
:10145C00503B755001C3E4950BF513E4950AF51256
:10146C00E4250BF50BE4350AF50AE50934FF121CEB
:10147C0055C3E50D9513F50DE50C9512F50C75504E
:10148C0002E4F50BF50AF509F50802158A7FFF7ED3
:10149C00FF7D027C00AB11AA10A90FA80ED3120974
:1014AC00EF50317FFF7EFF7D017C00AB0BAA0AA9B8
:1014BC0009A8081209EF401C755002E4250BF50B26
:1014CC00E4350AF50AE50934FEF509E50834FFF5BB
:1014DC000802158A7FFF7EFF7D027C00AB11AA10EB
:1014EC00A90FA80ED31209EF40507FFF7EFF7D029B
:1014FC007C00AB0BAA0AA909A808D31209EF503A31
:10150C00755002C3E4950BF513E4950AF512E42526
:10151C000BF50BE4350AF50AE50934FE121C55C32C
:10152C00E50D9513F50DE50C9512F50C755003E4CE
:10153C00F50BF50AF509F50880447FFF7EFF7D0366
:10154C007C00AB11AA10A90FA80ED31209EF5039C9
:10155C007FFF7EFF7D027C00AB0BAA0AA909A808BD
:10156C001209EF4024755003E4250BF50BE4350A02
:10157C00F50AE50934FDF509E50834FFF508AE0A6E
:09158C00AF0BAD0DAC0C121C6597
:011595002233
:0E10D8008B088A09890A8F0E8E0D8D0C8C0BE9
:1010E600E510250EF514E50F350DF513E4350CF571
:1010F60012E4350BF511E4F515F5167FFF7EFFFDBD
:10110600FCAB14AA13A912A811D31209EF5006E4D6
:10111600F550021340E47FFF7EFFFDFCAB14AA13DB
:10112600A912A811D31209EF405AE47FFF7EFFFDF2
:10113600FCAB0EAA0DA90CA80BD31209EF5045E47F
:10114600F550AC0DAD0EC39DF516E49CF515AB0838
:10115600AA09A90AF51C85161D121DB8E516250A49
:10116600F50AE5153509F509C3E5109516F510E5F7
:101176000F9515F50F755001E4F50EF50DF50CF507
:101186000B0213407FFF7EFF7D017C00AB14AA1388
:10119600A912A811D31209EF5030E47FFF7EFFFD9C
:1011A600FCAB0EAA0DA90CA80B1209EF401C75503A
:1011B60001E4250EF50EE4350DF50DE50C34FFF5CD
:1011C6000CE50B34FFF50B0213407FFF7EFF7D011C
:1011D6007C00AB14AA13A912A811D31209EF405D23
:1011E6007FFF7EFF7D017C00AB0EAA0DA90CA80B2C
:1011F600D31209EF5047755001C3E4950EF516E476
:10120600950DF515E4250EF50EE4350DF50DE50CF9
:1012160034FF121DA0E516250AF50AE5153509F570
:1012260009C3E5109516F510E50F9515F50F7550E0
:1012360002E4F50EF50DF50CF50B0213407FFF7E6B
:10124600FF7D027C00AB14AA13A912A811D31209C0
:10125600EF50317FFF7EFF7D017C00AB0EAA0DA90A
:101266000CA80B1209EF401C755002E4250EF50E72
:10127600E4350DF50DE50C34FEF50CE50B34FFF504
:101286000B0213407FFF7EFF7D027C00AB14AA1386
:10129600A912A811D31209EF405C7FFF7EFF7D02E1
:1012A6007C00AB0EAA0DA90CA80BD31209EF504671
:1012B600755002C3E4950EF516E4950DF515E42573
:1012C6000EF50EE4350DF50DE50C34FE121DA0E508
:1012D60016250AF50AE5153509F509C3E51095162B
:1012E600F510E50F9515F50F755003E4F50EF50DA0
:1012F600F50CF50B80447FFF7EFF7D037C00AB146D
:10130600AA13A912A811D31209EF50417FFF7EFF3D
:101316007D027C00AB0EAA0DA90CA80B1209EF40AA
:101326002C755003E4250EF50EE4350DF50DE50C90
:1013360034FDF50CE50B34FFF50BAB08AA09A90A39
:0D134600AC0DAD0E850F1C85101D121DB8DD
:011353002277
:101E4200E4753B6A753A01F539F538853B51AF3B8C
:101E5200AE3AAD39AC387808120A058F52AF3BAEB4
:101E62003AAD39AC387810120A058F53AF3BAE3A0F
:101E7200AD39AC387818120A058F547B007A007994
:101E8200517510007511047F00120E56E475486AF0
:101E9200754701F546F545854851AF48AE47AD4611
:101EA200AC457808120A058F52AF48AE47AD46AC32
:101EB200457810120A058F53AF48AE47AD46AC4580
:101EC2007818120A058F547B007A00795175100038
:0E1ED2007511047F047E007D007C00020E5C12
:101EE000E4F53FF53EF53DF53C853F51AF3FAE3E55
:101EF000AD3DAC3C7808120A058F52AF3FAE3EAD07
:101F00003DAC3C7810120A058F53AF3FAE3EAD3D5D
:101F1000AC3C7818120A058F547B007A0079517511
:101F200010007511047F08120E56E4F54CF54BF5C0
:101F30004AF549854C51AF4CAE4BAD4AAC49780897
:101F4000120A058F52AF4CAE4BAD4AAC4978101215
:101F50000A058F53AF4CAE4BAD4AAC497818120A04
:101F6000058F547B007A0079517510007511047F3C
:0A1F70000C7E007D007C00020E5C78
:101596007B007A007951750F007510047F007E007C
:1015A6007D007C001210D8AF53E4FCFDFEFBFA79F7
:1015B60001F8120992C004C005C006C007AF54E482
:1015C600FCFDFEFBFAF97801120992D003D002D095
:1015D60001D000EF2BFFEE3AFEED39FDEC38FCA80A
:1015E60004A905AA06AB07E552FEE4FCFD2BFBEABF
:1015F6003EFAED39F9EC38F8E4FEEB2551F53BEE11
:101606003AF53AED39F539EC38F5387B007A007958
:1016160051750F007510047F041210D8AF53E4FC07
:10162600FDFEFBFA7901F8120992C004C005C00656
:10163600C007AF54E4FCFDFEFBFAF97801120992EB
:10164600D003D002D001D000EF2BFFEE3AFEED39E9
:10165600FDEC38FCA804A905AA06AB07E552FEE492
:10166600FCFD2BFBEA3EFAED39F9EC38F8E4FEEB2B
:101676002551F548EE3AF547ED39F546EC38F5458E
:101686007B007A007951750F007510047F081210DF
:10169600D8AF53E4FCFDFEFBFA7901F8120992C0BB
:1016A60004C005C006C007AF54E4FCFDFEFBFAF912
:1016B6007801120992D003D002D001D000EF2BFF9F
:1016C600EE3AFEED39FDEC38FCA804A905AA06ABF6
:1016D60007E552FEE4FCFD2BFBEA3EFAED39F9EC98
:1016E60038F8E4FEEB2551F53FEE3AF53EED39F5D7
:1016F6003DEC38F53C7B007A007951750F0075108A
:10170600047F0C1210D8AF53E4FCFDFEFBFA7901FE
:10171600F8120992C004C005C006C007AF54E4FC25
:10172600FDFEFBFAF97801120992D003D002D0012E
:10173600D000EF2BFFEE3AFEED39FDEC38FCA804A5
:10174600A905AA06AB07E552FEE4FCFD2BFBEA3E23
:10175600FAED39F9EC38F8E4FEEB2551F54CEE3AA2
:0B176600F54BED39F54AEC38F549224F
:101A5A008F08EF64017040853B51AF3BAE3AAD3918
:101A6A00AC387808120A058F52AF3BAE3AAD39ACA2
:101A7A00387810120A058F53AF3BAE3AAD39AC38FD
:101A8A007818120A058F547B007A00795175100074
:101A9A007511047F008044E508640270418548514D
:101AAA00AF48AE47AD46AC457808120A058F52AF2B
:101ABA0048AE47AD46AC457810120A058F53AF4879
:101ACA00AE47AD46AC457818120A058F547B007AAA
:101ADA000079517510007511047F04120E56E5083D
:101AEA0064037040853F51AF3FAE3EAD3DAC3C789C
:101AFA0008120A058F52AF3FAE3EAD3DAC3C78109E
:101B0A00120A058F53AF3FAE3EAD3DAC3C7818127A
:101B1A000A058F547B007A007951751000751104FB
:101B2A007F088044E50864047041854C51AF4CAE8F
:101B3A004BAD4AAC497808120A058F52AF4CAE4BEE
:101B4A00AD4AAC497810120A058F53AF4CAE4BAD73
:101B5A004AAC497818120A058F547B007A007951E9
:0C1B6A007510007511047F0C120E56223D
:1005E60002092EE86480F8E933E83360110460F00C
:1005F600ED33EC337009E8FCE9FDEAFEEBFF22047B
:1006060060DED3EB9FEA9EE99DE8C2E78CF0C2F775
:1006160095F0400CE8CCF8E9CDF9EACEFAEBCFFB41
:100626001208F985D0F05804700320D5B3E8047099
:10063600075002B2D502093892D5EC0460F7E4CC33
:10064600C0E0C398F8603B94186008400DD0E0FB0A
:10065600020910E4FBFAC9FC8028E830E406E4C984
:10066600FBE4CAFCE830E305E4C9CACBFCE854075E
:100676006010F8C3E913F9EA13FAEB13FBEC13FC69
:10068600D8F130F52FC3E49CFCEF9BFFEE9AFEED0C
:1006960099FDD0E0FBEF4E4D4C701222DB030209B0
:1006A60035EC2CFCEF33FFEE33FEED33FDED30E79A
:1006B600EB020910EF2BFFEE3AFEED39FDD0E0FB21
:1006C60050130BBB0003020938ED13FDEE13FEEFCA
:0806D60013FFEC13FC020910F4
:1006DE00EC4D6011E8497017ED33EC3304600DE416
:1006EE00FCFFFEFD22E933E8330470F802092E12F6
:1006FE0008F958046009E4CC2481500628500902F8
:10070E000938284003020935C0E0EB4A7044B9802D
:10071E0006D0E0FB020924EF4E701CBD8008EBFFF3
:10072E00EAFEE9FD80EBE98DF0A4FEE5F00207C7D5
:10073E00E9CDF9EAFEEBFFEF89F0A4FCE5F0CE89F6
:10074E00F0A42EFFE435F0CD89F0A42DFEE435F0B3
:10075E008067EF4E7005BD80D780C3EF8BF0A4ACE1
:10076E00F0EE8BF0A42CFCE435F0F8EF8AF0A42C1C
:10077E00E5F038FCE433CB8DF0A42CFCE5F03BF82F
:10078E00EE8AF0A42CFCE5F038F8E433CF89F0A41F
:10079E002CFCE5F038CF3400CE89F0A42FFFE5F025
:1007AE003EFEE433C98DF0A42EFEE5F039CD8AF07D
:1007BE00A42FFFE5F03EFEE43DFD33D0E0FB5007F5
:1007CE000BBB000F020938EC2CFCEF33FFEE33FEAF
:0607DE00ED33FD020910DD
:1007E400020938EC5D046005E85904700302092E1F
:1007F4001208F9580460F6EC4860F2EC7004FDFE4F
:10080400FF22C860DB2481C85009C39860025006E7
:100814000209359850CAF582E9294B4A7005AB8222
:1008240002092475F0007C1A7880C3EF9BEE9AEDE0
:1008340099400DC3EF9BFFEE9AFEED99FDE842F05F
:10084400DC23ACF0D0E0FFD0E0FED0E0FDAB8220B2
:10085400E7101BEB60BAEC2CFCEF33FFEE33FEED3C
:1008640033FD020910E803F830E705C0F075F00025
:10087400EF2FFFEE33FEED33FD40B830E7C280AA20
:1008840075F020800E75F010800575F0087D007EEF
:10089400007F003392D530D5031209E1EC334010C8
:1008A400EF33FFEE33FEED33FDEC33FCD5F0ED22F8
:0E08B400E5F0247EA2D513CC92E7CDCEFF2234
:1008C200EDD2E7CD33EC3392D524814006E4FFFE2E
:1008D200FDFC22FCE4CFCECDCC24E0501174FF808D
:1008E200EDC3CC13CCCD13CDCE13CECF13CF04702A
:0708F200F030D5DE0209E140
:1008F900E9D2E7C933E833F892D5EDD2E7CD33EC45
:0709090033FC5002B2D522BD
:10091000EC30E7100FBF000C0EBE00080DBD000448
:100920000BEB6014A2D5EB13FCED92E7FD2274FFF4
:10093000FCFDFEFF22E480F8A2D574FF13FC7D804D
:03094000E480EF61
:101F8600020046E493A3F8E493A34003F68001F22B
:101F960008DFF48029E493A3F85407240CC8C3335C
:101FA600C4540F4420C8834004F456800146F6DF2B
:101FB600E4800B0102040810204080901771E47E33
:101FC600019360BCA3FF543F30E509541FFEE49320
:101FD600A360010ECF54C025E060A840B8E493A3E7
:101FE600FAE493A3F8E493A3C8C582C8CAC583CA12
:101FF600F0A3C8C582C8CAC583CADFE9DEE780BECA
:0119100000D6
:10094300BB010CE58229F582E5833AF583E0225069
:1009530006E92582F8E622BBFE06E92582F8E222B3
:0D096300E58229F582E5833AF583E49322CD
:10097000F8BB010DE58229F582E5833AF583E8F0BD
:10098000225006E92582C8F622BBFE05E92582C869
:02099000F22251
:10099200E88FF0A4CC8BF0A42CFCE98EF0A42CFC04
:1009A2008AF0EDA42CFCEA8EF0A4CDA8F08BF0A482
:1009B2002DCC3825F0FDE98FF0A42CCD35F0FCEBE1
:1009C2008EF0A4FEA9F0EB8FF0A4CFC5F02ECD39A6
:0F09D200FEE43CFCEAA42DCE35F0FDE43CFC2213
:10204C00C2D5E830E70FB2D5E4C39BFBE49AFAE4BF
:10205C0099F9E498F8EC30E717B2D5122082120AFD
:10206C0055E4C39BFBE49AFAE499F9E498F88003ED
:10207C00120A5530D50DE4C39FFFE49EFEE49DFD8E
:04208C00E49CFC22B2
:0E09E100C3E49FFFE49EFEE49DFDE49CFC2227
:1009EF00EB9FF5F0EA9E42F0E99D42F0EC6480C87F
:0609FF0064809845F0221F
:100A0500E86010ECA2E713FCED13FDEE13FEEF1307
:040A1500FFD8F022F4
:100A190075F008758200EF2FFFEE33FECD33CDCC94
:100A290033CCC58233C5829BED9AEC99E582984017
:100A39000CF582EE9BFEED9AFDEC99FC0FD5F0D6F4
:100A4900E4CEFBE4CDFAE4CCF9A88222B800C1B91E
:100A59000059BA002DEC8BF084CFCECDFCE5F0CB5C
:100A6900F97818EF2FFFEE33FEED33FDEC33FCEB95
:100A790033FB10D703994004EB99FB0FD8E5E4F950
:100A8900FA227818EF2FFFEE33FEED33FDEC33FC3D
:100A9900C933C910D7059BE99A4007EC9BFCE99A31
:100AA900F90FD8E0E4C9FAE4CCFB2275F010EF2F76
:100AB900FFEE33FEED33FDCC33CCC833C810D70776
:100AC9009BEC9AE899400AED9BFDEC9AFCE899F8B1
:0E0AD9000FD5F0DAE4CDFBE4CCFAE4C8F92244
:00000001FF
