:0300000002061DD8
:0C061D00787FE4F6D8FD75811E020664AB
:0907A500011B0004170000000014
:0B083D00AE071FEE6004000080F622F2
:10077C00E4FD7C01EC601FC2B67F3012083DD2B69E
:10078C007F0612083DA2B6E433FC7F2A12083D0D09
:08079C00BD05E17F00227F0191
:0107A4002232
:1007CE00E4FDFCEDC313FDC2B60000D2B60000304E
:1007DE00B6034305807F0612083D0CBC08E5AF0545
:0107EE0022E8
:02080F00AD0733
:10081100E4FCC2B60000EDC313FD92B67F061208D8
:070821003DD2B60CBC08EB50
:0108280022AD
:1006A90012077CEF7002FF227FCC12080F7F4412E1
:1006B900080F30B6FD12077CEF7002FF227FCC12C3
:1006C900080F7FBE12080F1207CE8F1D1207CE8F9B
:1006D9001EE51D540FFCE41203378F1A8E198D186D
:1006E9008C17E51DC4540FF51DE51EC454F0F51E05
:1006F900451DF51BAF1AAE19AD18AC17E4FBFA7915
:100709008078411202178F1A8E198D188C177F0164
:0107190022BD
:1007AE000412420C0000040C0000000002080000BD
:0F07BE00011000010B00010A00011600011100DB
:1003FA00E4F51CC2AF758170758E01A295B3929512
:10040A00120829D291D292D290E4F50FF50E750D09
:10041A00AA750C42E4FFFE7DA87C42AB0FAA0EA986
:10042A000DA80C1202B4402112077C1206A9AC1BBB
:10043A00E4120337AB1AAA19A918A81712001D8FBC
:10044A000F8E0E8D0D8C0C80CBD2AFD28CD2A9C25E
:10045A00E8A295B3929530B20CD29230B307D291FA
:10046A00E4F50BF51030B317750B01E50AB4010377
:10047A00E4F50AE50945087006D291F50BF510E591
:10048A000945087017E50B7013E510B4010EE51164
:10049A00B4020912077CEF7003750A031206A9EF6A
:1004AA007003750A03AC1BE4120337AB1AAA19A925
:1004BA0018A81712001D8F0F8E0E8D0D8C0CE4FFDD
:1004CA00FE7D707C41AB15AA14A913A81212001D57
:1004DA00AB0FAA0EA90DA80C1202B460074005754D
:1004EA000A028008E50AB40203E4F50AE4FFFE7D85
:1004FA00347C42AB0FAA0EA90DA80C1202B4600FED
:10050A00400DE4F50FF50E750D34750C42801FE4AD
:10051A00FFFE7DA07C41AB0FAA0EA90DA80C12020A
:10052A00B4500BE4F50FF50E750DA0750C41E50AF4
:10053A007025C2E8FFFE7D207C41AB0FAA0EA90DF3
:10054A00A80C12010E7B007A80794778C312001D2D
:10055A0012036B8FA0801ED2E8E50AB4010575A0CC
:10056A00FB8012E50AB4020575A0FC8008E50AB40E
:10057A00030375A0FD85801CE51CC39496402BE5FA
:10058A001CD394FA5024AC1CE4120337E4FBFA7926
:10059A00207841120217E4FBFA7970784112001DA3
:1005AA008F158E148D138C128022E51CB4941DD3E2
:1005BA00E50994C8E50894005012C29175100175B6
:1005CA001101D28CD2A975081F750940AF15AE1456
:1005DA00AD13AC12AB0FAA0EA90DA80C1202B440AF
:1005EA001AD290D29220B20302045B20B30302040F
:1005FA005BD291E4F50BF51002045B30B20ED29295
:10060A0030B30BD291E4F50BF5108002C292C2907E
:03061A0002045B7C
:03000300020006F2
:0100060032C7
:03000B0002071ACF
:10071A00C0E0C0D0758C3C758AB0E511B40113D322
:10072A00E5099400E50894004008E50915097002F6
:10073A001508E511B402020516E5094508700375A6
:10074A001102E516B4FA0C751100751600D291C2A1
:10075A008CC2A930B317750B01E50AB40103750AF7
:10076A0000E50945087006D291F50BF510D0D0D0F6
:02077A00E0326B
:030013000207EFF2
:1007EF00C0E0C0D0750B01E50AB40103750A00E53E
:1007FF000945087006D291F50BF510D0D0D0E03234
:10082900C2A9C28CC28D758921758C3C758AB0C2EA
:040839008CC2A922A2
:100016000203D7E86480F8E933E83360110460F03E
:10002600ED33EC337009E8FCE9FDEAFEEBFF220450
:1000360060DED3EB9FEA9EE99DE8C2E78CF0C2F74B
:1000460095F0400CE8CCF8E9CDF9EACEFAEBCFFB17
:100056001203A285D0F05804700320D5B3E80470CB
:10006600075002B2D50203E192D5EC0460F7E4CC66
:10007600C0E0C398F8603B94186008400DD0E0FBE0
:100086000203B9E4FBFAC9FC8028E830E406E4C9B7
:10009600FBE4CAFCE830E305E4C9CACBFCE8540734
:1000A6006010F8C3E913F9EA13FAEB13FBEC13FC3F
:1000B600D8F130F52FC3E49CFCEF9BFFEE9AFEEDE2
:1000C60099FDD0E0FBEF4E4D4C701222DB0302038C
:1000D600DEEC2CFCEF33FFEE33FEED33FDED30E7C7
:1000E600EB0203B9EF2BFFEE3AFEED39FDD0E0FB54
:1000F60050130BBB00030203E1ED13FDEE13FEEFFD
:0801060013FFEC13FC0203B926
:10010E00EC4D6011E8497017ED33EC3304600DE4EB
:10011E00FCFFFEFD22E933E8330470F80203D71228
:10012E0003A258046009E4CC248150062850090229
:10013E0003E12840030203DEC0E0EB4A7044B980BD
:10014E0006D0E0FB0203CDEF4E701CBD8008EBFF26
:10015E00EAFEE9FD80EBE98DF0A4FEE5F00201F781
:10016E00E9CDF9EAFEEBFFEF89F0A4FCE5F0CE89CC
:10017E00F0A42EFFE435F0CD89F0A42DFEE435F089
:10018E008067EF4E7005BD80D780C3EF8BF0A4ACB7
:10019E00F0EE8BF0A42CFCE435F0F8EF8AF0A42CF2
:1001AE00E5F038FCE433CB8DF0A42CFCE5F03BF805
:1001BE00EE8AF0A42CFCE5F038F8E433CF89F0A4F5
:1001CE002CFCE5F038CF3400CE89F0A42FFFE5F0FB
:1001DE003EFEE433C98DF0A42EFEE5F039CD8AF053
:1001EE00A42FFFE5F03EFEE43DFD33D0E0FB5007CB
:1001FE000BBB000F0203E1EC2CFCEF33FFEE33FEE2
:06020E00ED33FD0203B90F
:100214000203E1EC5D046005E8590470030203D7AE
:100224001203A2580460F6EC4860F2EC7004FDFE80
:10023400FF22C860DB2481C85009C39860025006BD
:100244000203DE9850CAF582E9294B4A7005AB8255
:100254000203CD75F0007C1A7880C3EF9BEE9AED13
:1002640099400DC3EF9BFFEE9AFEED99FDE842F035
:10027400DC23ACF0D0E0FFD0E0FED0E0FDAB822088
:10028400E7101BEB60BAEC2CFCEF33FFEE33FEED12
:1002940033FD0203B9E803F830E705C0F075F00058
:1002A400EF2FFFEE33FEED33FD40B830E7C280AAF6
:1002B40074F8CC6480CCC86480C8F58204604FC3F1
:1002C400EB9FF5F0EA9E42F0E99D42F0E89C45F090
:1002D400603C501DE5825FFFE582D313CB5BCBF41A
:1002E4002B5582FB50280ABA002409B90020088043
:1002F4001DE5825BFBE582D313CF5FCFF4C3132FDD
:100304005582FF50090EBE00050DBD00010CC3EB64
:100314009FF5F0EA9E42F0E99D42F0E89C45F060CA
:0903240007CC4820E701B3EC22EC
:10032D0075F020800E75F010800575F0087D007E4B
:10033D00007F003392D530D5031203ECEC3340101F
:10034D00EF33FFEE33FEED33FDEC33FCD5F0ED2254
:0E035D00E5F0247EA2D513CC92E7CDCEFF2290
:10036B00EDD2E7CD33EC3392D524814006E4FFFE8A
:10037B00FDFC22FCE4CFCECDCC24E0501174FF80E9
:10038B00EDC3CC13CCCD13CDCE13CECF13CF047086
:07039B00F030D5DE0203EC97
:1003A200E9D2E7C933E833F892D5EDD2E7CD33ECA1
:0703B20033FC5002B2D5221A
:1003B900EC30E7100FBF000C0EBE00080DBD0004A5
:1003C9000BEB6014A2D5EB13FCED92E7FD2274FF51
:1003D900FCFDFEFF22E480F8A2D574FF13FC7D80AA
:0303E900E480EFBE
:100629000203FAE493A3F8E493A34003F68001F2EA
:1006390008DFF48029E493A3F85407240CC8C333D2
:10064900C4540F4420C8834004F456800146F6DFA1
:10065900E4800B01020408102040809007A5E47E85
:10066900019360BCA3FF543F30E509541FFEE49396
:10067900A360010ECF54C025E060A840B8E493A35D
:10068900FAE493A3F8E493A3C8C582C8CAC583CA88
:10069900F0A3C8C582C8CAC583CADFE9DEE780BE40
:0107CD00002B
:0E03EC00C3E49FFFE49EFEE49DFDE49CFC2222
:00000001FF
