:03000000020630C5
:0C063000787FE4F6D8FD75811E02067785
:09081400011B00041700000000A4
:0B086D00AE071FEE6004000080F622C2
:10079600E4FD7C01EC6020C2B67F3012086DD2B653
:1007A6007F0612086DA2B6E433FC7F2A12086D0D8F
:0907B600ED640570DFFF227F01F4
:0107BF002217
:1007C000E4FDFCECC3940874809480501AEDC313CC
:1007D000FDC2B60000D2B6000030B6034305807FEC
:0907E0000612086D0C80DCAF0567
:0107E90022ED
:0207EA00AD0759
:1007EC00E4FCECFF3395E0FEC3EF9408EE648094D8
:1007FC00805014C2B60000EDC313FD92B67F0612F2
:07080C00086DD2B60C80DB81
:0108130022C2
:1006BC00120796EF7002FF227FCC1207EA7F4412DA
:1006CC0007EA30B6FD120796EF7002FF227FCC12BC
:1006DC0007EA7FBE1207EA1207C08F1D1207C08FF0
:1006EC001EE51D540FFCE41203378F1A8E198D185A
:1006FC008C17E51DC4540FF51DE51EC454F0F51EF2
:10070C00451DF51BAF1AAE19AD18AC17E4FBFA7901
:10071C008078411202178F1A8E198D188C177F0151
:01072C0022AA
:10081D000412420C0000040C00000000020800004D
:0F082D00011000010B00010A000116000111006B
:1003FA00E4F51CC2AF758170758E01A295B3929512
:10040A00120859D291D292D290E4F50FF50E750DD9
:10041A00AA750C42E4FFFE7DA87C42AB0FAA0EA986
:10042A000DA80C1202B440211207961206BCAC1B8E
:10043A00E4120337AB1AAA19A918A81712001D8FBC
:10044A000F8E0E8D0D8C0C80CBD2AFD28CD2A9C25E
:10045A00E8A295B3929530B20CD29230B307D291FA
:10046A00E4F50BF51030B317750B01E50A6401705A
:10047A0002F50AE50945087006D291F50BF510E573
:10048A000945087019E50B7015E5106401700FE550
:10049A001164027009120796EF7003750A031206B7
:1004AA00BCEF7003750A03AC1BE4120337AB1AAA3C
:1004BA0019A918A81712001D8F0F8E0E8D0D8C0CFE
:1004CA00E4FFFE7D707C41AB15AA14A913A8121291
:1004DA00001DAB0FAA0EA90DA80C1202B4600740AA
:1004EA0005750A028008E50A64027002F50AE4FF4B
:1004FA00FE7D347C42AB0FAA0EA90DA80C1202B4E1
:10050A00600F400DE4F50FF50E750D34750C428041
:10051A001FE4FFFE7DA07C41AB0FAA0EA90DA80C1B
:10052A001202B4500BE4F50FF50E750DA0750C41CF
:10053A00E50A7025C2E8FFFE7D207C41AB0FAA0EBA
:10054A00A90DA80C12010E7B007A80794778C31294
:10055A00001D12036B8FA08024D2E8AF0A7E00EF41
:10056A006401700575A0FB8014EF64024E70057576
:10057A00A0FC8009EF64034E700375A0FD85801C02
:10058A00AF1C7E00C3EF949674809480402ED3EF04
:10059A0094FA748094805024AC1CE4120337E4FB70
:1005AA00FA79207841120217E4FBFA79707841123D
:1005BA00001D8F158E148D138C128023E51C6494F4
:1005CA00701DD3E50994C8E50894005012C29175CC
:1005DA001001751101D28CD2A975081F750940AF97
:1005EA0015AE14AD13AC12AB0FAA0EA90DA80C12BE
:1005FA0002B4401AD290D29220B20302045B20B312
:10060A000302045BD291E4F50BF51002045B30B2ED
:10061A000ED29230B30BD291E4F50BF5108002C2E0
:06062A0092C29002045B85
:03000300020006F2
:0100060032C7
:03000B0002072DBC
:10072D00C0E0C0D075D000758C3C758AB0AF117E1D
:10073D0000EF64017013D3E5099400E508940040BF
:10074D0008E509150970021508EF64024E700205DF
:10075D0016E50945087003751102E51664FA700A6D
:10076D00F511F516D291C28CC2A930B317750B01D4
:10077D00E50A64017002F50AE50945087006D29193
:09078D00F50BF510D0D0D0E032DC
:0300130002083DA3
:10083D00C0E0750B01E50A64017002F50AE5094592
:0C084D00087006D291F50BF510D0E032D7
:10085900C2A9C28CC28D758921758C3C758AB0C2BA
:040869008CC2A92272
:100016000203D7E86480F8E933E83360110460F03E
:10002600ED33EC337009E8FCE9FDEAFEEBFF220450
:1000360060DED3EB9FEA9EE99DE8C2E78CF0C2F74B
:1000460095F0400CE8CCF8E9CDF9EACEFAEBCFFB17
:100056001203A285D0F05804700320D5B3E80470CB
:10006600075002B2D50203E192D5EC0460F7E4CC66
:10007600C0E0C398F8603B94186008400DD0E0FBE0
:100086000203B9E4FBFAC9FC8028E830E406E4C9B7
:10009600FBE4CAFCE830E305E4C9CACBFCE8540734
:1000A6006010F8C3E913F9EA13FAEB13FBEC13FC3F
:1000B600D8F130F52FC3E49CFCEF9BFFEE9AFEEDE2
:1000C60099FDD0E0FBEF4E4D4C701222DB0302038C
:1000D600DEEC2CFCEF33FFEE33FEED33FDED30E7C7
:1000E600EB0203B9EF2BFFEE3AFEED39FDD0E0FB54
:1000F60050130BBB00030203E1ED13FDEE13FEEFFD
:0801060013FFEC13FC0203B926
:10010E00EC4D6011E8497017ED33EC3304600DE4EB
:10011E00FCFFFEFD22E933E8330470F80203D71228
:10012E0003A258046009E4CC248150062850090229
:10013E0003E12840030203DEC0E0EB4A7044B980BD
:10014E0006D0E0FB0203CDEF4E701CBD8008EBFF26
:10015E00EAFEE9FD80EBE98DF0A4FEE5F00201F781
:10016E00E9CDF9EAFEEBFFEF89F0A4FCE5F0CE89CC
:10017E00F0A42EFFE435F0CD89F0A42DFEE435F089
:10018E008067EF4E7005BD80D780C3EF8BF0A4ACB7
:10019E00F0EE8BF0A42CFCE435F0F8EF8AF0A42CF2
:1001AE00E5F038FCE433CB8DF0A42CFCE5F03BF805
:1001BE00EE8AF0A42CFCE5F038F8E433CF89F0A4F5
:1001CE002CFCE5F038CF3400CE89F0A42FFFE5F0FB
:1001DE003EFEE433C98DF0A42EFEE5F039CD8AF053
:1001EE00A42FFFE5F03EFEE43DFD33D0E0FB5007CB
:1001FE000BBB000F0203E1EC2CFCEF33FFEE33FEE2
:06020E00ED33FD0203B90F
:100214000203E1EC5D046005E8590470030203D7AE
:100224001203A2580460F6EC4860F2EC7004FDFE80
:10023400FF22C860DB2481C85009C39860025006BD
:100244000203DE9850CAF582E9294B4A7005AB8255
:100254000203CD75F0007C1A7880C3EF9BEE9AED13
:1002640099400DC3EF9BFFEE9AFEED99FDE842F035
:10027400DC23ACF0D0E0FFD0E0FED0E0FDAB822088
:10028400E7101BEB60BAEC2CFCEF33FFEE33FEED12
:1002940033FD0203B9E803F830E705C0F075F00058
:1002A400EF2FFFEE33FEED33FD40B830E7C280AAF6
:1002B40074F8CC6480CCC86480C8F58204604FC3F1
:1002C400EB9FF5F0EA9E42F0E99D42F0E89C45F090
:1002D400603C501DE5825FFFE582D313CB5BCBF41A
:1002E4002B5582FB50280ABA002409B90020088043
:1002F4001DE5825BFBE582D313CF5FCFF4C3132FDD
:100304005582FF50090EBE00050DBD00010CC3EB64
:100314009FF5F0EA9E42F0E99D42F0E89C45F060CA
:0903240007CC4820E701B3EC22EC
:10032D0075F020800E75F010800575F0087D007E4B
:10033D00007F003392D530D5031203ECEC3340101F
:10034D00EF33FFEE33FEED33FDEC33FCD5F0ED2254
:0E035D00E5F0247EA2D513CC92E7CDCEFF2290
:10036B00EDD2E7CD33EC3392D524814006E4FFFE8A
:10037B00FDFC22FCE4CFCECDCC24E0501174FF80E9
:10038B00EDC3CC13CCCD13CDCE13CECF13CF047086
:07039B00F030D5DE0203EC97
:1003A200E9D2E7C933E833F892D5EDD2E7CD33ECA1
:0703B20033FC5002B2D5221A
:1003B900EC30E7100FBF000C0EBE00080DBD0004A5
:1003C9000BEB6014A2D5EB13FCED92E7FD2274FF51
:1003D900FCFDFEFF22E480F8A2D574FF13FC7D80AA
:0303E900E480EFBE
:10063C000203FAE493A3F8E493A34003F68001F2D7
:10064C0008DFF48029E493A3F85407240CC8C333BF
:10065C00C4540F4420C8834004F456800146F6DF8E
:10066C00E4800B0102040810204080900814E47E02
:10067C00019360BCA3FF543F30E509541FFEE49383
:10068C00A360010ECF54C025E060A840B8E493A34A
:10069C00FAE493A3F8E493A3C8C582C8CAC583CA75
:1006AC00F0A3C8C582C8CAC583CADFE9DEE780BE2D
:01083C0000BB
:0E03EC00C3E49FFFE49EFEE49DFDE49CFC2222
:00000001FF
