:10097E00000100020004000800100020004000806A
:10098E000100020000010002000400080010002017
:0A099E000040008001000200FFFF8E
:1009E0000124000127000229000001250001280040
:0309F000012600DD
:1005B600C2AF758E01C2EB12091C12000375080149
:1005C600AF081200260508E508D3941440F2D2AF0E
:1005D600E527C394294014E527D3943C500D74D8DD
:1005E6002527F527FF1207917527FFE527B4800712
:1005F600D295D2967527FFE52464C370337FC31264
:1006060009CED295D2967F151208CFC295C2961200
:1006160009A81209A81209A8750801AF081203480B
:100626000508E508D3941440F2D295D2967524FFB6
:10063600E524B4CC107B017A0079007D787C001229
:10064600094F7524FFE524C394654084E524D394BB
:100656007840030205D6749C2524F524752601FFEF
:090666001200267524FF0205D6DE
:0300230002080AC6
:10080A00C0E0C0D075D000C2AFC299C298AF997586
:10081A0029008F2AE52A64C34529601EC3E52A9464
:10082A0065E5299400400BD3E52A9478E5299400DC
:10083A004008E52A64CC45297003852A24C3E52AA1
:10084A009429E5299400400BD3E52A943CE52994A0
:10085A00004008E52A648045297003852A27D2AF1B
:05086A00D0D0D0E03207
:10000300C2ACC2CAE4F58775985075C834F5C97592
:10001300CDFE75CCE075CBFE75CAE0D2CAD2AC2258
:0409CA00F583E0FFD2
:1009CE00C2ACD2EBC2998F993099FDC299C2EBD2CB
:0209DE00AC2249
:0A094F008B098A0A890B8C0C8D0DB0
:10095900E4FDFCAB09AA0AA90B8D828C8312066FF0
:10096900FF1209CE0DBD00010CC3ED950DEC950CE0
:0409790040E1D2ACDB
:01097D002257
:0409A8007F967E00B8
:1009AC00EF1FAA0670011E4A6013E4FCFDC3ED9410
:0D09BC0064EC940050EA0DBD00010C80F0C9
:0109C900220B
:10091C00C2B2C2B3C2B4D296D295D2E8D2A0D2A1FE
:10092C00D2A2D2A3D2A4D2A5D2A6D2A7D2E9D290D7
:10093C00D2EAD280D281D282D283D284D285D2869C
:03094C00D287222D
:1008CF00C2B2C2B3C2B4EF25E0247CF582E434098E
:1008DF00F583E493FE740193FFE4FDC2B3EE20E7CA
:1008EF0004C2B28002D2B27801EF08800633CE3351
:1008FF00CE92E0D8F8FF0000D2B300000DBD10DBA0
:0C090F00C2B30000D2B40000C2B400006B
:01091B0022B9
:020026008F0940
:10002800C2AFD295D2961208CFE50914B414004095
:10003800030200FC90004A75F003A4C58325F0C5AF
:1000480083730200F80200F20200EC0200E60200EC
:10005800E00200DA0200D40200CE0200C80200C2A8
:100068000200BC0200B60200B00200AA0200A4020C
:10007800009E02009802009202008C020086C2953F
:10008800C2878070C295C286806AC295C285806424
:10009800C295C284805EC295C2838058C295C282CE
:1000A8008052C295C281804CC295C2808046C2955A
:1000B800C2EA8040C295C290803AC296C2E98034B2
:1000C800C296C2A7802EC296C2A68028C296C2A592
:1000D8008022C296C2A4801CC296C2A38016C29671
:1000E800C2A28010C296C2A1800AC296C2A0800491
:1000F800C296C2E81209A8C2B6C2B71208718E0A1F
:100108008F0B1208788E128F131208788E1A8F1B95
:10011800D2B612086F8E0C8F0D1208788E148F15B8
:100128001208788E1C8F1DC2B612086F8E0E8F0FA4
:100138001208788E168F171208788E1E8F1FE50BFF
:100148002513FFE50A3512FEE51B2FFFE51A3EFED3
:100158007C007D0312069CAC06AD07ECFFE5097533
:10016800F006A424FAF582E434FFF583EFF0AF0536
:10017800E50975F006A424FBF582E434FFF583EF66
:10018800F0E50D2515FFE50C3514FEE51D2FFFE5FF
:100198001C3EFE7C007D0312069CAC06AD07ECFFFE
:1001A800E50975F006A424FCF582E434FFF583EF35
:1001B800F0AF05E50975F006A424FDF582E434FFE7
:1001C800F583EFF0E50F2517FFE50E3516FEE51F61
:1001D8002FFFE51E3EFE7C007D0312069CAC06AD9B
:1001E80007ECFFE50975F006A424FEF582E434FF68
:1001F800F583EFF0AF05E50975F006A424FFF58255
:10020800E434FFF583EFF0E52664017062E50975D3
:10021800F006A424FAF582E434FF1209CAE5097548
:10022800F006A424FBF582E434FF1209CAE5097537
:10023800F006A424FCF582E434FF1209CAE5097526
:10024800F006A424FDF582E434FF1209CAE5097515
:10025800F006A424FEF582E434FF1209CAE5097504
:10026800F006A424FFF582E434FF1209CA8000E4F2
:10027800F526E50914B414004003020345900293DF
:1002880075F003A4C58325F0C583730203410203F7
:100298003B02033502032F02032902032302031D35
:1002A80002031702031102030B0203050202FF02F5
:1002B80002F90202F30202ED0202E70202E102027F
:1002C800DB0202D50202CFD295D2878070D295D2B6
:1002D80086806AD295D2858064D295D284805ED297
:1002E80095D2838058D295D2828052D295D281807D
:1002F8004CD295D2808046D295D2EA8040D295D20F
:1003080090803AD296D2E98034D296D2A7802ED263
:1003180096D2A68028D296D2A58022D296D2A48040
:100328001CD296D2A38016D296D2A28010D296D290
:0F033800A1800AD296D2A08004D296D2E8D2AF8A
:010347002293
:0D086F00D2B77F647E001209AC74FFFFFE5B
:04087C008E228F2316
:10088000758951E4F588AE22AF23AB07AA06C39B56
:10089000FFE49AFE74019400FDE49400FC780812D1
:1008A00006F1E48F8CAF23AB07C39BFFE48F8AF57F
:1008B0008DF58BD28CD28E308DFDC28EC28CC28DC6
:0E08C000AF8DEFFEAD8B7C00E42DFFEC3EFE15
:0108CE002207
:10079100AC07C2AF1208CFEC14B414005068900734
:1007A100AD75F003A4C58325F0C583730208030268
:1007B10008010207FF0207FD0207FB0207F9020712
:1007C100F70207F50207F30207F10207EB0207EB55
:1007D1000207EB0207EB0207EB0207EB0207EB0252
:1007E10007EB0207EB0207EB8000C295D296801659
:1007F1008010800E800C800A8008800680048002B0
:090801008000C296D295D2AF220C
:020348008F091B
:10034A00C2AFE50914B4140040030203EF90036539
:10035A0075F003A4C58325F0C583730203ED020378
:10036A00E90203E50203E10203DD0203D90203D530
:10037A000203D10203CD0203C90203C50203C1026B
:10038A0003BD0203B90203B50203B10203AD0203BE
:10039A00A90203A50203A1C287804AC2868046C277
:1003AA00858042C284803EC283803AC2828036C23D
:1003BA00818032C280802EC2EA802AC2908026C200
:1003CA00E98022C2A7801EC2A6801AC2A58016C2D0
:1003DA00A48012C2A3800EC2A2800AC2A18006C251
:1003EA00A08002C2E87F017E001209ACC2B6C2B781
:1003FA007F0A1208738E0A8F0B1208788E128F13D7
:10040A001208788E1A8F1BD2B6D2B77F0A120873D7
:10041A008E0C8F0D1208788E148F151208788E1C88
:10042A008F1DC2B6D2B77F0A1208738E0E8F0F12B3
:10043A0008788E168F171208788E1E8F1FE50B25E7
:10044A0013FFE50A3512FEE51B2FFFE51A3EFE7C77
:10045A00007D0312069CAC06AD07ECFFE50975F0BA
:10046A0006A424FAF582E434FFF583EFF0AF05E53C
:10047A000975F006A424FBF582E434FFF583EFF056
:10048A00E50D2515FFE50C3514FEE51D2FFFE51CCE
:10049A003EFE7C007D0312069CAC06AD07ECFFE530
:1004AA000975F006A424FCF582E434FFF583EFF025
:1004BA00AF05E50975F006A424FDF582E434FFF5DD
:1004CA0083EFF0E50F2517FFE50E3516FEE51F2F22
:1004DA00FFE51E3EFE7C007D0312069CAC06AD07BE
:1004EA00ECFFE50975F006A424FEF582E434FFF575
:1004FA0083EFF0AF05E50975F006A424FFF582E461
:10050A0034FFF583EFF0E50914B414004003020543
:10051A00B390052975F003A4C58325F0C58373023A
:10052A0005B10205AD0205A90205A50205A102054C
:10053A009D02059902059502059102058D0205891C
:10054A0002058502058102057D020579020575020B
:10055A00057102056D020569020565D287804AD2D6
:10056A00868046D2858042D284803ED283803AD227
:10057A00828036D2818032D280802ED2EA802AD2FC
:10058A00908026D2E98022D2A7801ED2A6801AD2D3
:10059A00A58016D2A48012D2A3800ED2A2800AD23B
:0B05AA00A18006D2A08002D2E8D2AFF0
:0105B5002223
:03000000020705EF
:0C070500787FE4F6D8FD75812A02074CCD
:10066F00BB010CE58229F582E5833AF583E0225040
:10067F0006E92582F8E622BBFE06E92582F8E2228A
:0D068F00E58229F582E5833AF583E49322A4
:10069C00BC000BBE0029EF8DF084FFADF022E4CC42
:1006AC00F875F008EF2FFFEE33FEEC33FCEE9DEC0B
:1006BC00984005FCEE9DFE0FD5F0E9E4CEFD22ED51
:1006CC00F8F5F0EE8420D21CFEADF075F008EF2F9B
:1006DC00FFED33FD4007985006D5F0F222C398FD8C
:0506EC000FD5F0EA2229
:1006F100E86010ECA2E713FCED13FDEE13FEEF131F
:04070100FFD8F0220B
:100711000205B6E493A3F8E493A34003F68001F243
:1007210008DFF48029E493A3F85407240CC8C333E9
:10073100C4540F4420C8834004F456800146F6DFB8
:10074100E4800B01020408102040809009E0E47E5F
:10075100019360BCA3FF543F30E509541FFEE493AD
:10076100A360010ECF54C025E060A840B8E493A374
:10077100FAE493A3F8E493A3C8C582C8CAC583CA9F
:10078100F0A3C8C582C8CAC583CADFE9DEE780BE57
:0109F3000003
:00000001FF
