:030000000206FDF8
:0C06FD00787FE4F6D8FD75812A020744DE
:100976000001000200040008001000200040008072
:10098600010002000001000200040008001000201F
:0A0996000040008001000200FFFF96
:1009D8000124000127000229000001250001280048
:0309E800012600E5
:1005B600C2AF758E01C2EB12091412000375080151
:1005C600AF081200260508E508D3941440F2D2AF0E
:1005D600E527C39401400FE527D394145008AF27AD
:1005E6001207897527FFE527B48007D295D296753D
:1005F60027FFE52464C170337FC11209C6D295D2A4
:10060600967F151208C7C295C2961209A01209A0B4
:100616001209A0750801AF081203480508E508D3BA
:10062600941440F2D295D2967524FFE524B4CA10EC
:100636007B017A0079007D787C001209477524FFDA
:10064600E524C3943D4089E524D39450508274C474
:100656002524F524752601FF1200267524FF0205C0
:01066600D6BD
:03002300020802CE
:10080200C0E0C0D075D000C2AFC299C298AF99758E
:1008120029008F2AE52A64C14529601EC3E52A946E
:100822003DE5299400400BD3E52A9450E529940034
:100832004008E52A64CA45297003852A24C3E52AAB
:100842009401E5299400400BD3E52A9414E52994F8
:10085200004008E52A648045297003852A27D2AF23
:05086200D0D0D0E0320F
:10000300C2ACC2CAE4F58775985075C834F5C97592
:10001300CDFE75CCE075CBFE75CAE0D2CAD2AC2258
:0409C200F583E0FFDA
:1009C600C2ACD2EBC2998F993099FDC299C2EBD2D3
:0209D600AC2251
:0A0947008B098A0A890B8C0C8D0DB8
:10095100E4FDFCAB09AA0AA90B8D828C8312066700
:10096100FF1209C60DBD00010CC3ED950DEC950CF0
:0409710040E1D2ACE3
:01097500225F
:0409A0007F967E00C0
:1009A400EF1FAA0670011E4A6013E4FCFDC3ED9418
:0D09B40064EC940050EA0DBD00010C80F0D1
:0109C1002213
:10091400C2B2C2B3C2B4D296D295D2E8D2A0D2A106
:10092400D2A2D2A3D2A4D2A5D2A6D2A7D2E9D290DF
:10093400D2EAD280D281D282D283D284D285D286A4
:03094400D2872235
:1008C700C2B2C2B3C2B4EF25E02474F582E434099E
:1008D700F583E493FE740193FFE4FDC2B3EE20E7D2
:1008E70004C2B28002D2B27801EF08800633CE3359
:1008F700CE92E0D8F8FF0000D2B300000DBD10DBA8
:0C090700C2B30000D2B40000C2B4000073
:0109130022C1
:020026008F0940
:10002800C2AFD295D2961208C7E50914B41400409D
:10003800030200FC90004A75F003A4C58325F0C5AF
:1000480083730200F80200F20200EC0200E60200EC
:10005800E00200DA0200D40200CE0200C80200C2A8
:100068000200BC0200B60200B00200AA0200A4020C
:10007800009E02009802009202008C020086C2953F
:10008800C2878070C295C286806AC295C285806424
:10009800C295C284805EC295C2838058C295C282CE
:1000A8008052C295C281804CC295C2808046C2955A
:1000B800C2EA8040C295C290803AC296C2E98034B2
:1000C800C296C2A7802EC296C2A68028C296C2A592
:1000D8008022C296C2A4801CC296C2A38016C29671
:1000E800C2A28010C296C2A1800AC296C2A0800491
:1000F800C296C2E81209A0C2B6C2B71208698E0A2F
:100108008F0B1208708E128F131208708E1A8F1BA5
:10011800D2B61208678E0C8F0D1208708E148F15C8
:100128001208708E1C8F1DC2B61208678E0E8F0FB4
:100138001208708E168F171208708E1E8F1FE50B0F
:100148002513FFE50A3512FEE51B2FFFE51A3EFED3
:100158007C007D03120694AC06AD07ECFFE509753B
:10016800F006A424FAF582E434FFF583EFF0AF0536
:10017800E50975F006A424FBF582E434FFF583EF66
:10018800F0E50D2515FFE50C3514FEE51D2FFFE5FF
:100198001C3EFE7C007D03120694AC06AD07ECFF06
:1001A800E50975F006A424FCF582E434FFF583EF35
:1001B800F0AF05E50975F006A424FDF582E434FFE7
:1001C800F583EFF0E50F2517FFE50E3516FEE51F61
:1001D8002FFFE51E3EFE7C007D03120694AC06ADA3
:1001E80007ECFFE50975F006A424FEF582E434FF68
:1001F800F583EFF0AF05E50975F006A424FFF58255
:10020800E434FFF583EFF0E52664017062E50975D3
:10021800F006A424FAF582E434FF1209C2E5097550
:10022800F006A424FBF582E434FF1209C2E509753F
:10023800F006A424FCF582E434FF1209C2E509752E
:10024800F006A424FDF582E434FF1209C2E509751D
:10025800F006A424FEF582E434FF1209C2E509750C
:10026800F006A424FFF582E434FF1209C28000E4FA
:10027800F526E50914B414004003020345900293DF
:1002880075F003A4C58325F0C583730203410203F7
:100298003B02033502032F02032902032302031D35
:1002A80002031702031102030B0203050202FF02F5
:1002B80002F90202F30202ED0202E70202E102027F
:1002C800DB0202D50202CFD295D2878070D295D2B6
:1002D80086806AD295D2858064D295D284805ED297
:1002E80095D2838058D295D2828052D295D281807D
:1002F8004CD295D2808046D295D2EA8040D295D20F
:1003080090803AD296D2E98034D296D2A7802ED263
:1003180096D2A68028D296D2A58022D296D2A48040
:100328001CD296D2A38016D296D2A28010D296D290
:0F033800A1800AD296D2A08004D296D2E8D2AF8A
:010347002293
:0D086700D2B77F647E001209A474FFFFFE6B
:040874008E228F231E
:10087800758951E4F588AE22AF23AB07AA06C39B5E
:10088800FFE49AFE74019400FDE49400FC780812D9
:1008980006E9E48F8CAF23AB07C39BFFE48F8AF58F
:1008A8008DF58BD28CD28E308DFDC28EC28CC28DCE
:0E08B800AF8DEFFEAD8B7C00E42DFFEC3EFE1D
:0108C600220F
:10078900AC07C2AF1208C7EC14B414005068900744
:10079900A575F003A4C58325F0C583730207FB0281
:1007A90007F90207F70207F50207F30207F1020743
:1007B900EF0207ED0207EB0207E90207E30207E38D
:1007C9000207E30207E30207E30207E30207E30282
:1007D90007E30207E30207E38000C295D296801679
:1007E9008010800E800C800A8008800680048002B8
:0907F9008000C296D295D2AF2215
:020348008F091B
:10034A00C2AFE50914B4140040030203EF90036539
:10035A0075F003A4C58325F0C583730203ED020378
:10036A00E90203E50203E10203DD0203D90203D530
:10037A000203D10203CD0203C90203C50203C1026B
:10038A0003BD0203B90203B50203B10203AD0203BE
:10039A00A90203A50203A1C287804AC2868046C277
:1003AA00858042C284803EC283803AC2828036C23D
:1003BA00818032C280802EC2EA802AC2908026C200
:1003CA00E98022C2A7801EC2A6801AC2A58016C2D0
:1003DA00A48012C2A3800EC2A2800AC2A18006C251
:1003EA00A08002C2E87F017E001209A4C2B6C2B789
:1003FA007F0A12086B8E0A8F0B1208708E128F13E7
:10040A001208708E1A8F1BD2B6D2B77F0A12086BE7
:10041A008E0C8F0D1208708E148F151208708E1C98
:10042A008F1DC2B6D2B77F0A12086B8E0E8F0F12BB
:10043A0008708E168F171208708E1E8F1FE50B25F7
:10044A0013FFE50A3512FEE51B2FFFE51A3EFE7C77
:10045A00007D03120694AC06AD07ECFFE50975F0C2
:10046A0006A424FAF582E434FFF583EFF0AF05E53C
:10047A000975F006A424FBF582E434FFF583EFF056
:10048A00E50D2515FFE50C3514FEE51D2FFFE51CCE
:10049A003EFE7C007D03120694AC06AD07ECFFE538
:1004AA000975F006A424FCF582E434FFF583EFF025
:1004BA00AF05E50975F006A424FDF582E434FFF5DD
:1004CA0083EFF0E50F2517FFE50E3516FEE51F2F22
:1004DA00FFE51E3EFE7C007D03120694AC06AD07C6
:1004EA00ECFFE50975F006A424FEF582E434FFF575
:1004FA0083EFF0AF05E50975F006A424FFF582E461
:10050A0034FFF583EFF0E50914B414004003020543
:10051A00B390052975F003A4C58325F0C58373023A
:10052A0005B10205AD0205A90205A50205A102054C
:10053A009D02059902059502059102058D0205891C
:10054A0002058502058102057D020579020575020B
:10055A00057102056D020569020565D287804AD2D6
:10056A00868046D2858042D284803ED283803AD227
:10057A00828036D2818032D280802ED2EA802AD2FC
:10058A00908026D2E98022D2A7801ED2A6801AD2D3
:10059A00A58016D2A48012D2A3800ED2A2800AD23B
:0B05AA00A18006D2A08002D2E8D2AFF0
:0105B5002223
:100709000205B6E493A3F8E493A34003F68001F24B
:1007190008DFF48029E493A3F85407240CC8C333F1
:10072900C4540F4420C8834004F456800146F6DFC0
:10073900E4800B01020408102040809009D8E47E6F
:10074900019360BCA3FF543F30E509541FFEE493B5
:10075900A360010ECF54C025E060A840B8E493A37C
:10076900FAE493A3F8E493A3C8C582C8CAC583CAA7
:10077900F0A3C8C582C8CAC583CADFE9DEE780BE5F
:0109EB00000B
:10066700BB010CE58229F582E5833AF583E0225048
:1006770006E92582F8E622BBFE06E92582F8E22292
:0D068700E58229F582E5833AF583E49322AC
:10069400BC000BBE0029EF8DF084FFADF022E4CC4A
:1006A400F875F008EF2FFFEE33FEEC33FCEE9DEC13
:1006B400984005FCEE9DFE0FD5F0E9E4CEFD22ED59
:1006C400F8F5F0EE8420D21CFEADF075F008EF2FA3
:1006D400FFED33FD4007985006D5F0F222C398FD94
:0506E4000FD5F0EA2231
:1006E900E86010ECA2E713FCED13FDEE13FEEF1327
:0406F900FFD8F02214
:00000001FF
