:03000000020722D2
:0C072200787FE4F6D8FD75812A02076993
:1009A4000001000200040008001000200040008044
:1009B40001000200000100020004000800100020F1
:0A09C4000040008001000200FFFF68
:100A06000124000127000229000001250001280019
:030A1600012600B6
:1005B600C2AF758E01C2EB12094212000375080123
:1005C600D3E5089414748094805009AF081200266D
:1005D600050880ECD2AFAF277E00C3EF940174808C
:1005E60094804010D3EF94147480948050061207C0
:1005F600AE7527FFE52764807007D295D2967527DA
:10060600FFE52464C170397FC11209F4D295D296F0
:100616007F151208ECC295C2961209CE1209CE12A7
:1006260009CE750801D3E5089414748094805009A6
:10063600AF08120348050880ECD295D2967524FFC0
:10064600E52464CA700F7B017A0079007D78FC127C
:1006560009757524FFAF247E00C3EF943D74809422
:100666008050030205DCD3EF9450748094804003DD
:100676000205DC74C42524F524752601FF12002624
:060686007524FF0205DCF3
:03002300020827A9
:10082700C0E0C0D075D000C2AFC299C298AF997569
:1008370029008F2AE52A64C14529601EC3E52A9449
:100847003DE5299400400BD3E52A9450E52994000F
:100857004008E52A64CA45297003852A24C3E52A86
:100867009401E5299400400BD3E52A9414E52994D3
:10087700004008E52A648045297003852A27D2AFFE
:05088700D0D0D0E032EA
:10000300C2ACC2CAE4F58775985075C834F5C97592
:10001300CDFE75CCE075CBFE75CAE0D2CAD2AC2258
:0409F000F583E0FFAC
:1009F400C2ACD2EBC2998F993099FDC299C2EBD2A5
:020A0400AC2222
:0A0975008B098A0A890B8C0C8D0D8A
:10097F00E4FDFCAB09AA0AA90B8D828C8312068CAD
:10098F00FF1209F40DBD00010CC3ED950DEC950C94
:04099F0040E1D2ACB5
:0109A3002231
:0409CE007F967E0092
:1009D200EF1FAA0670011E4A6013E4FCFDC3ED94EA
:0D09E20064EC940050EA0DBD00010C80F0A3
:0109EF0022E5
:10094200C2B2C2B3C2B4D296D295D2E8D2A0D2A1D8
:10095200D2A2D2A3D2A4D2A5D2A6D2A7D2E9D290B1
:10096200D2EAD280D281D282D283D284D285D28676
:03097200D2872207
:1008EC00C2B2C2B3C2B4EF25E024A2F582E434094B
:1008FC00F583E493FE740193FFE4FDEDC39410744F
:10090C008094805024C2B3EE20E704C2B28002D29D
:10091C00B27801EF08800633CE33CE92E0D8F8FFE0
:10092C000000D2B300000D80D2C2B30000D2B400DC
:05093C0000C2B4000040
:010941002293
:020026008F0940
:10002800C2AFD295D2961208ECE50914B414004078
:10003800030200FC90004A75F003A4C58325F0C5AF
:1000480083730200F80200F20200EC0200E60200EC
:10005800E00200DA0200D40200CE0200C80200C2A8
:100068000200BC0200B60200B00200AA0200A4020C
:10007800009E02009802009202008C020086C2953F
:10008800C2878070C295C286806AC295C285806424
:10009800C295C284805EC295C2838058C295C282CE
:1000A8008052C295C281804CC295C2808046C2955A
:1000B800C2EA8040C295C290803AC296C2E98034B2
:1000C800C296C2A7802EC296C2A68028C296C2A592
:1000D8008022C296C2A4801CC296C2A38016C29671
:1000E800C2A28010C296C2A1800AC296C2A0800491
:1000F800C296C2E81209CEC2B6C2B712088E8E0ADC
:100108008F0B1208958E128F131208958E1A8F1B5B
:10011800D2B612088C8E0C8F0D1208958E148F157E
:100128001208958E1C8F1DC2B612088C8E0E8F0F6A
:100138001208958E168F171208958E1E8F1FE50BC5
:100148002513FFE50A3512FEE51B2FFFE51A3EFED3
:100158007C007D031206B9AC06AD07ECFFE5097516
:10016800F006A424FAF582E434FFF583EFF0AF0536
:10017800E50975F006A424FBF582E434FFF583EF66
:10018800F0E50D2515FFE50C3514FEE51D2FFFE5FF
:100198001C3EFE7C007D031206B9AC06AD07ECFFE1
:1001A800E50975F006A424FCF582E434FFF583EF35
:1001B800F0AF05E50975F006A424FDF582E434FFE7
:1001C800F583EFF0E50F2517FFE50E3516FEE51F61
:1001D8002FFFE51E3EFE7C007D031206B9AC06AD7E
:1001E80007ECFFE50975F006A424FEF582E434FF68
:1001F800F583EFF0AF05E50975F006A424FFF58255
:10020800E434FFF583EFF0E52664017062E50975D3
:10021800F006A424FAF582E434FF1209F0E5097522
:10022800F006A424FBF582E434FF1209F0E5097511
:10023800F006A424FCF582E434FF1209F0E5097500
:10024800F006A424FDF582E434FF1209F0E50975EF
:10025800F006A424FEF582E434FF1209F0E50975DE
:10026800F006A424FFF582E434FF1209F08000E4CC
:10027800F526E50914B414004003020345900293DF
:1002880075F003A4C58325F0C583730203410203F7
:100298003B02033502032F02032902032302031D35
:1002A80002031702031102030B0203050202FF02F5
:1002B80002F90202F30202ED0202E70202E102027F
:1002C800DB0202D50202CFD295D2878070D295D2B6
:1002D80086806AD295D2858064D295D284805ED297
:1002E80095D2838058D295D2828052D295D281807D
:1002F8004CD295D2808046D295D2EA8040D295D20F
:1003080090803AD296D2E98034D296D2A7802ED263
:1003180096D2A68028D296D2A58022D296D2A48040
:100328001CD296D2A38016D296D2A28010D296D290
:0F033800A1800AD296D2A08004D296D2E8D2AF8A
:010347002293
:0D088C00D2B77F647E001209D274FFFFFE18
:040899008E228F23F9
:10089D00758951E4F588AE22AF23AB07AA06C39B39
:1008AD00FFE49AFE74019400FDE49400FC780812B4
:1008BD00070EE48F8CAF23AB07C39BFFE48F8AF544
:1008CD008DF58BD28CD28E308DFDC28EC28CC28DA9
:0E08DD00AF8DEFFEAD8B7C00E42DFFEC3EFEF8
:0108EB0022EA
:1007AE00AC07C2AF1208ECEC14B4140050689007FA
:1007BE00CA75F003A4C58325F0C583730208200211
:1007CE00081E02081C02081A02081802081602085F
:1007DE001402081202081002080E02080802080885
:1007EE00020808020808020808020808020808029F
:1007FE0008080208080208088000C295D2968016E2
:10080E008010800E800C800A800880068004800292
:09081E008000C296D295D2AF22EF
:020348008F091B
:10034A00C2AFE50914B4140040030203EF90036539
:10035A0075F003A4C58325F0C583730203ED020378
:10036A00E90203E50203E10203DD0203D90203D530
:10037A000203D10203CD0203C90203C50203C1026B
:10038A0003BD0203B90203B50203B10203AD0203BE
:10039A00A90203A50203A1C287804AC2868046C277
:1003AA00858042C284803EC283803AC2828036C23D
:1003BA00818032C280802EC2EA802AC2908026C200
:1003CA00E98022C2A7801EC2A6801AC2A58016C2D0
:1003DA00A48012C2A3800EC2A2800AC2A18006C251
:1003EA00A08002C2E87F017E001209D2C2B6C2B75B
:1003FA007F0A1208908E0A8F0B1208958E128F139D
:10040A001208958E1A8F1BD2B6D2B77F0A1208909D
:10041A008E0C8F0D1208958E148F151208958E1C4E
:10042A008F1DC2B6D2B77F0A1208908E0E8F0F1296
:10043A0008958E168F171208958E1E8F1FE50B25AD
:10044A0013FFE50A3512FEE51B2FFFE51A3EFE7C77
:10045A00007D031206B9AC06AD07ECFFE50975F09D
:10046A0006A424FAF582E434FFF583EFF0AF05E53C
:10047A000975F006A424FBF582E434FFF583EFF056
:10048A00E50D2515FFE50C3514FEE51D2FFFE51CCE
:10049A003EFE7C007D031206B9AC06AD07ECFFE513
:1004AA000975F006A424FCF582E434FFF583EFF025
:1004BA00AF05E50975F006A424FDF582E434FFF5DD
:1004CA0083EFF0E50F2517FFE50E3516FEE51F2F22
:1004DA00FFE51E3EFE7C007D031206B9AC06AD07A1
:1004EA00ECFFE50975F006A424FEF582E434FFF575
:1004FA0083EFF0AF05E50975F006A424FFF582E461
:10050A0034FFF583EFF0E50914B414004003020543
:10051A00B390052975F003A4C58325F0C58373023A
:10052A0005B10205AD0205A90205A50205A102054C
:10053A009D02059902059502059102058D0205891C
:10054A0002058502058102057D020579020575020B
:10055A00057102056D020569020565D287804AD2D6
:10056A00868046D2858042D284803ED283803AD227
:10057A00828036D2818032D280802ED2EA802AD2FC
:10058A00908026D2E98022D2A7801ED2A6801AD2D3
:10059A00A58016D2A48012D2A3800ED2A2800AD23B
:0B05AA00A18006D2A08002D2E8D2AFF0
:0105B5002223
:10072E000205B6E493A3F8E493A34003F68001F226
:10073E0008DFF48029E493A3F85407240CC8C333CC
:10074E00C4540F4420C8834004F456800146F6DF9B
:10075E00E4800B0102040810204080900A06E47E1B
:10076E00019360BCA3FF543F30E509541FFEE49390
:10077E00A360010ECF54C025E060A840B8E493A357
:10078E00FAE493A3F8E493A3C8C582C8CAC583CA82
:10079E00F0A3C8C582C8CAC583CADFE9DEE780BE3A
:010A190000DC
:10068C00BB010CE58229F582E5833AF583E0225023
:10069C0006E92582F8E622BBFE06E92582F8E2226D
:0D06AC00E58229F582E5833AF583E4932287
:1006B900BC000BBE0029EF8DF084FFADF022E4CC25
:1006C900F875F008EF2FFFEE33FEEC33FCEE9DECEE
:1006D900984005FCEE9DFE0FD5F0E9E4CEFD22ED34
:1006E900F8F5F0EE8420D21CFEADF075F008EF2F7E
:1006F900FFED33FD4007985006D5F0F222C398FD6F
:050709000FD5F0EA220B
:10070E00E86010ECA2E713FCED13FDEE13FEEF1301
:04071E00FFD8F022EE
:00000001FF
