:03000000020729CB
:0C072900787FE4F6D8FD75812A02077085
:1009AB00000100020004000800100020004000803D
:1009BB0001000200000100020004000800100020EA
:0A09CB000040008001000200FFFF61
:100A0D000124000127000229000001250001280012
:030A1D00012600AF
:1005B600C2AF758E01C2EB1209491200037508011C
:1005C600D3E5089414748094805009AF081200266D
:1005D600050880ECD2AFAF277E00C3EF9415748078
:1005E60094804017D3EF942874809480500D74EC57
:1005F6002527F527FF1207B57527FFE527648070C5
:1006060007D295D2967527FFE52464C270397FC25A
:100616001209FBD295D2967F151208F3C295C2969F
:100626001209D51209D51209D5750801D3E5089422
:1006360014748094805009AF08120348050880ECB2
:10064600D295D2967524FFE52464CB700F7B017A90
:100656000079007D78FC12097C7524FFAF247E00AA
:10066600C3EF94517480948050030205DCD3EF9459
:10067600647480948040030205DC74B02524F5245C
:0D068600752601FF1200267524FF0205DC19
:0300230002082EA2
:10082E00C0E0C0D075D000C2AFC299C298AF997562
:10083E0029008F2AE52A64C24529601EC3E52A9441
:10084E0051E5299400400BD3E52A9464E5299400E0
:10085E004008E52A64CB45297003852A24C3E52A7E
:10086E009415E5299400400BD3E52A9428E52994A4
:10087E00004008E52A648045297003852A27D2AFF7
:05088E00D0D0D0E032E3
:10000300C2ACC2CAE4F58775985075C834F5C97592
:10001300CDFE75CCE075CBFE75CAE0D2CAD2AC2258
:0409F700F583E0FFA5
:1009FB00C2ACD2EBC2998F993099FDC299C2EBD29E
:020A0B00AC221B
:0A097C008B098A0A890B8C0C8D0D83
:10098600E4FDFCAB09AA0AA90B8D828C831206939F
:10099600FF1209FB0DBD00010CC3ED950DEC950C86
:0409A60040E1D2ACAE
:0109AA00222A
:0409D5007F967E008B
:1009D900EF1FAA0670011E4A6013E4FCFDC3ED94E3
:0D09E90064EC940050EA0DBD00010C80F09C
:0109F60022DE
:10094900C2B2C2B3C2B4D296D295D2E8D2A0D2A1D1
:10095900D2A2D2A3D2A4D2A5D2A6D2A7D2E9D290AA
:10096900D2EAD280D281D282D283D284D285D2866F
:03097900D2872200
:1008F300C2B2C2B3C2B4EF25E024A9F582E434093D
:10090300F583E493FE740193FFE4FDEDC394107447
:100913008094805024C2B3EE20E704C2B28002D296
:10092300B27801EF08800633CE33CE92E0D8F8FFD9
:100933000000D2B300000D80D2C2B30000D2B400D5
:0509430000C2B4000039
:01094800228C
:020026008F0940
:10002800C2AFD295D2961208F3E50914B414004071
:10003800030200FC90004A75F003A4C58325F0C5AF
:1000480083730200F80200F20200EC0200E60200EC
:10005800E00200DA0200D40200CE0200C80200C2A8
:100068000200BC0200B60200B00200AA0200A4020C
:10007800009E02009802009202008C020086C2953F
:10008800C2878070C295C286806AC295C285806424
:10009800C295C284805EC295C2838058C295C282CE
:1000A8008052C295C281804CC295C2808046C2955A
:1000B800C2EA8040C295C290803AC296C2E98034B2
:1000C800C296C2A7802EC296C2A68028C296C2A592
:1000D8008022C296C2A4801CC296C2A38016C29671
:1000E800C2A28010C296C2A1800AC296C2A0800491
:1000F800C296C2E81209D5C2B6C2B71208958E0ACE
:100108008F0B12089C8E128F1312089C8E1A8F1B4D
:10011800D2B61208938E0C8F0D12089C8E148F1570
:1001280012089C8E1C8F1DC2B61208938E0E8F0F5C
:1001380012089C8E168F1712089C8E1E8F1FE50BB7
:100148002513FFE50A3512FEE51B2FFFE51A3EFED3
:100158007C007D031206C0AC06AD07ECFFE509750F
:10016800F006A424FAF582E434FFF583EFF0AF0536
:10017800E50975F006A424FBF582E434FFF583EF66
:10018800F0E50D2515FFE50C3514FEE51D2FFFE5FF
:100198001C3EFE7C007D031206C0AC06AD07ECFFDA
:1001A800E50975F006A424FCF582E434FFF583EF35
:1001B800F0AF05E50975F006A424FDF582E434FFE7
:1001C800F583EFF0E50F2517FFE50E3516FEE51F61
:1001D8002FFFE51E3EFE7C007D031206C0AC06AD77
:1001E80007ECFFE50975F006A424FEF582E434FF68
:1001F800F583EFF0AF05E50975F006A424FFF58255
:10020800E434FFF583EFF0E52664017062E50975D3
:10021800F006A424FAF582E434FF1209F7E509751B
:10022800F006A424FBF582E434FF1209F7E509750A
:10023800F006A424FCF582E434FF1209F7E50975F9
:10024800F006A424FDF582E434FF1209F7E50975E8
:10025800F006A424FEF582E434FF1209F7E50975D7
:10026800F006A424FFF582E434FF1209F78000E4C5
:10027800F526E50914B414004003020345900293DF
:1002880075F003A4C58325F0C583730203410203F7
:100298003B02033502032F02032902032302031D35
:1002A80002031702031102030B0203050202FF02F5
:1002B80002F90202F30202ED0202E70202E102027F
:1002C800DB0202D50202CFD295D2878070D295D2B6
:1002D80086806AD295D2858064D295D284805ED297
:1002E80095D2838058D295D2828052D295D281807D
:1002F8004CD295D2808046D295D2EA8040D295D20F
:1003080090803AD296D2E98034D296D2A7802ED263
:1003180096D2A68028D296D2A58022D296D2A48040
:100328001CD296D2A38016D296D2A28010D296D290
:0F033800A1800AD296D2A08004D296D2E8D2AF8A
:010347002293
:0D089300D2B77F647E001209D974FFFFFE0A
:0408A0008E228F23F2
:1008A400758951E4F588AE22AF23AB07AA06C39B32
:1008B400FFE49AFE74019400FDE49400FC780812AD
:1008C4000715E48F8CAF23AB07C39BFFE48F8AF536
:1008D4008DF58BD28CD28E308DFDC28EC28CC28DA2
:0E08E400AF8DEFFEAD8B7C00E42DFFEC3EFEF1
:0108F20022E3
:1007B500AC07C2AF1208F3EC14B4140050689007EC
:1007C500D175F003A4C58325F0C5837302082702FC
:1007D500082502082302082102081F02081D020835
:1007E5001B02081902081702081502080F02080F54
:1007F50002080F02080F02080F02080F02080F0275
:10080500080F02080F02080F8000C295D2968016C5
:100815008010800E800C800A80088006800480028B
:090825008000C296D295D2AF22E8
:020348008F091B
:10034A00C2AFE50914B4140040030203EF90036539
:10035A0075F003A4C58325F0C583730203ED020378
:10036A00E90203E50203E10203DD0203D90203D530
:10037A000203D10203CD0203C90203C50203C1026B
:10038A0003BD0203B90203B50203B10203AD0203BE
:10039A00A90203A50203A1C287804AC2868046C277
:1003AA00858042C284803EC283803AC2828036C23D
:1003BA00818032C280802EC2EA802AC2908026C200
:1003CA00E98022C2A7801EC2A6801AC2A58016C2D0
:1003DA00A48012C2A3800EC2A2800AC2A18006C251
:1003EA00A08002C2E87F017E001209D9C2B6C2B754
:1003FA007F0A1208978E0A8F0B12089C8E128F138F
:10040A0012089C8E1A8F1BD2B6D2B77F0A1208978F
:10041A008E0C8F0D12089C8E148F1512089C8E1C40
:10042A008F1DC2B6D2B77F0A1208978E0E8F0F128F
:10043A00089C8E168F1712089C8E1E8F1FE50B259F
:10044A0013FFE50A3512FEE51B2FFFE51A3EFE7C77
:10045A00007D031206C0AC06AD07ECFFE50975F096
:10046A0006A424FAF582E434FFF583EFF0AF05E53C
:10047A000975F006A424FBF582E434FFF583EFF056
:10048A00E50D2515FFE50C3514FEE51D2FFFE51CCE
:10049A003EFE7C007D031206C0AC06AD07ECFFE50C
:1004AA000975F006A424FCF582E434FFF583EFF025
:1004BA00AF05E50975F006A424FDF582E434FFF5DD
:1004CA0083EFF0E50F2517FFE50E3516FEE51F2F22
:1004DA00FFE51E3EFE7C007D031206C0AC06AD079A
:1004EA00ECFFE50975F006A424FEF582E434FFF575
:1004FA0083EFF0AF05E50975F006A424FFF582E461
:10050A0034FFF583EFF0E50914B414004003020543
:10051A00B390052975F003A4C58325F0C58373023A
:10052A0005B10205AD0205A90205A50205A102054C
:10053A009D02059902059502059102058D0205891C
:10054A0002058502058102057D020579020575020B
:10055A00057102056D020569020565D287804AD2D6
:10056A00868046D2858042D284803ED283803AD227
:10057A00828036D2818032D280802ED2EA802AD2FC
:10058A00908026D2E98022D2A7801ED2A6801AD2D3
:10059A00A58016D2A48012D2A3800ED2A2800AD23B
:0B05AA00A18006D2A08002D2E8D2AFF0
:0105B5002223
:100735000205B6E493A3F8E493A34003F68001F21F
:1007450008DFF48029E493A3F85407240CC8C333C5
:10075500C4540F4420C8834004F456800146F6DF94
:10076500E4800B0102040810204080900A0DE47E0D
:10077500019360BCA3FF543F30E509541FFEE49389
:10078500A360010ECF54C025E060A840B8E493A350
:10079500FAE493A3F8E493A3C8C582C8CAC583CA7B
:1007A500F0A3C8C582C8CAC583CADFE9DEE780BE33
:010A200000D5
:10069300BB010CE58229F582E5833AF583E022501C
:1006A30006E92582F8E622BBFE06E92582F8E22266
:0D06B300E58229F582E5833AF583E4932280
:1006C000BC000BBE0029EF8DF084FFADF022E4CC1E
:1006D000F875F008EF2FFFEE33FEEC33FCEE9DECE7
:1006E000984005FCEE9DFE0FD5F0E9E4CEFD22ED2D
:1006F000F8F5F0EE8420D21CFEADF075F008EF2F77
:10070000FFED33FD4007985006D5F0F222C398FD67
:050710000FD5F0EA2204
:10071500E86010ECA2E713FCED13FDEE13FEEF13FA
:04072500FFD8F022E7
:00000001FF
